:020000040800F2
:1000000000C00020C10F00089D090008A5090008D4
:10001000AD090008B5090008BD090008000000008E
:10002000000000000000000000000000C5090008FA
:10003000D109000800000000DD090008E9090008F6
:10004000091000080910000809100008091000082C
:10005000091000080910000809100008F509000837
:100060000910000809100008030A00080910000818
:1000700009100008091000080910000809100008FC
:1000800009100008091000080910000809100008EC
:10009000091000080910000809100008110A0008DA
:1000A00009100008091000080910000809100008CC
:1000B0000910000809100008210A000809100008AA
:1000C00009100008091000080910000809100008AC
:1000D000091000080910000809100008091000089C
:1000E000091000080910000809100008091000088C
:1000F000091000080910000809100008091000087C
:10010000091000080910000809100008091000086B
:10011000091000080910000809100008091000085B
:10012000091000080910000809100008091000084B
:1001300000000000000000000000000000000000BF
:1001400000000000000000000000000000000000AF
:10015000000000000000000000000000000000009F
:10016000000000000000000000000000000000008F
:10017000000000000000000000000000000000007F
:10018000000000000000000000000000000000006F
:10019000000000000000000000000000000000005F
:1001A000000000000000000000000000000000004F
:1001B000000000000000000000000000000000003F
:1001C000000000000000000000000000000000002F
:1001D000000000000000000000000000000000001F
:0401E0005FF8E0F1F3
:1001E40010B5054C237833B9044B13B10448AFF36D
:1001F40000800123237010BD0C00002000000000CB
:100204007030000808B5034B1BB103490348AFF332
:10021400008008BD000000001000002070300008BD
:1002240080F0004002E000BF81F0004142001FBFA7
:100234005FEA410392EA030F7FEA226C7FEA236CB0
:100244006AD04FEA1262D2EB1363C1BFD2184140A5
:1002540048404140B8BF5B42192B88BF704710F03B
:10026400004F40F4000020F07F4018BF404211F0DE
:10027400004F41F4000121F07F4118BF494292EA46
:10028400030F3FD0A2F1010241FA03FC10EB0C0072
:10029400C3F1200301FA03F100F0004302D54942FF
:1002A40060EB4000B0F5000F13D3B0F1807F06D3AC
:1002B40040084FEA310102F10102FE2A51D2B1F1A4
:1002C400004F40EBC25008BF20F0010040EA030099
:1002D4007047490040EB0000013A28BFB0F5000F19
:1002E400EDD2B0FA80FCACF1080CB2EB0C0200FACF
:1002F4000CF0AABF00EBC25052421843BCBFD0401E
:100304001843704792F0000F81F4000106BF80F497
:1003140000000132013BB5E74FEA41037FEA226C5A
:1003240018BF7FEA236C21D092EA030F04D092F025
:10033400000F08BF0846704790EA010F1CBF002059
:10034400704712F07F4F04D1400028BF40F00040B6
:10035400704712F100723CBF00F50000704700F0D6
:10036400004343F0FE4040F4000070477FEA2262FD
:1003740016BF08467FEA23630146420206BF5FEACE
:10038400412390EA010F40F4800070474FF00003CE
:1003940004E000BF10F0004348BF40425FEA000C95
:1003A40008BF704743F0964301464FF000001CE03D
:1003B40050EA010208BF70474FF000030AE000BF93
:1003C40050EA010208BF704711F0004302D54042D1
:1003D40061EB41015FEA010C02BF84460146002043
:1003E40043F0B64308BFA3F18053A3F50003BCFA5E
:1003F4008CF2083AA3EBC25310DB01FA02FC63440B
:1004040000FA02FCC2F12002BCF1004F20FA02F211
:1004140043EB020008BF20F00100704702F1200204
:1004240001FA02FCC2F1200250EA4C0021FA02F265
:1004340043EB020008BF20EADC7070474FF0FF0C6A
:100444001CEAD0521EBF1CEAD15392EA0C0F93EA65
:100454000C0F6FD01A4480EA010C400218BF5FEA07
:1004640041211ED04FF0006343EA501043EA51117A
:10047400A0FB01310CF00040B1F5000F3EBF490074
:1004840041EAD3715B0040EA010062F17F02FD2A78
:100494001DD8B3F1004F40EBC25008BF20F001005B
:1004A400704790F0000F0CF0004C08BF49024CEA72
:1004B400502040EA51207F3AC2BFD2F1FF0340EA04
:1004C400C250704740F400004FF00003013A5DDC75
:1004D40012F1190FDCBF00F000407047C2F10002B6
:1004E400410021FA02F1C2F1200200FA02FC5FEAA3
:1004F400310040F1000053EA4C0308BF20EADC70ED
:10050400704792F0000F00F0004C02BF400010F45E
:10051400000F013AF9D040EA0C0093F0000F01F00B
:10052400004C02BF490011F4000F013BF9D041EA2D
:100534000C018FE70CEAD15392EA0C0F18BF93EA2F
:100544000C0F0AD030F0004C18BF31F0004CD8D159
:1005540080EA010000F00040704790F0000F17BFE0
:1005640090F0004F084691F0000F91F0004F14D026
:1005740092EA0C0F01D142020FD193EA0C0F03D17E
:100584004B0218BF084608D180EA010000F0004081
:1005940040F0FE4040F40000704740F0FE4040F45C
:1005A400400070474FF0FF0C1CEAD0521EBF1CEAFB
:1005B400D15392EA0C0F93EA0C0F69D0A2EB030219
:1005C40080EA010C49024FEA402037D04FF08053B3
:1005D40043EA111143EA10130CF000408B4238BF78
:1005E4005B0042F17D024FF4000C8B4224BF5B1A86
:1005F40040EA0C00B3EB510F24BFA3EB510340EAD4
:100604005C00B3EB910F24BFA3EB910340EA9C0081
:10061400B3EBD10F24BFA3EBD10340EADC001B01F1
:1006240018BF5FEA1C1CE0D1FD2A3FF650AF8B4295
:1006340040EBC25008BF20F0010070470CF0004CA2
:100644004CEA50207F32C2BFD2F1FF0340EAC250CD
:10065400704740F400004FF00003013A37E792F08E
:10066400000F00F0004C02BF400010F4000F013AEC
:10067400F9D040EA0C0093F0000F01F0004C02BFE7
:10068400490011F4000F013BF9D041EA0C0195E750
:100694000CEAD15392EA0C0F08D142027FF47DAFE9
:1006A40093EA0C0F7FF470AF084676E793EA0C0FD9
:1006B40004D14B023FF44CAF08466EE730F0004CD7
:1006C40018BF31F0004CCAD130F000427FF45CAF67
:1006D40031F000437FF43CAF5FE700BF80B588B0E2
:1006E40000AF07F1100300221A605A609A60DA60C2
:1006F4004F4B9B694E4A43F0200393614C4B9B69DB
:1007040003F02003FB60FB68494B9B69484A43F0B4
:1007140010039361464B9B6903F01003BB60BB68F5
:10072400434B9B69424A43F004039361404B9B69EA
:1007340003F004037B607B683D4B9B693C4A43F0B8
:10074400080393613A4B9B6903F008033B603B68E1
:1007540000220121374801F046F800224FF201013E
:10076400354801F040F800220421344801F03BF8F8
:1007740001233B6101237B610223BB610323FB61F2
:1007840007F1100319462B4800F082FE02233B6157
:100794002B4B7B610023BB6107F1100319462548ED
:1007A40000F076FE30233B61264B7B610123BB6165
:1007B40007F1100319461F4800F06AFE4FF20103C7
:1007C4003B6101237B610023BB610223FB6107F1D1
:1007D40010031946184800F05BFE04233B61012313
:1007E4007B610023BB610223FB6107F110031946FF
:1007F400124800F04DFE00220121072000F011FEF6
:10080400072000F02AFE002201210A2000F009FE40
:100814000A2000F022FE00220121172000F001FE30
:10082400172000F01AFE00BF2037BD4680BD00BF70
:100834000010024000100140000C0140001401406F
:10084400000011100000211080B500AF00F08CFCF6
:1008540000F022F8FFF742FF00F0FEF900F0B0F9D3
:1008640000F094FA0021094801F00AFD00F0CCFBE5
:1008740000220121064800F0B6FF002204210548A9
:1008840000F0B1FF00F0D6FB00BFF1E7B800002094
:10089400000C01400014014080B590B000AF07F196
:1008A400180328220021184602F0B4FB3B1D002245
:1008B4001A605A609A60DA601A610123BB614FF4CE
:1008C4008033FB6100233B620123BB6202237B6311
:1008D4004FF48033BB634FF4E013FB6307F1180359
:1008E400184600F0C9FF0346002B01D000F019F8A8
:1008F4000F237B600223BB600023FB604FF4806303
:100904003B6100237B613B1D0221184601F036FA4E
:100914000346002B01D000F004F800BF4037BD4669
:1009240080BD80B400AF72B600BF00BFFDE7000019
:1009340080B584B000AF164B9B69154A43F00103A0
:100944009361134B9B6903F00103BB60BB68104BBD
:10095400DB690F4A43F08053D3610D4BDB6903F02D
:1009640080537B607B68052000F050FD094B5B6879
:10097400FB60FB6823F0E063FB60FB6843F00073FB
:10098400FB60044AFB68536000BF1037BD4680BD5E
:10099400001002400000014080B400AF00BFFDE73A
:1009A40080B400AF00BFFDE780B400AF00BFFDE737
:1009B40080B400AF00BFFDE780B400AF00BFFDE727
:1009C40080B400AF00BFBD4680BC704780B400AFA8
:1009D40000BFBD4680BC704780B400AF00BFBD46B9
:1009E40080BC704780B500AF00F004FC00BF80BD40
:1009F40080B500AF022000F027FF00BF80BD80B5A6
:100A040000AF102000F020FF00BF80BD80B500AF14
:100A1400202000F019FF00BF80BD000080B500AFAA
:100A2400024801F0E7FC00BF80BD00BF7000002059
:100A340080B582B000AF0346FB800A2000F0F6FBCD
:100A4400FB88013B1F2B00F29F8001A252F823F088
:100A54002D0B00083D0B00088D0B00088D0B0008C2
:100A64008D0B00088D0B00088D0B00088D0B000802
:100A74008D0B00088D0B00088D0B00088D0B0008F2
:100A84008D0B00088D0B00088D0B0008E50A00088B
:100A94008D0B00088D0B00088D0B00088D0B0008D2
:100AA4008D0B00088D0B00088D0B00088D0B0008C2
:100AB4008D0B00088D0B00088D0B00088D0B0008B2
:100AC4008D0B00088D0B00088D0B0008050B00082A
:100AD400012201212F4800F086FE2F4800F0DCFAA5
:100AE40010212E4800F068FE0346002BF0D04CE0A5
:100AF400012204212A4800F076FE274800F002FB78
:100B04002021264800F058FE0346002BF0D03CE09C
:100B14004FF4FA7000F08AFB01211E4800F07BFEBE
:100B240004211F4800F077FE01211E4800F044FE16
:100B34000346012BECD028E04FF0804300225A6298
:100B4400194801F0C7FA00BF0221144800F034FE2E
:100B54000346002BF8D1144801F014FB4FF08043F6
:100B64005B6A1846FFF716FC034610491846FFF760
:100B740065FC03464FF080411846FFF713FD03461A
:100B84001A460B4B1A6000E000BF00BF0837BD4691
:100B940080BD00BF000C0140700000200010014027
:100BA40000140140000801402800002096430B3D3A
:100BB4000001002080B400AF00BFBD4680BC704778
:100BC40080B586B000AF07F1080300221A605A60AE
:100BD4009A60DA603B4600221A605A601D4B4FF05F
:100BE40080421A601B4B47225A601A4B00229A60BB
:100BF400184B4FF6FF72DA60164B00221A61154B40
:100C040080229A61134801F015FA0346002B01D0A3
:100C1400FFF787FE4FF48053BB6007F108031946C2
:100C24000C4801F099FD0346002B01D0FFF779FE33
:100C340000233B6000237B603B461946054802F0D5
:100C44006BF90346002B01D0FFF76BFE00BF18378A
:100C5400BD4680BD2800002080B58EB000AF07F1EE
:100C6400280300221A605A609A60DA6007F12003B0
:100C740000221A605A603B1D00221A605A609A6072
:100C8400DA601A615A619A613E4B3F4A1A603D4BE1
:100C940000225A603B4B00229A603A4B41F61F42B5
:100CA400DA60384B00221A61364B80229A6135484B
:100CB40001F0C0F90346002B01D0FFF732FE4FF4D8
:100CC4008053BB6207F1280319462E4801F044FD06
:100CD4000346002B01D0FFF724FE2A4801F078FADE
:100CE4000346002B01D0FFF71CFE00233B620023C8
:100CF4007B6207F120031946224802F00DF90346EE
:100D0400002B01D0FFF70DFE70237B600023BB6036
:100D14000023FB6000237B613B1D00221946194818
:100D240001F058FC0346002B01D0FFF7FAFD3B1DF0
:100D340004221946134801F04DFC0346002B01D050
:100D4400FFF7EFFD60237B603B1D082219460D4829
:100D540001F040FC0346002B01D0FFF7E2FD3B1DF0
:100D64000C221946074801F035FC0346002B01D03C
:100D7400FFF7D7FD034800F0CBF800BF3837BD4676
:100D840080BD00BF700000200008004080B58EB018
:100D940000AF07F1280300221A605A609A60DA60F3
:100DA40007F1200300221A605A603B1D00221A60DA
:100DB4005A609A60DA601A615A619A612C4B2D4A22
:100DC4001A602B4B8F225A60294B00229A60284BC1
:100DD40042F20F72DA60264B00221A61244B802201
:100DE4009A61234801F026F90346002B01D0FFF74E
:100DF40098FD4FF48053BB6207F1280319461C4841
:100E040001F0AAFC0346002B01D0FFF78AFD184825
:100E140001F0DEF90346002B01D0FFF782FD002329
:100E24003B6200237B6207F120031946104802F05D
:100E340073F80346002B01D0FFF773FD60237B603A
:100E44000023BB600023FB6000237B613B1D002269
:100E54001946074801F0BEFB0346002B01D0FFF7FB
:100E640060FD034800F054F800BF3837BD4680BD2C
:100E7400B8000020000C004080B586B000AF786058
:100E84007B681B68B3F1804F0CD11E4BDB691D4A94
:100E940043F00103D3611B4BDB6903F001037B6166
:100EA4007B692AE07B681B68174A934214D1154B6F
:100EB400DB69144A43F00403D361124BDB6903F08A
:100EC40004033B613B69002201211E2000F0A9FAC2
:100ED4001E2000F0C2FA10E07B681B680B4A9342A4
:100EE4000BD1084BDB69074A43F00803D361054B78
:100EF400DB6903F00803FB60FB6800BF1837BD46DD
:100F040080BD00BF0010024000080040000C0040FB
:100F140080B588B000AF786007F1100300221A6032
:100F24005A609A60DA607B681B681F4A934219D141
:100F34001E4B9B691D4A43F0080393611B4B9B693D
:100F440003F00803FB60FB684FF470733B610223FA
:100F54007B610323FB6107F110031946144800F079
:100F640097FA1CE07B681B68124A934217D10F4B17
:100F74009B690E4A43F0040393610C4B9B6903F095
:100F84000403BB60BB6801233B6102237B61022332
:100F9400FB6107F110031946074800F079FA00BF16
:100FA4002037BD4680BD00BF00080040001002404D
:100FB400000C0140000C004000080140FFF7FAFD5E
:100FC4000B480C490C4A002302E0D458C4500433A3
:100FD400C4188C42F9D3094A094C002301E0136078
:100FE4000432A242FBD302F01DF8FFF72DFC704738
:100FF400000000200C000020B43000080C00002089
:1010040008010020FEE7000080B500AF0021084879
:1010140001F036F90421064801F032F908210448A8
:1010240001F02EF90C21024801F02AF900BF80BD1D
:101034007000002080B500AF00224FF480511448A6
:1010440000F0D1FB00224FF40051114800F0CBFB1B
:1010540000224FF480410E4800F0C5FB00224FF4FB
:1010640000410B4800F0BFFB0A4B1B684FF4E152F0
:101074005A63084B1B684FF4E1529A63054B1B6893
:101084000022DA63034B1B6800221A6400BF80BD90
:10109400000C01407000002080B582B000AF786081
:1010A40001224FF48051164800F09DFB01224FF4B9
:1010B4000051134800F097FB00224FF48041104880
:1010C40000F091FB00224FF400410D4800F08BFB2F
:1010D4007B681B684FF4E1525A637B681B684FF4CA
:1010E400E1529A637B681B684FF4E152DA637B68D0
:1010F4001B684FF4E1521A6400BF0837BD4680BD37
:10110400000C014080B582B000AF786000224FF43B
:101114008051144800F067FB00224FF4005111483D
:1011240000F061FB01224FF480410E4800F05BFBAC
:1011340001224FF400410B4800F055FB7B681B680B
:1011440000225A637B681B6800229A637B681B68D1
:101154000022DA637B681B6800221A6400BF083728
:10116400BD4680BD000C014080B500AF084B1B6834
:10117400074A43F010031360032000F047F90020EE
:1011840000F008F8FFF7D4FB0023184680BD00BF29
:101194000020024080B582B000AF7860124B1A681C
:1011A400124B1B7819464FF47A73B3FBF1F3B2FB7D
:1011B400F3F3184600F05FF90346002B01D0012336
:1011C4000EE07B680F2B0AD8002279684FF0FF30BD
:1011D40000F027F9064A7B681360002300E001232E
:1011E40018460837BD4680BD0000002008000020D6
:1011F4000400002080B400AF054B1B781A46054B51
:101204001B681344034A136000BFBD4680BC70478B
:10121400080000200401002080B400AF024B1B68CA
:101224001846BD4680BC70470401002080B584B0D8
:1012340000AF7860FFF7F0FFB8607B68FB60FB6885
:10124400B3F1FF3F05D00A4B1B781A46FB681344E1
:10125400FB6000BFFFF7E0FF0246BB68D31AFA68E1
:101264009A42F7D800BF00BF1037BD4680BD00BF0B
:101274000800002080B485B000AF78607B6803F07C
:101284000703FB600C4BDB68BB60BA684FF6FF03D7
:101294001340BB60FB681A02BB68134343F0BF638F
:1012A40043F40033BB60044ABB68D36000BF143707
:1012B400BD4680BC704700BF00ED00E080B400AFC5
:1012C400044BDB681B0A03F007031846BD4680BCC9
:1012D400704700BF00ED00E080B483B000AF034668
:1012E400FB7197F90730002B0BDBFB7903F01F022E
:1012F400064997F907305B09012000FA02F241F828
:10130400232000BF0C37BD4680BC704700E100E0DD
:1013140080B483B000AF03463960FB7197F907309E
:10132400002B0ADB3B68DAB20C4997F9073012014B
:10133400D2B20B4483F800230AE03B68DAB20849CE
:10134400FB7903F00F03043B1201D2B20B441A766B
:1013540000BF0C37BD4680BC704700BF00E100E011
:1013640000ED00E080B489B000AFF860B9607A6045
:10137400FB6803F00703FB61FB69C3F10703042B5C
:1013840028BF0423BB61FB690433062B02D9FB6924
:10139400033B00E000237B614FF0FF32BB6902FA9C
:1013A40003F3DA43BB681A407B699A404FF0FF317C
:1013B4007B6901FA03F3D9437B680B401343184656
:1013C4002437BD4680BC704780B582B000AF7860DA
:1013D4007B68013BB3F1807F01D301230FE00A4A0C
:1013E4007B68013B53600F214FF0FF30FFF790FF04
:1013F400054B00229A60044B07221A60002318460A
:101404000837BD4680BD00BF10E000E080B582B063
:1014140000AF78607868FFF72DFF00BF0837BD463E
:1014240080BD80B586B000AF0346B9607A60FB73B7
:1014340000237B61FFF742FF78617A68B9687869B5
:10144400FFF790FF024697F90F3011461846FFF751
:101454005FFF00BF1837BD4680BD80B582B000AFC6
:101464000346FB7197F907301846FFF735FF00BFB5
:101474000837BD4680BD80B582B000AF786078681B
:10148400FFF7A2FF034618460837BD4680BD00009B
:1014940080B48BB000AF7860396000237B62002396
:1014A4003B6279E101227B6A02FA03F3FB613B6848
:1014B4001B68FA691340BB61BA69FB699A4240F040
:1014C40068813B685B68964A93425ED0944A934233
:1014D40075D8944A934258D0924A93426FD8924A0C
:1014E400934252D0904A934269D8904A93424CD046
:1014F4008E4A934263D88E4A934246D08C4A934292
:101504005DD8122B2AD8122B59D801A252F823F0F5
:101514008F150008691500087B150008BD15000823
:10152400C3150008C3150008C3150008C315000837
:10153400C3150008C3150008C3150008C315000827
:10154400C3150008C3150008C3150008C315000817
:10155400C31500087115000885150008754A9342E3
:1015640013D02CE03B68DB683B6229E03B68DB6816
:1015740004333B6224E03B68DB6808333B621FE0D2
:101584003B68DB680C333B621AE03B689B68002BCA
:1015940002D104233B6213E03B689B68012B05D115
:1015A40008233B627B68FA691A6109E008233B62FD
:1015B4007B68FA695A6103E000233B6200E000BFE4
:1015C400BB69FF2B01D87B6801E07B6804337B6136
:1015D400BB69FF2B02D87B6A9B0002E07B6A083B55
:1015E4009B003B617B691A680F213B6901FA03F395
:1015F400DB431A40396A3B6901FA03F31A437B69F6
:101604001A603B685B6803F08053002B00F0C180D4
:10161400494B9B69484A43F001039361464B9B69DC
:1016240003F00103BB60BB68444A7B6A9B08023336
:1016340052F82330FB607B6A03F003039B000F2204
:1016440002FA03F3DB43FA681340FB607B683C4A0D
:1016540093421FD07B683B4A934219D07B683A4A35
:10166400934213D07B68394A93420DD07B68384A41
:10167400934207D07B68374A934201D105230AE09D
:10168400062308E0042306E0032304E0022302E027
:10169400012300E000237A6A02F0030292009340DF
:1016A400FA681343FB6025497B6A9B080233FA6896
:1016B40041F823203B685B6803F48013002B06D0B9
:1016C400254B9A682449BB6913438B6006E0224B7F
:1016D4009A68BB69DB43204913408B603B685B68B5
:1016E40003F40013002B06D01B4BDA681A49BB69BC
:1016F4001343CB6006E0184BDA68BB69DB43164939
:101704001340CB603B685B6803F40033002B25D0A7
:10171400114B5A681049BB6913434B6025E000BF65
:1017240000003210000031100000221000002110CF
:1017340000001210000011100010024000000140CF
:1017440000080140000C0140001001400014014059
:1017540000180140001C014000040140154B5A6868
:10176400BB69DB43134913404B603B685B6803F47C
:101774008033002B06D00F4B1A680E49BB69134304
:101784000B6006E00B4B1A68BB69DB430949134045
:101794000B607B6A01337B623B681A687B6A22FABE
:1017A40003F3002B7FF47EAE00BF00BF2C37BD4691
:1017B40080BC70470004014080B485B000AF7860FD
:1017C4000B467B807B689A687B881340002B02D091
:1017D4000123FB7301E00023FB73FB7B18461437E2
:1017E400BD4680BC704780B483B000AF78600B46C0
:1017F4007B8013467B707B78002B03D07A887B68D0
:101804001A6103E07B881A047B681A6100BF0C37F5
:10181400BD4680BC704780B485B000AF78600B468D
:101824007B807B68DB68FB607A88FB6813401A0462
:10183400FB68D9437B880B401A437B681A6100BF5D
:101844001437BD4680BC704780B582B000AF0346F4
:10185400FB80084B5A69FB881340002B06D0054ACD
:10186400FB885361FB881846FFF7E2F800BF08378E
:10187400BD4680BD0004014080B586B000AF7860ED
:101884007B68002B01D1012372E27B681B6803F0A3
:101894000103002B00F08780924B5B6803F00C037C
:1018A400042B0CD08F4B5B6803F00C03082B12D174
:1018B4008C4B5B6803F48033B3F5803F0BD1894BC9
:1018C4001B6803F40033002B6CD07B685B68002B2F
:1018D40068D101234CE27B685B68B3F5803F06D195
:1018E400804B1B687F4A43F4803313602EE07B688F
:1018F4005B68002B0CD17B4B1B687A4A23F4803342
:101904001360784B1B68774A23F4802313601DE02F
:101914007B685B68B3F5A02F0CD1724B1B68714ACE
:1019240043F4802313606F4B1B686E4A43F4803387
:1019340013600BE06B4B1B686A4A23F4803313601B
:10194400684B1B68674A23F4802313607B685B68D9
:10195400002B13D0FFF760FC386108E0FFF75CFC54
:1019640002463B69D31A642B01D9032300E25D4B81
:101974001B6803F40033002BF0D014E0FFF74CFC99
:10198400386108E0FFF748FC02463B69D31A642B30
:1019940001D90323ECE1534B1B6803F40033002B00
:1019A400F0D100E000BF7B681B6803F00203002B4A
:1019B40063D04C4B5B6803F00C03002B0BD0494BFA
:1019C4005B6803F00C03082B1CD1464B5B6803F4E3
:1019D4008033002B16D1434B1B6803F00203002B0A
:1019E40005D07B681B69012B01D00123C0E13D4B6D
:1019F4001B6823F0F8027B685B69DB0039491343F9
:101A04000B603AE07B681B69002B20D0364B012227
:101A14001A60FFF701FC386108E0FFF7FDFB02469E
:101A24003B69D31A022B01D90323A1E12D4B1B6877
:101A340003F00203002BF0D02A4B1B6823F0F802BA
:101A44007B685B69DB00274913430B6015E0264B79
:101A540000221A60FFF7E0FB386108E0FFF7DCFBC7
:101A640002463B69D31A022B01D9032380E11D4BA3
:101A74001B6803F00203002BF0D17B681B6803F0A2
:101A84000803002B3AD07B689B69002B19D0174BB5
:101A940001221A60FFF7C0FB386108E0FFF7BCFBC6
:101AA40002463B69D31A022B01D9032360E10D4B93
:101AB4005B6A03F00203002BF0D0012000F09CFAD3
:101AC4001CE00A4B00221A60FFF7A6FB38610FE006
:101AD400FFF7A2FB02463B69D31A022B08D9032362
:101AE40046E100BF0010024000004242800442422E
:101AF400924B5B6A03F00203002BE9D17B681B68FD
:101B040003F00403002B00F0A6800023FB758B4B2D
:101B1400DB6903F08053002B0DD1884BDB69874AC6
:101B240043F08053D361854BDB6903F08053BB6082
:101B3400BB680123FB75824B1B6803F48073002B85
:101B440018D17F4B1B687E4A43F480731360FFF700
:101B540063FB386108E0FFF75FFB02463B69D31A79
:101B6400642B01D9032303E1754B1B6803F48073D1
:101B7400002BF0D07B68DB68012B06D16F4B1B6A0E
:101B84006E4A43F0010313622DE07B68DB68002B8F
:101B94000CD16A4B1B6A694A23F001031362674B39
:101BA4001B6A664A23F0040313621CE07B68DB684B
:101BB400052B0CD1614B1B6A604A43F0040313628A
:101BC4005E4B1B6A5D4A43F0010313620BE05B4BFF
:101BD4001B6A5A4A23F001031362584B1B6A574A83
:101BE40023F0040313627B68DB68002B15D0FFF736
:101BF40013FB38610AE0FFF70FFB02463B69D31A77
:101C040041F28832934201D90323B1E04B4B1B6A62
:101C140003F00203002BEED014E0FFF7FDFA386165
:101C24000AE0FFF7F9FA02463B69D31A41F2883217
:101C3400934201D903239BE0404B1B6A03F0020348
:101C4400002BEED1FB7D012B05D13C4BDB693B4ADC
:101C540023F08053D3617B68DB69002B00F087801D
:101C6400364B5B6803F00C03082B61D07B68DB699F
:101C7400022B46D1334B00221A60FFF7CDFA3861AC
:101C840008E0FFF7C9FA02463B69D31A022B01D9CF
:101C940003236DE0294B1B6803F00073002BF0D184
:101CA4007B681B6AB3F5803F08D1244B5B6823F43F
:101CB40000327B689B68214913434B601F4B5B6870
:101CC40023F474127B68196A7B685B6A0B431B49B3
:101CD40013434B601B4B01221A60FFF79DFA3861D6
:101CE40008E0FFF799FA02463B69D31A022B01D99F
:101CF40003233DE0114B1B6803F00073002BF0D06D
:101D040035E0104B00221A60FFF786FA386108E0CC
:101D1400FFF782FA02463B69D31A022B01D9032347
:101D240026E0064B1B6803F00073002BF0D11EE085
:101D34007B68DB69012B07D1012319E00010024005
:101D440000700040600042420B4B5B68FB60FB6824
:101D540003F480327B681B6A9A4206D1FB6803F461
:101D640070127B685B6A9A4201D0012300E0002371
:101D740018461837BD4680BD0010024080B584B0B7
:101D840000AF786039607B68002B01D10123D0E07B
:101D94006A4B1B6803F007033A689A4210D9674BF1
:101DA4001B6823F0070265493B6813430B60634BD0
:101DB4001B6803F007033A689A4201D00123B8E094
:101DC4007B681B6803F00203002B20D07B681B6830
:101DD40003F00403002B05D0594B5B68584A43F4C5
:101DE400E06353607B681B6803F00803002B05D095
:101DF400534B5B68524A43F460535360504B5B68E7
:101E040023F0F0027B689B684D4913434B607B6869
:101E14001B6803F00103002B40D07B685B68012B37
:101E240007D1474B1B6803F40033002B15D1012362
:101E34007FE07B685B68022B07D1414B1B6803F092
:101E44000073002B09D1012373E03D4B1B6803F0A1
:101E54000203002B01D101236BE0394B5B6823F0B3
:101E640003027B685B68364913434B60FFF7D4F980
:101E7400F8600AE0FFF7D0F90246FB68D31A41F292
:101E84008832934201D9032353E02D4B5B6803F05E
:101E94000C027B685B689B009A42EBD1274B1B6862
:101EA40003F007033A689A4210D2244B1B6823F0CC
:101EB400070222493B6813430B60204B1B6803F065
:101EC40007033A689A4201D0012332E07B681B6819
:101ED40003F00403002B08D0194B5B6823F4E06281
:101EE4007B68DB68164913434B607B681B6803F00F
:101EF4000803002B09D0124B5B6823F460527B6803
:101F04001B69DB000E4913434B6000F021F80246C5
:101F14000B4B5B681B0903F00F030A49CB5C22FAE5
:101F240003F3094A1360094B1B681846FFF732F99B
:101F3400002318461037BD4680BD00BF0020024074
:101F44000010024088300008000000200400002037
:101F540080B487B000AF0023FB600023BB60002384
:101F64007B6100237B6000233B611E4B5B68FB604D
:101F7400FB6803F00C03042B02D0082B03D027E0EA
:101F8400194B3B6127E0FB689B0C03F00F03174AD6
:101F9400D35C7B60FB6803F48033002B10D0114BBF
:101FA4005B685B0C03F00103114AD35CBB607B6884
:101FB4000D4A03FB02F2BB68B2FBF3F37B6104E05E
:101FC4007B680C4A02FB03F37B617B693B6102E0A3
:101FD400054B3B6100BF3B6918461C37BD4680BCBE
:101FE400704700BF0010024000127A0098300008C9
:101FF400A830000800093D0080B485B000AF7860C7
:102004000A4B1B680A4AA2FB03235B0A7A6802FB99
:1020140003F3FB6000BFFB685A1EFA60002BF9D182
:1020240000BF00BF1437BD4680BC704700000020CD
:10203400D34D621080B582B000AF78607B68002B0E
:1020440001D1012341E07B6893F83D30DBB2002BE2
:1020540006D17B68002283F83C207868FEF70CFFE9
:102064007B68022283F83D207B681A687B6804330E
:102074001946104600F064FC7B68012283F8462070
:102084007B68012283F83E207B68012283F83F208D
:102094007B68012283F840207B68012283F8412079
:1020A4007B68012283F842207B68012283F8432065
:1020B4007B68012283F844207B68012283F8452051
:1020C4007B68012283F83D20002318460837BD466B
:1020D40080BD000080B485B000AF78607B6893F861
:1020E4003D30DBB2012B01D001233CE07B680222AE
:1020F40083F83D207B681B681D4A934218D07B6897
:102104001B681C4A934213D07B681B68B3F1804F51
:102114000ED07B681B68184A934209D07B681B6801
:10212400164A934204D07B681B68154A934211D126
:102134007B681B689B6803F00703FB60FB68062B46
:1021440010D07B681B681A687B681B6842F0010228
:102154001A6007E07B681B681A687B681B6842F09A
:1021640001021A60002318461437BD4680BC70472C
:10217400002C0140003401400004004000080040ED
:10218400000C004080B483B000AF78607B681B68AB
:102194001A6A41F211131340002B0FD17B681B689C
:1021A4001A6A40F244431340002B07D17B681B6832
:1021B4001A687B681B6822F001021A607B6801229E
:1021C40083F83D20002318460C37BD4680BC704779
:1021D40080B582B000AF78607B68002B01D1012309
:1021E40041E07B6893F83D30DBB2002B06D17B687D
:1021F400002283F83C20786800F039F87B680222DA
:1022040083F83D207B681A687B68043319461046BE
:1022140000F096FB7B68012283F846207B6801224C
:1022240083F83E207B68012283F83F207B680122EB
:1022340083F840207B68012283F841207B680122D7
:1022440083F842207B68012283F843207B680122C3
:1022540083F844207B68012283F845207B680122AF
:1022640083F83D20002318460837BD4680BD80B45E
:1022740083B000AF786000BF0C37BD4680BC7047A8
:1022840080B584B000AF786039603B68002B09D119
:102294007B6893F83E30DBB2012B14BF012300238B
:1022A400DBB222E03B68042B09D17B6893F83F3012
:1022B400DBB2012B14BF01230023DBB215E03B6822
:1022C400082B09D17B6893F84030DBB2012B14BF93
:1022D40001230023DBB208E07B6893F84130DBB2D2
:1022E400012B14BF01230023DBB2002B01D00123F7
:1022F40072E03B68002B04D17B68022283F83E2005
:1023040013E03B68042B04D17B68022283F83F204E
:102314000BE03B68082B04D17B68022283F8402041
:1023240003E07B68022283F841207B681B6801225A
:102334003968184600F0CCFD7B681B68284A934234
:1023440004D07B681B68274A934201D1012300E033
:102354000023002B07D07B681B685A6C7B681B68C2
:1023640042F400425A647B681B681D4A934218D0A9
:102374007B681B681B4A934213D07B681B68B3F1CC
:10238400804F0ED07B681B68174A934209D07B6844
:102394001B68164A934204D07B681B68144A934214
:1023A40011D17B681B689B6803F00703FB60FB6823
:1023B400062B10D07B681B681A687B681B6842F088
:1023C40001021A6007E07B681B681A687B681B6857
:1023D40042F001021A60002318461037BD4680BD42
:1023E400002C01400034014000040040000800407B
:1023F400000C004080B584B000AF78607B681B6837
:10240400DB68FB607B681B681B69BB60BB6803F00F
:102414000203002B20D0FB6803F00203002B1BD027
:102424007B681B686FF002021A617B6801221A77CD
:102434007B681B689B6903F00303002B03D0786857
:1024440000F063FA05E0786800F056FA786800F066
:1024540065FA7B6800221A77BB6803F00403002B3B
:1024640020D0FB6803F00403002B1BD07B681B689F
:102474006FF004021A617B6802221A777B681B687A
:102484009B6903F44073002B03D0786800F03DFA95
:1024940005E0786800F030FA786800F03FFA7B686D
:1024A40000221A77BB6803F00803002B20D0FB68D6
:1024B40003F00803002B1BD07B681B686FF0080235
:1024C4001A617B6804221A777B681B68DB6903F056
:1024D4000303002B03D0786800F017FA05E078684E
:1024E40000F00AFA786800F019FA7B6800221A777B
:1024F400BB6803F01003002B20D0FB6803F010032B
:10250400002B1BD07B681B686FF010021A617B687C
:1025140008221A777B681B68DB6903F44073002B7D
:1025240003D0786800F0F1F905E0786800F0E4F988
:10253400786800F0F3F97B6800221A77BB6803F02F
:102544000103002B0CD0FB6803F00103002B07D020
:102554007B681B686FF001021A61786800F0C3F9A8
:10256400BB6803F08003002B0CD0FB6803F08003EE
:10257400002B07D07B681B686FF080021A617868B3
:1025840000F03FFDBB6803F04003002B0CD0FB6858
:1025940003F04003002B07D07B681B686FF04002F8
:1025A4001A61786800F0C3F9BB6803F02003002BBC
:1025B4000CD0FB6803F02003002B07D07B681B685A
:1025C4006FF020021A61786800F012FD00BF103726
:1025D400BD4680BD80B586B000AFF860B9607A6052
:1025E4000023FB75FB6893F83C30012B01D10223D7
:1025F400AEE0FB68012283F83C207B680C2B00F2E0
:102604009F8001A252F823F04126000845270008C4
:1026140045270008452700088126000845270008AB
:102624004527000845270008C32600084527000859
:10263400452700084527000803270008FB681B6896
:10264400B968184600F002FAFB681B689A69FB68CF
:102654001B6842F008029A61FB681B689A69FB6870
:102664001B6822F004029A61FB681B689969BB68C5
:102674001A69FB681B680A439A6164E0FB681B687B
:10268400B968184600F052FAFB681B689A69FB683F
:102694001B6842F400629A61FB681B689A69FB68D4
:1026A4001B6822F480629A61FB681B689969BB68A5
:1026B4001B691A02FB681B680A439A6143E0FB68C2
:1026C4001B68B968184600F0A5FAFB681B68DA694C
:1026D400FB681B6842F00802DA61FB681B68DA6970
:1026E400FB681B6822F00402DA61FB681B68D96985
:1026F400BB681A69FB681B680A43DA6123E0FB685C
:102704001B68B968184600F0F9FAFB681B68DA69B7
:10271400FB681B6842F40062DA61FB681B68DA69D3
:10272400FB681B6822F48062DA61FB681B68D96964
:10273400BB681B691A02FB681B680A43DA6102E082
:102744000123FB7500BFFB68002283F83C20FB7D5E
:1027540018461837BD4680BD80B584B000AF786098
:1027640039600023FB737B6893F83C30012B01D163
:102774000223B4E07B68012283F83C207B680222B8
:1027840083F83D207B681B689B68BB60BB6823F0B3
:102794007703BB60BB6823F47F43BB607B681B6823
:1027A400BA689A603B681B68B3F5005F3ED0B3F526
:1027B400005F00F28780B3F5805F00F08680B3F598
:1027C400805F7FD8702B1AD0702B7BD8602B50D0B1
:1027D400602B77D8502B3CD0502B73D8402B58D03B
:1027E400402B6FD8302B64D0302B6BD8202B60D08B
:1027F400202B67D8002B5CD0102B5AD062E07B686A
:1028040018683B6899683B685A683B68DB6800F065
:1028140040FB7B681B689B68BB60BB6843F0770325
:10282400BB607B681B68BA689A604FE07B68186875
:102834003B6899683B685A683B68DB6800F029FB91
:102844007B681B689A687B681B6842F480429A60C4
:102854003CE07B6818683B6859683B68DB681A464B
:1028640000F0A0FA7B681B685021184600F0F7FAC4
:102874002CE07B6818683B6859683B68DB681A463B
:1028840000F0BEFA7B681B686021184600F0E7FA86
:102894001CE07B6818683B6859683B68DB681A462B
:1028A40000F080FA7B681B684021184600F0D7FAD4
:1028B4000CE07B681A683B681B681946104600F0F8
:1028C400CEFA03E00123FB7300E000BF7B68012222
:1028D40083F83D207B68002283F83C20FB7B18466C
:1028E4001037BD4680BD80B483B000AF786000BFB0
:1028F4000C37BD4680BC704780B483B000AF7860AD
:1029040000BF0C37BD4680BC704780B483B000AFB5
:10291400786000BF0C37BD4680BC704780B483B07C
:1029240000AF786000BF0C37BD4680BC704780B4F0
:1029340083B000AF786000BF0C37BD4680BC7047E1
:1029440080B485B000AF786039607B681B68FB6039
:102954007B68394A934213D07B68384A93420FD03C
:102964007B68B3F1804F0BD07B68354A934207D024
:102974007B68344A934203D07B68334A934208D13C
:10298400FB6823F07003FB603B685B68FA681343E1
:10299400FB607B68284A934213D07B68274A9342A2
:1029A4000FD07B68B3F1804F0BD07B68244A9342ED
:1029B40007D07B68234A934203D07B68224A934220
:1029C40008D1FB6823F44073FB603B68DB68FA685A
:1029D4001343FB60FB6823F080023B685B6913438D
:1029E400FB607B68FA681A603B689A687B68DA6205
:1029F4003B681A687B689A627B680F4A934203D0EB
:102A04007B680E4A934203D13B681A697B681A6358
:102A14007B6801225A617B681B6903F00103002B68
:102A240005D07B681B6923F001027B681A6100BF33
:102A34001437BD4680BC7047002C0140003401406F
:102A44000004004000080040000C004080B487B03F
:102A540000AF786039607B681B6A7B617B681B6AA6
:102A640023F001027B681A627B685B683B617B68C8
:102A74009B69FB60FB6823F07003FB60FB6823F039
:102A84000303FB603B681B68FA681343FB607B69C4
:102A940023F002037B613B689B687A6913437B6183
:102AA4007B68204A934203D07B681F4A93420CD12F
:102AB4007B6923F008037B613B68DB687A69134315
:102AC4007B617B6923F004037B617B68154A934235
:102AD40003D07B68144A934211D13B6923F4807379
:102AE4003B613B6923F400733B613B685B693A6972
:102AF40013433B613B689B693A6913433B617B68C1
:102B04003A695A607B68FA689A613B685A687B68DC
:102B14005A637B687A691A6200BF1C37BD4680BC61
:102B2400704700BF002C01400034014080B487B0DE
:102B340000AF786039607B681B6A7B617B681B6AC5
:102B440023F010027B681A627B685B683B617B68D8
:102B54009B69FB60FB6823F4E043FB60FB6823F4A0
:102B64004073FB603B681B681B02FA681343FB60FD
:102B74007B6923F020037B613B689B681B017A69B6
:102B840013437B617B68214A934203D07B68204ACC
:102B940093420DD17B6923F080037B613B68DB6842
:102BA4001B017A6913437B617B6923F040037B61DA
:102BB4007B68164A934203D07B68154A934213D12B
:102BC4003B6923F480633B613B6923F400633B610D
:102BD4003B685B699B003A6913433B613B689B69B3
:102BE4009B003A6913433B617B683A695A607B688E
:102BF400FA689A613B685A687B689A637B687A6969
:102C04001A6200BF1C37BD4680BC7047002C0140CF
:102C14000034014080B487B000AF786039607B68CD
:102C24001B6A7B617B681B6A23F480727B681A626F
:102C34007B685B683B617B68DB69FB60FB6823F056
:102C44007003FB60FB6823F00303FB603B681B68B5
:102C5400FA681343FB607B6923F400737B613B6870
:102C64009B681B027A6913437B617B68214A934208
:102C740003D07B68204A93420DD17B6923F400631F
:102C84007B613B68DB681B027A6913437B617B6968
:102C940023F480637B617B68164A934203D07B688C
:102CA400154A934213D13B6923F480533B613B693A
:102CB40023F400533B613B685B691B013A6913438E
:102CC4003B613B689B691B013A6913433B617B6829
:102CD4003A695A607B68FA68DA613B685A687B68CB
:102CE400DA637B687A691A6200BF1C37BD4680BC10
:102CF400704700BF002C01400034014080B487B00D
:102D040000AF786039607B681B6A3B617B681B6A33
:102D140023F480527B681A627B685B687B617B6802
:102D2400DB69FB60FB6823F4E043FB60FB6823F48E
:102D34004073FB603B681B681B02FA681343FB602B
:102D44003B6923F400533B613B689B681B033A696E
:102D540013433B617B68114A934203D07B68104A5A
:102D6400934209D17B6923F480437B613B685B69AF
:102D74009B017A6913437B617B687A695A607B683B
:102D8400FA68DA613B685A687B681A647B683A6956
:102D94001A6200BF1C37BD4680BC7047002C01403E
:102DA4000034014080B487B000AFF860B9607A6045
:102DB400FB681B6A7B61FB681B6A23F00102FB68EA
:102DC4001A62FB689B693B613B6923F0F0033B613A
:102DD4007B681B013A6913433B617B6923F00A0357
:102DE4007B617A69BB6813437B61FB683A699A61CA
:102DF400FB687A691A6200BF1C37BD4680BC704705
:102E040080B487B000AFF860B9607A60FB681B6A71
:102E14007B61FB681B6A23F01002FB681A62FB6883
:102E24009B693B613B6923F470433B617B681B03F3
:102E34003A6913433B617B6923F0A0037B61BB6860
:102E44001B017A6913437B61FB683A699A61FB68E9
:102E54007A691A6200BF1C37BD4680BC704780B4D3
:102E640085B000AF786039607B689B68FB60FB6865
:102E740023F07003FB603A68FB68134343F00703D5
:102E8400FB607B68FA689A6000BF1437BD4680BC5B
:102E9400704780B487B000AFF860B9607A603B6077
:102EA400FB689B687B617B6923F47F437B613B68A0
:102EB4001A027B681A43BB6813437A6913437B6124
:102EC400FB687A699A6000BF1C37BD4680BC7047B6
:102ED40080B487B000AFF860B9607A60BB6803F073
:102EE4001F03012202FA03F37B61FB681A6A7B6900
:102EF400DB431A40FB681A62FB681A6ABB6803F07A
:102F04001F03796801FA03F31A43FB681A6200BFCE
:102F14001C37BD4680BC704780B485B000AF786074
:102F240039607B6893F83C30012B01D1022350E0D7
:102F34007B68012283F83C207B68022283F83D20D1
:102F44007B681B685B68FB607B681B689B68BB6075
:102F5400FB6823F07003FB603B681B68FA6813434B
:102F6400FB607B681B68FA685A607B681B681B4AB5
:102F7400934218D07B681B68194A934213D07B682C
:102F84001B68B3F1804F0ED07B681B68154A9342CF
:102F940009D07B681B68144A934204D07B681B6881
:102FA400124A93420CD1BB6823F08003BB603B6898
:102FB4005B68BA681343BB607B681B68BA689A6035
:102FC4007B68012283F83D207B68002283F83C2043
:102FD400002318461437BD4680BC7047002C0140BE
:102FE400003401400004004000080040000C004090
:102FF40080B483B000AF786000BF0C37BD4680BC9E
:10300400704780B483B000AF786000BF0C37BD4612
:1030140080BC704703460244934200D1704703F8D2
:10302400011BF9E770B500260C4D0D4C641BA41070
:10303400A64209D100F01AF800260A4D0A4C641B76
:10304400A410A64205D170BD55F8043B984701363B
:10305400EEE755F8043B98470136F2E7AC30000838
:10306400AC300008AC300008B0300008F8B500BF40
:10307400F8BC08BC9E467047F8B500BFF8BC08BC55
:043084009E467047AD
:103088000000000000000000010203040607080910
:1030980002030405060708090A0B0C0D0E0F101091
:0430A8000102000021
:0430AC00090200080D
:0430B000E50100082E
:0C30B40000127A00100000000100000073
:0400000508000FC11F
:00000001FF
