:020000040800F2
:1000000000C0002055610008F1570008F9570008AA
:1000100001580008095800081158000800000000A5
:100020000000000000000000000000001958000857
:100030002558000800000000315800083D5800080D
:100040009D6100089D6100089D6100089D61000898
:100050009D6100089D6100089D61000849580008E5
:100060009D6100089D6100089D6100089D61000878
:100070009D6100089D6100089D6100089D61000868
:100080009D6100089D6100089D6100089D61000858
:100090009D6100089D6100089D6100089D61000848
:1000A0009D6100089D6100089D6100089D61000838
:1000B0009D6100089D610008595800089D61000875
:1000C0009D6100089D6100089D6100089D61000818
:1000D0009D6100089D6100086D5800089D61000841
:1000E0009D6100089D6100089D6100089D610008F8
:1000F0009D6100089D6100089D6100089D610008E8
:100100009D6100089D6100089D6100089D610008D7
:100110009D6100089D6100089D6100089D610008C7
:100120009D6100089D6100089D6100089D610008B7
:1001300000000000000000000000000000000000BF
:1001400000000000000000000000000000000000AF
:10015000000000000000000000000000000000009F
:10016000000000000000000000000000000000008F
:10017000000000000000000000000000000000007F
:10018000000000000000000000000000000000006F
:10019000000000000000000000000000000000005F
:1001A000000000000000000000000000000000004F
:1001B000000000000000000000000000000000003F
:1001C000000000000000000000000000000000002F
:1001D000000000000000000000000000000000001F
:0401E0005FF8E0F1F3
:1001E80010B5054C237833B9044B13B10448AFF369
:1001F80000800123237010BD1801002000000000BA
:10020800B8AC000808B5034B1BB103490348AFF36A
:10021800008008BD000000001C010020B8AC0008E8
:1002280081F0004102E000BF83F0004330B54FEA9F
:1002380041044FEA430594EA050F08BF90EA020F0C
:100248001FBF54EA000C55EA020C7FEA645C7FEA9F
:10025800655C00F0E2804FEA5454D4EB5555B8BFC2
:100268006D420CDD2C4480EA020281EA030382EA33
:10027800000083EA010180EA020281EA0303362DC5
:1002880088BF30BD11F0004F4FEA01314FF4801C98
:100298004CEA113102D0404261EB410113F0004FAA
:1002A8004FEA03334CEA133302D0524263EB430361
:1002B80094EA050F00F0A780A4F10104D5F1200EFF
:1002C8000DDB02FA0EFC22FA05F2801841F100015A
:1002D80003FA0EF2801843FA05F359410EE0A5F12E
:1002E80020050EF1200E012A03FA0EFC28BF4CF05F
:1002F800020C43FA05F3C01851EBE37101F0004515
:1003080007D54FF0000EDCF1000C7EEB00006EEB21
:100318000101B1F5801F1BD3B1F5001F0CD34908AB
:100328005FEA30004FEA3C0C04F101044FEA445202
:1003380012F5800F80F09A80BCF1004F08BF5FEA89
:10034800500C50F1000041EB045141EA050130BD69
:100358005FEA4C0C404141EB0101013C28BFB1F57B
:10036800801FE9D291F0000F04BF01460020B1FAC6
:1003780081F308BF2033A3F10B03B3F120020CDA99
:100388000C3208DD02F1140CC2F10C0201FA0CF077
:1003980021FA02F10CE002F11402D8BFC2F1200CDC
:1003A80001FA02F120FA0CFCDCBF41EA0C01904092
:1003B800E41AA2BF01EB0451294330BD6FEA0404DB
:1003C8001F3C1CDA0C340EDC04F11404C4F12002C6
:1003D80020FA04F001FA02F340EA030021FA04F3D8
:1003E80045EA030130BDC4F10C04C4F1200220FA2F
:1003F80002F001FA04F340EA0300294630BD21FA6D
:1004080004F0294630BD94F0000F83F4801306BF32
:1004180081F480110134013D4EE77FEA645C18BF26
:100428007FEA655C29D094EA050F08BF90EA020FBD
:1004380005D054EA000C04BF1946104630BD91EAB5
:10044800030F1EBF0021002030BD5FEA545C05D1B8
:100458004000494128BF41F0004130BD14F58004F7
:100468003CBF01F5801130BD01F0004545F0FE416B
:1004780041F470014FF0000030BD7FEA645C1ABFA0
:10048800194610467FEA655C1CBF0B46024650EAD7
:10049800013406BF52EA033591EA030F41F4002103
:1004A80030BD00BF90F0000F04BF0021704730B589
:1004B8004FF4806404F132044FF000054FF000015E
:1004C80050E700BF90F0000F04BF0021704730B51F
:1004D8004FF4806404F1320410F0004548BF4042F4
:1004E8004FF000013EE700BF42004FEAE2014FEA49
:1004F80031014FEA02701FBF12F07F4393F07F4F24
:1005080081F06051704732F07F4208BF704793F026
:100518007F4F04BF41F40021704730B54FF4607439
:1005280001F0004521F000411CE700BF50EA01023C
:1005380008BF704730B54FF000050AE050EA0102E5
:1005480008BF704730B511F0004502D5404261EB55
:1005580041014FF4806404F132045FEA915C3FF496
:10056800D8AE4FF003025FEADC0C18BF03325FEA33
:10057800DC0C18BF033202EBDC02C2F1200300FAE4
:1005880003FC20FA02F001FA03FE40EA0E0021FA09
:1005980002F11444BDE600BF70B54FF0FF0C4CF4F7
:1005A800E06C1CEA11541DBF1CEA135594EA0C0FA9
:1005B80095EA0C0F00F0DEF82C4481EA030621EAE4
:1005C8004C5123EA4C5350EA013518BF52EA03351F
:1005D80041F4801143F4801338D0A0FB02CE4FF0D1
:1005E8000005E1FB02E506F00042E0FB03E54FF001
:1005F8000006E1FB03569CF0000F18BF4EF0010EF9
:10060800A4F1FF04B6F5007F64F5407404D25FEAF4
:100618004E0E6D4146EB060642EAC62141EA5551A7
:100628004FEAC52040EA5E504FEACE2EB4F1FD0CE9
:1006380088BFBCF5E06F1ED8BEF1004F08BF5FEA67
:10064800500E50F1000041EB045170BD06F0004619
:1006580046EA010140EA020081EA0301B4EB5C04C6
:10066800C2BFD4EB0C0541EA045170BD41F48011BE
:100678004FF0000E013C00F3AB8014F1360FDEBFE3
:10068800002001F0004170BDC4F10004203C35DABF
:100698000C341BDC04F11404C4F1200500FA05F342
:1006A80020FA04F001FA05F240EA020001F00042E3
:1006B80021F0004110EBD37021FA04F642EB060159
:1006C8005EEA430E08BF20EAD37070BDC4F10C0483
:1006D800C4F1200500FA04F320FA05F001FA04F247
:1006E80040EA020001F0004110EBD37041F1000133
:1006F8005EEA430E08BF20EAD37070BDC4F120053E
:1007080000FA05F24EEA020E20FA04F301FA05F2A5
:1007180043EA020321FA04F001F0004121FA04F24D
:1007280020EA020000EBD3705EEA430E08BF20EA1D
:10073800D37070BD94F0000F0FD101F00046400057
:1007480041EB010111F4801F08BF013CF7D041EAD9
:10075800060195F0000F18BF704703F000465200DD
:1007680043EB030313F4801F08BF013DF7D043EAAE
:100778000603704794EA0C0F0CEA135518BF95EA64
:100788000C0F0CD050EA410618BF52EA4306D1D1EB
:1007980081EA030101F000414FF0000070BD50EA0A
:1007A800410606BF1046194652EA430619D094EA94
:1007B8000C0F02D150EA013613D195EA0C0F05D17E
:1007C80052EA03361CBF104619460AD181EA0301D2
:1007D80001F0004141F0FE4141F470014FF000008A
:1007E80070BD41F0FE4141F4780170BD70B54FF025
:1007F800FF0C4CF4E06C1CEA11541DBF1CEA1355A5
:1008080094EA0C0F95EA0C0F00F0A7F8A4EB050486
:1008180081EA030E52EA03354FEA013100F088807D
:100828004FEA03334FF0805545EA131343EA126346
:100838004FEA022245EA111545EA10654FEA0026FB
:100848000EF000419D4208BF964244F1FD0404F5B4
:10085800407402D25B084FEA3202B61A65EB030510
:100868005B084FEA32024FF480104FF4002CB6EBCD
:10087800020E75EB030E22BFB61A754640EA0C004D
:100888005B084FEA3202B6EB020E75EB030E22BF8D
:10089800B61A754640EA5C005B084FEA3202B6EBCE
:1008A800020E75EB030E22BFB61A754640EA9C008D
:1008B8005B084FEA3202B6EB020E75EB030E22BF5D
:1008C800B61A754640EADC0055EA060E18D04FEA1B
:1008D800051545EA16754FEA06164FEAC30343EABB
:1008E80052734FEAC2025FEA1C1CC0D111F4801F88
:1008F8000BD141EA00014FF000004FF0004CB6E781
:1009080011F4801F04BF01430020B4F1FD0C88BF1F
:10091800BCF5E06F3FF6AFAEB5EB030C04BFB6EB2A
:10092800020C5FEA500C50F1000041EB045170BD1D
:100938000EF0004E4EEA113114EB5C04C2BFD4EB4A
:100948000C0541EA045170BD41F480114FF0000ECE
:10095800013C90E645EA060E8DE60CEA135594EA4A
:100968000C0F08BF95EA0C0F3FF43BAF94EA0C0F4D
:100978000AD150EA01347FF434AF95EA0C0F7FF4C2
:1009880025AF104619462CE795EA0C0F06D152EA16
:1009980003353FF4FDAE1046194622E750EA4106FA
:1009A80018BF52EA43067FF4C5AE50EA41047FF40B
:1009B8000DAF52EA43057FF4EBAE12E74A0011D2BD
:1009C80012F5001211D20DD56FF47873B3EB6252A1
:1009D8000ED44FEAC12343F0004343EA505323FAAD
:1009E80002F070474FF00000704750EA013002D122
:1009F8004FF0FF3070474FF00000704780F0004024
:100A080002E000BF81F0004142001FBF5FEA4103DE
:100A180092EA030F7FEA226C7FEA236C6AD04FEADE
:100A28001262D2EB1363C1BFD21841404840414023
:100A3800B8BF5B42192B88BF704710F0004F40F4D5
:100A4800000020F07F4018BF404211F0004F41F4F1
:100A5800000121F07F4118BF494292EA030F3FD0BD
:100A6800A2F1010241FA03FC10EB0C00C3F12003D0
:100A780001FA03F100F0004302D5494260EB40005F
:100A8800B0F5000F13D3B0F1807F06D340084FEACA
:100A9800310102F10102FE2A51D2B1F1004F40EBBF
:100AA800C25008BF20F0010040EA03007047490027
:100AB80040EB0000013A28BFB0F5000FEDD2B0FAC4
:100AC80080FCACF1080CB2EB0C0200FA0CF0AABFE7
:100AD80000EBC25052421843BCBFD0401843704785
:100AE80092F0000F81F4000106BF80F4000001328B
:100AF800013BB5E74FEA41037FEA226C18BF7FEA62
:100B0800236C21D092EA030F04D092F0000F08BFA3
:100B18000846704790EA010F1CBF0020704712F08A
:100B28007F4F04D1400028BF40F00040704712F1C9
:100B380000723CBF00F50000704700F0004343F02E
:100B4800FE4040F4000070477FEA226216BF084664
:100B58007FEA23630146420206BF5FEA412390EA27
:100B6800010F40F4800070474FF0000304E000BF1D
:100B780010F0004348BF40425FEA000C08BF7047CE
:100B880043F0964301464FF000001CE050EA010292
:100B980008BF70474FF000030AE000BF50EA0102A7
:100BA80008BF704711F0004302D5404261EB410194
:100BB8005FEA010C02BF84460146002043F0B643B9
:100BC80008BFA3F18053A3F50003BCFA8CF2083ADE
:100BD800A3EBC25310DB01FA02FC634400FA02FCE7
:100BE800C2F12002BCF1004F20FA02F243EB0200EE
:100BF80008BF20F00100704702F1200201FA02FC50
:100C0800C2F1200250EA4C0021FA02F243EB020042
:100C180008BF20EADC7070474FF0FF0C1CEAD05286
:100C28001EBF1CEAD15392EA0C0F93EA0C0F6FD047
:100C38001A4480EA010C400218BF5FEA41211ED025
:100C48004FF0006343EA501043EA5111A0FB013111
:100C58000CF00040B1F5000F3EBF490041EAD371E6
:100C68005B0040EA010062F17F02FD2A1DD8B3F162
:100C7800004F40EBC25008BF20F00100704790F0D1
:100C8800000F0CF0004C08BF49024CEA502040EA23
:100C980051207F3AC2BFD2F1FF0340EAC2507047E9
:100CA80040F400004FF00003013A5DDC12F1190F27
:100CB800DCBF00F000407047C2F10002410021FA99
:100CC80002F1C2F1200200FA02FC5FEA310040F1B1
:100CD800000053EA4C0308BF20EADC70704792F02A
:100CE800000F00F0004C02BF400010F4000F013A62
:100CF800F9D040EA0C0093F0000F01F0004C02BF5D
:100D0800490011F4000F013BF9D041EA0C018FE7CB
:100D18000CEAD15392EA0C0F18BF93EA0C0F0AD0D1
:100D280030F0004C18BF31F0004CD8D180EA0100F7
:100D380000F00040704790F0000F17BF90F0004F90
:100D4800084691F0000F91F0004F14D092EA0C0F72
:100D580001D142020FD193EA0C0F03D14B0218BF05
:100D6800084608D180EA010000F0004040F0FE404B
:100D780040F40000704740F0FE4040F440007047E7
:100D88004FF0FF0C1CEAD0521EBF1CEAD15392EA66
:100D98000C0F93EA0C0F69D0A2EB030280EA010C56
:100DA80049024FEA402037D04FF0805343EA1111EF
:100DB80043EA10130CF000408B4238BF5B0042F14D
:100DC8007D024FF4000C8B4224BF5B1A40EA0C00F2
:100DD800B3EB510F24BFA3EB510340EA5C00B3EB24
:100DE800910F24BFA3EB910340EA9C00B3EBD10F12
:100DF80024BFA3EBD10340EADC001B0118BF5FEA64
:100E08001C1CE0D1FD2A3FF650AF8B4240EBC2508C
:100E180008BF20F0010070470CF0004C4CEA50204D
:100E28007F32C2BFD2F1FF0340EAC250704740F49C
:100E380000004FF00003013A37E792F0000F00F08E
:100E4800004C02BF400010F4000F013AF9D040EA0C
:100E58000C0093F0000F01F0004C02BF490011F4A0
:100E6800000F013BF9D041EA0C0195E70CEAD15398
:100E780092EA0C0F08D142027FF47DAF93EA0C0F7F
:100E88007FF470AF084676E793EA0C0F04D14B0263
:100E98003FF44CAF08466EE730F0004C18BF31F015
:100EA800004CCAD130F000427FF45CAF31F000430F
:100EB8007FF43CAF5FE700BF4FF0FF3C06E000BFA8
:100EC8004FF0010C02E000BF4FF0010C4DF804CDCB
:100ED8004FEA40024FEA41037FEA226C18BF7FEADB
:100EE800236C11D001B052EA530C18BF90EA010FDD
:100EF80058BFB2EB030088BFC81738BF6FEAE1706C
:100F080018BF40F0010070477FEA226C02D15FEA07
:100F1800402C05D17FEA236CE4D15FEA412CE1D073
:100F28005DF8040B704700BF844608466146FFE73A
:100F38000FB5FFF7C9FF002848BF10F1000F0FBD1C
:100F48004DF808EDFFF7F4FF0CBF012000205DF815
:100F580008FB00BF4DF808EDFFF7EAFF34BF01209A
:100F680000205DF808FB00BF4DF808EDFFF7E0FF33
:100F780094BF012000205DF808FB00BF4DF808ED84
:100F8800FFF7D2FF94BF012000205DF808FB00BFE7
:100F98004DF808EDFFF7C8FF34BF012000205DF8C9
:100FA80008FB00BF4FEA4002B2F1FE4F0FD34FF0EB
:100FB8009E03B3EB12620DD94FEA002343F00043BE
:100FC80010F0004F23FA02F018BF404270474FF06C
:100FD8000000704712F1610F01D1420205D110F0F3
:100FE800004008BF6FF0004070474FF000007047A6
:100FF80042000ED2B2F1FE4F0BD34FF09E03B3EB7B
:10100800126209D44FEA002343F0004323FA02F0A6
:1010180070474FF00000704712F1610F01D1420292
:1010280002D14FF0FF3070474FF00000704700BF0B
:101038007BB972B90029BEBF00204FF0004106E01D
:1010480008BF00281CBF6FF000414FF0FF3000F0D0
:101058009BB9ADF1080C6DE904CE002909DB002B22
:101068001ADB00F035F8DDF804E0DDE9022304B00E
:101078007047404261EB4101002B1BDB00F028F870
:10108800DDF804E0DDE9022304B0404261EB4101F0
:10109800524263EB43037047524263EB430300F051
:1010A80017F8DDF804E0DDE9022304B0404261EB03
:1010B80041017047524263EB430300F009F8DDF841
:1010C80004E0DDE9022304B0524263EB43037047B6
:1010D8002DE9F047089D0C46002B4ED194468C45CF
:1010E8008646B2FA82F262D94AB1C2F1200391402F
:1010F80020FA03F30CFA02FC194300FA02FE4FEA45
:101108001C47B1FBF7F407FB14111FFA8CF64FEAE2
:101118001E4343EA014304FB06F199420AD91CEB3A
:10112800030304F1FF3080F01081994240F20D81F1
:10113800023C6344591AB1FBF7F007FB101100FB9E
:1011480006F61FFA8EF343EA01439E420AD91CEBC6
:10115800030300F1FF3180F0FA809E4240F2F780ED
:101168006344023800219B1B40EA04401DB1D34070
:101178000022C5E90032BDE8F0878B4205D90DB1E0
:10118800C5E9000100210846F5E7B3FA83F1002913
:1011980046D1A34202D39042C0F0EE80861A64EB97
:1011A80003030120002DE6D0C5E90063E3E7002A28
:1011B80040F08F80A1EB0C0401214FEA1C481FFA74
:1011C8008CF7B4FBF8F608FB164407FB06F04FEA69
:1011D8001E4343EA0443984208D91CEB030306F173
:1011E800FF3402D2984200F2CB8026461C1AB4FB88
:1011F800F8F008FB104400FB07F71FFA8EF343EAE8
:1012080004439F4208D91CEB030300F1FF3402D2C8
:101218009F4200F2AE802046DB1B40EA0640A5E76D
:10122800C1F120078B4022FA07FC4CEA030C24FA90
:1012380007F64FEA1C49B6FBF9F81FFA8CFE09FBC2
:10124800186620FA07F38C4000FA01FA08FB0EF042
:101258001C43230C43EA0643984202FA01F20AD9D6
:101268001CEB030308F1FF3680F0818098427ED999
:10127800A8F1020863441E1AB6FBF9F309FB1366CA
:1012880003FB0EFEA4B244EA0644A64508D91CEBAB
:10129800040403F1FF3066D2A64564D9023B6444D6
:1012A80043EA0840A0FB0283A4EB0E049C42C64616
:1012B8001E4650D34DD055B1BAEB0E0364EB06046D
:1012C80004FA07F7CB401F43CC40C5E9007400215E
:1012D80051E70CFA02FCC2F12003D9404FEA1C483E
:1012E80020FA03F300FA02FEB1FBF8F008FB101134
:1012F80094401C431FFA8CF7230C43EA014300FB7C
:1013080007F1994208D91CEB030300F1FF362CD2F0
:1013180099422AD9023863445B1AB3FBF8F108FBF7
:101328001133A4B244EA034401FB07F3A34208D9EA
:101338001CEB040401F1FF3613D2A34211D9023980
:101348006444E41A41EA00413BE70446F2E60846F1
:1013580008E7C245AFD2B8EB020E63EB0C060138C2
:10136800A9E73146EDE703469AE73046D4E7B046A9
:1013780081E7634402384FE706462346084611E7EB
:10138800023E634432E700BF704700BF80B485B0B7
:1013980000AF78607B6893F90030002B02DD0023F2
:1013A800FB812DE07B6893F90030002B02DA0423DF
:1013B800FB8125E07B68013393F90030002B02DDC7
:1013C8000123FB811CE07B68013393F90030002B7B
:1013D80002DA0523FB8113E07B68023393F90030BE
:1013E800002B02DD0223FB810AE07B68023393F9BC
:1013F8000030002B02DA0623FB8101E00723FB8182
:10140800FB8918461437BD4680BC704780B584B048
:1014180000AF78607868FFF7B9FF0346FB817B6807
:1014280003331846FFF7B2FF0346DB001AB2B7F9D9
:101438000E3013431BB2FB817B6806331846FFF757
:10144800A5FF03469B011AB2B7F90E3013431BB22E
:10145800FB81FB8918461037BD4680BD80B58AB030
:1014680000AF07F10C0207F118031146184602F005
:1014780071FC78627B6A032B53D107F10803184685
:1014880001F0C0FBBB691846FFF772FB0246BB6858
:1014980019461046FFF7C0FB03461846FFF782FDC2
:1014A8000346BB61FB691846FFF762FB0246BB684F
:1014B80019461046FFF7B0FB03461846FFF772FDC2
:1014C8000346FB613B6A1846FFF752FB0246BB68BE
:1014D80019461046FFF7A0FB03461846FFF762FDC2
:1014E80003463B6207F11803184602F0BDFFBB1D17
:1014F800184601F0BFFBFB68FA8802FB03F3FB60A8
:101508003B69FA8802FB03F33B617B69FA8802FBBB
:1015180003F37B6107F10C03184603F0AFF80023CF
:1015280001E04FF0FF3318462837BD4680BD000064
:1015380080B582B000AF3B46184600F0D5FD786014
:101548007B68002B02D04FF0FF335DE0782001F07C
:1015580031FC78607B68002B02D06FF0010353E008
:10156800782001F0D5FB78607B68002B02D06FF003
:10157800020349E0642001F0D3FA78607B68002B0D
:1015880002D06FF003033FE002F072FE78607B68E0
:10159800002B02D06FF0040336E01D48FFF736FF3A
:1015A8000346184602F074FE78607B68002B02D070
:1015B8006FF0050328E040F2731003F0E3FB786056
:1015C8007B68002B02D06FF006031DE0642003F057
:1015D8005BF978607B68002B02D06FF0070313E09B
:1015E800FFF73CFF78607B68002B02D06FF00803A0
:1015F8000AE0012002F0D6FD78607B68002B02D05B
:101608006FF0090300E0002318460837BD4680BD87
:101618000000002080B483B000AF0346FB71FB7963
:10162800042B02D8034AFB79137000BF0C37BD4660
:1016380080BC70470900002080B400AF024B1B78C3
:101648001846BD4680BC70470900002080B58CB0A4
:1016580000AF0346FB71AA233B7304237B73022369
:10166800BB730123FB73FB793B7407F10C0318462A
:1016780000F0C1F8034687F82F3007F10C0318462D
:1016880000F0FAF800BF3037BD4680BD80B58AB09B
:1016980000AFAA233B7104237B710123BB71022392
:1016A800FB713B1D184600F0A6F8034687F8273063
:1016B8003B1D184600F0E0F800BF2837BD4680BD46
:1016C80080B582B000AF7860786800F0BEF8034655
:1016D800002B46D17B685B78013B042B43D801A2E1
:1016E80052F823F0011700086F17000815170008B3
:1016F8004F17000835170008204B1B78012B34D1F1
:101708007B68DB78184600F0EFF82EE01B4B1B785F
:10171800022B2CD17B68D8787B68191D7B689B7855
:10172800013BDBB21A4600F06FF920E07B68DB78FA
:101738001846FFF76FFF00F091FA7B68DB781846D0
:10174800FFF784FF16E00D4B1B78032B11D17B6844
:10175800DB781A467B681B791946104600F010F8AA
:1017680007E000BF06E000BF04E000BF02E000BFE2
:1017780000E000BF0837BD4680BD00BF090000205B
:1017880080B582B000AF03460A46FB711346BB71B1
:10179800BA79FB791146184603F0C8FE00BF08372E
:1017A800BD4680BD80B58CB000AF7860AA233B727F
:1017B80002237B720423BB723B1DFB62FB6A1B780E
:1017C800FB72FB6A5B783B73FB6A9B787B73FB6AF3
:1017D800DB78BB7307F10803184600F00CF80346E2
:1017E80087F82B3007F10803184600F045F800BFCA
:1017F8003037BD4680BD80B485B000AF7860002327
:10180800FB737B685A78FB7B1344FB737B689A787D
:10181800FB7B1344FB730023BB600AE07A68BB6858
:10182800134403331A78FB7B1344FB73BB680133FF
:10183800BB607B689B781A46BB689342EEDBFB7BF8
:1018480018461437BD4680BC704780B584B000AFD9
:1018580078607868FFF7CFFF0346FB737B6893F8DF
:101868002330FA7B9A4201D1002301E04FF0FF3385
:1018780018461037BD4680BD80B58CB000AF786083
:101888007B689B78043387F82F307B681B783B7222
:101898007B685B787B727B689B78BB727B68D91CA2
:1018A8007B689B781A4607F108030333184608F04B
:1018B800DEFC7B689B7803337A6892F82320303308
:1018C8003B4403F8282C97F82F309AB207F1080107
:1018D800C823044807F07AFC034618463037BD464B
:1018E80080BD00BFBC03002080B58CB000AF0346AC
:1018F800FB71AA233B7301237B730123BB73FB7921
:10190800FB7307F10C031846FFF775FF034687F8CA
:101918002F30FB79013B062B65D801A252F823F042
:10192800451900085D19000875190008A51900086F
:101938008D190008BD190008D519000801220121D8
:101948002E4805F03AFB2E4804F0DCFC322004F067
:1019580015FF49E0012204212A4805F02EFB2848FA
:1019680004F004FD322004F009FF3DE001220121CA
:10197800224805F022FB224804F02CFD322004F016
:10198800FDFE31E0012201211C4805F016FB1C4830
:1019980004F088FD322004F0F1FE25E00122012147
:1019A800164805F00AFB164804F048FD322004F0FA
:1019B800E5FE19E001220421124805F0FEFA10485C
:1019C80004F0A6FD322004F0D9FE0DE0002201212A
:1019D8000A4805F0F2FA002204210A4805F0EDFA57
:1019E80004F05EFC00E000BF07F10C031846FFF7A7
:1019F80043FF00BF3037BD4680BD00BF000C01402B
:101A08002C0300200014014080B596B000AF0346B7
:101A18003960FB711346BB71AA233B7303237B73A5
:101A2800BB790133DBB2BB73FB79FB73BA7907F17E
:101A38000C0304333968184608F019FC07F10C0345
:101A48001846FFF7D8FE034687F82F30FB79022B9C
:101A580040F0DA803B685B7887F83F30BB79013B20
:101A68003A6813441B7887F83E30BB795B0887F8DF
:101A78003D3097F83D30012B02D8FFF707FEC4E050
:101A8800FFF704FE01237B6597F83F2097F83E3067
:101A98009A4201D900237B6500233B65ACE03B6D8E
:101AA8005B001A463B6813441B7887F83C303B6D53
:101AB8005B0001333A6813441B7887F83B303B6D71
:101AC80001335B001A463B6813441B7887F83A30A9
:101AD8003B6D01335B0001333A6813441B7887F888
:101AE800393097F83A2097F83C30D31A7B6397F847
:101AF800392097F83B30D31A3B633B6B002B1ADD38
:101B08000023FB6412E07B6D002B03D0404804F0F7
:101B1800F9FB02E03E4804F029FC4FF42F7004F072
:101B28002DFE04F0BDFBFB6C0133FB64FA6C3B6BD0
:101B38009A42E8DB1DE03B6B002B1ADA0023BB64FA
:101B480012E07B6D002B03D0314804F00FFC02E05B
:101B58002F4804F0D7FB4FF42F7004F00FFE04F069
:101B68009FFBBB6C0133BB643B6B5B42BA6C9A4214
:101B7800E7DB7B6B002B1ADD00237B6412E07B6DB7
:101B8800002B03D0224804F059FC02E0204804F05E
:101B980021FC4FF42F7004F0F1FD04F081FB7B6C05
:101BA80001337B647A6C7B6B9A42E8DB1DE07B6BCC
:101BB800002B1ADA00233B6412E07B6D002B03D064
:101BC800134804F007FC02E0114804F037FC4FF416
:101BD8002F7004F0D3FD04F063FB3B6C01333B64CE
:101BE8007B6B5B423A6C9A42E7DB4FF47A7004F005
:101BF800C5FD3B6D01333B6597F83D30013B3A6DC0
:101C08009A42FFF64CAF00E000BF5837BD4680BD92
:101C18002C03002080B58CB000AF03460A46FB7148
:101C28001346BB71AA233B7306237B730223BB7342
:101C3800FB79FB73BB793B7407F10C031846FFF77C
:101C4800DAFD034687F82F3007F10C031846FFF733
:101C580013FE00BF3037BD4680BD000080B500AF21
:101C680000220121054805F0A8F9002204210448B2
:101C780005F0A3F904F014FB00BF80BD000C01407F
:101C88000014014080B588B000AF07F110030022AE
:101C98001A605A609A60DA60474B9B69464A43F07B
:101CA80010039361444B9B6903F01003FB60FB68CE
:101CB800414B9B69404A43F0200393613E4B9B692B
:101CC80003F02003BB60BB683B4B9B693A4A43F077
:101CD80004039361384B9B6903F004037B607B68C2
:101CE800354B9B69344A43F008039361324B9B6937
:101CF80003F008033B603B68002201212F4805F0F0
:101D08005CF900224FF470412D4805F056F9002285
:101D180004212C4805F051F94FF460533B6100232E
:101D28007B610123BB6107F110031946234804F0C6
:101D380099FF01233B6101237B610223BB610323DC
:101D4800FB6107F1100319461C4804F08BFF0223BE
:101D58003B611D4B7B610023BB6107F110031946F2
:101D6800164804F07FFF4FF470433B6101237B6109
:101D78000023BB610223FB6107F1100319461048D9
:101D880004F070FF04233B6101237B610023BB61E6
:101D98000223FB6107F1100319460A4804F062FFA9
:101DA80000220121072004F0E4FD072004F0FDFDD6
:101DB80000BF2037BD4680BD001002400010014022
:101DC800000C0140001401400000111080B500AF64
:101DD800124B134A1A60114B124A5A600F4B0022D9
:101DE8009A600E4B0022DA600C4B4FF480421A6165
:101DF8000A4B00225A61094B00229A61074B0022C4
:101E0800DA61064B00221A62044805F007F9034616
:101E1800002B01D003F0AEFC00BF80BD34010020D0
:101E280000580040A086010080B588B000AF7860F7
:101E380007F1100300221A605A609A60DA607B6822
:101E48001B68164A934224D1154B9B69144A43F0E8
:101E580008039361124B9B6903F00803FB60FB685E
:101E68004FF440633B6112237B610323FB6107F15D
:101E7800100319460B4804F0F5FE094BDB69084AC4
:101E880043F48003D361064BDB6903F48003BB6032
:101E9800BB6800BF2037BD4680BD00BF005800406A
:101EA80000100240000C014080B500AF4FF4006103
:101EB800534805F06BF80346002B12D14FF400513C
:101EC8004F4805F063F80346002B0AD14FF48051C0
:101ED8004B4805F05BF80346012B02D1494804F052
:101EE80049FB4FF40061464805F050F80346002BC3
:101EF8001DD14FF40051424805F048F80346002B25
:101F080015D14FF480513E4805F040F80346002BA8
:101F18000DD13D4B1B78522B02D13A4804F096FB69
:101F2800394B1B784C2B02D1364804F059FB4FF43F
:101F38000061334805F02AF80346012B0AD14FF413
:101F480000512F4805F022F80346012B02D12D48F5
:101F580004F010FB4FF40061294805F017F8034618
:101F6800012B21D14FF40051254805F00FF8034605
:101F7800002B19D14FF48051214805F007F803468A
:101F8800012B06D1204B4C221A701E4804F0F2FA9D
:101F98000AE04FF480511A4804F0F8FF0346002B7A
:101FA80002D1184804F01CFB4FF40061144804F0F7
:101FB800EDFF0346002B21D14FF40051104804F0E7
:101FC800E5FF0346012B19D14FF480510C4804F06A
:101FD800DDFF0346012B06D10B4B52221A7009482C
:101FE80004F0C8FA0AE04FF48051054804F0CEFF27
:101FF8000346002B02D1034804F028FB00BF80BD34
:10200800001001402C030020BE01002080B588B0DC
:1020180004AF0346FB71324B93F82430002B25D0D4
:10202800FB79002B02D00223FB7301E00023FB7332
:102038002B4B5B681B781946294B1B685B7C1A463F
:102048004FF4807302930123019307F10F03009368
:102058000123244805F026F90346002B02D04FF04F
:10206800FF3339E0FA7B1E4B5A7434E01C4B9B7AE1
:10207800002B02D14FF0FF332EE0FB79002B05D067
:10208800174B5B7C002B01D0002325E0FB79002B4C
:1020980002D00123FB7301E00023FB73104B5B6844
:1020A8001B7819460E4B1B685B7C1A464FF48073ED
:1020B80002930123019307F10F03009301230948B9
:1020C80005F0F0F80346002B02D04FF0FF3303E091
:1020D800FA7B034B5A74002318461037BD4680BD5F
:1020E8000C0000203401002080B588B004AF78606F
:1020F80080233B72904B5B681B7819468E4B1B689C
:102108005B7D1A464FF4807302930123019307F114
:10211800080300930123894805F0C4F80346002BFF
:1021280002D04FF0FF3302E1642004F027FB0023C4
:102138003B72814B5B681B7819467F4B1B685B7D44
:102148001A464FF4807302930123019307F10803A1
:1021580000930123794805F0A5F80346002B02D027
:102168004FF0FF33E3E0744B5B681B781946724B02
:102178001B685B7E1A464FF4807302930623019313
:1021880007F10803009301236C4805F085F903461D
:10219800002B02D04FF0FF33C9E07B7B9B005BB282
:1021A80003F004035AB2FB7A5B005BB203F002034C
:1021B8005BB213435AB27B7A5BB203F001035BB2A2
:1021C80013435BB2FB73FB7B002B10D0FB7B012B13
:1021D80003D1594B0122DA7437E0FB7B022B03D180
:1021E800554B0022DA7430E04FF0FF339FE0524B3A
:1021F8005B681B781946504B1B68DB781A464FF40E
:10220800807302930123019307F1080300930123CC
:102218004A4805F041F90346002B02D04FF0FF333E
:1022280085E03B7A03F00F03FB73FB7B002B02D1A5
:102238004FF0FF337BE0FB7B042B03D13E4B0122A5
:10224800DA7402E03C4B0022DA743B4BFF229A72AC
:10225800394BFF221A72384BFF225A72364BFF2233
:10226800DA72354B4FF6FF72DA81334BFF221A745C
:10227800314BFF229A74304B01221A732E4B0122E4
:1022880083F822202C4B002283F823202A4B00229B
:102298005A75294B00221A750C220021284807F08C
:1022A8006BFF254B002283F82420234B002283F860
:1022B8002520214B0022DA844FF4FA6000F076FAE8
:1022C8000346002B02D04FF0FF3330E0022000F02D
:1022D80007FB0346002B02D04FF0FF3327E02A20EC
:1022E80000F0ACFB0346002B02D04FF0FF331EE09A
:1022F800322000F015FC0346002B02D04FF0FF33CC
:1023080015E0002000F004FD0346002B02D04FF03A
:10231800FF330CE0002000F0E7FD0346002B02D05D
:102328004FF0FF3303E0002000F044FD002318467F
:102338001037BD4680BD00BF0C00002034010020CE
:102348002200002080B588B004AF0346FB71FB79FA
:10235800282B02D94FF0FF337CE0FB79002B25D1E5
:10236800002000F0BFFE00233B7307237B733B4B29
:102378005B681B781946394B1B685B7D1A464FF41E
:10238800807302930223019307F10C030093012346
:10239800334804F087FF0346002B02D04FF0FF3389
:1023A80058E02E4B00221A75002353E0012000F05C
:1023B80099FE20233B73FB79012B05D100237B7306
:1023C800052000F03BFB16E0FB79052B05D801231F
:1023D8007B73052000F032FB0DE0FB79142B05D848
:1023E80002237B730A2000F029FB04E003237B739C
:1023F800142000F023FB7B7B9B015BB243F00703B7
:102408005BB2DBB27B73154B5B681B781946134BC9
:102418001B685B7D1A464FF4807302930223019375
:1024280007F10C03009301230D4804F03BFF03461A
:10243800002B02D04FF0FF330CE0084B08229A72B1
:10244800064B00221A73054B01221A75002000F072
:102458005FFC002318461037BD4680BD0C000020E5
:102468003401002080B586B004AFA24B9B7A002BC4
:1024780002D14FF0FF335BE10023FB719D4B5B689A
:102488001B7819469B4B1B685B7C1A464FF480737C
:10249800029301230193FB1D00930123964804F046
:1024A80001FF0346002B02D04FF0FF3340E1914B70
:1024B8005B681B7819468F4B1B685B791A464FF48B
:1024C8008073029301230193FB1D009301238A4823
:1024D80004F0E8FE0346002B02D04FF0FF3327E15B
:1024E800844B5B681B781946824B1B681B791A461C
:1024F8004FF48073029301230193FB1D0093012382
:102508007D4804F0CFFE0346002B02D04FF0FF3386
:102518000EE1784B93F82430002B00F082800C23D6
:10252800FB71744B5B681B781946724B1B681B79EF
:102538001A464FF48073029301230193FB1D009305
:1025480001236D4804F0AEFE0346002B02D04FF085
:10255800FF33EDE0322004F011F9C023FB71654B25
:102568009B7A03F00103002B04D0FB7943F020038E
:10257800DBB2FB715F4B5B681B7819465D4B1B68D0
:102588001B791A464FF48073029301230193FB1DB4
:1025980000930123584804F085FE0346002B02D01F
:1025A8004FF0FF33C4E0534B5B7C002B02D0022377
:1025B800FB7101E00023FB714E4B5B681B781946E9
:1025C8004C4B1B685B7C1A464FF4807302930123C3
:1025D8000193FB1D00930123474804F063FE034663
:1025E800002B02D04FF0FF33A2E00023FB71414BD8
:1025F8005B681B7819463F4B1B685B791A464FF49A
:102608008073029301230193FB1D009301233A4831
:1026180004F048FE0346002B00F089804FF0FF339A
:1026280086E00423FB71334B5B681B781946314BFA
:102638001B681B791A464FF4807302930123019398
:10264800FB1D009301232C4804F02CFE0346002BAD
:1026580002D04FF0FF336BE0264B9B7C002B05D15B
:10266800244B9B7A03F00103002B02D14023FB711A
:1026780001E06023FB711F4B5B681B7819461D4BFB
:102688001B681B791A464FF4807302930123019348
:10269800FB1D00930123184804F004FE0346002B99
:1026A80002D04FF0FF3343E0322004F067F8114BBB
:1026B8005B7C002B02D00123FB7101E00023FB713E
:1026C8000C4B5B681B7819460A4B1B685B7C1A46E7
:1026D8004FF48073029301230193FB1D00930123A0
:1026E800054804F0DFFD0346002B07D04FF0FF3309
:1026F8001EE000BF0C000020340100200E4B5B6878
:102708001B7819460C4B1B685B791A464FF480738B
:10271800029301230193094B00930123084804F015
:10272800C1FD0346002B02D04FF0FF3300E0002329
:1027380018460837BD4680BD0C0000201C0000204C
:102748003401002080B483B000AF7860164B1B7A48
:10275800032B1ED801A252F823F000BF75270008EA
:102768007D27000887270008912700087B68FA2240
:102778001A8012E07B684FF4FA721A800DE07B68C9
:102788004FF47A721A8008E07B684FF4FA621A8074
:1027980003E07B6800221A8000BF002318460C372C
:1027A800BD4680BC704700BF0C00002080B588B0D3
:1027B80004AF0346FB802B4B9B7A002B02D14FF0D2
:1027C800FF334AE0FB88B3F5FA6F17D0B3F5FA6F19
:1027D80017DCB3F57A7F0ED0B3F57A7F11DCFA2BCC
:1027E80003D0B3F5FA7F03D00BE00023FB730BE0B3
:1027F8000823FB7308E01023FB7305E01823FB7321
:1028080002E04FF0FF3328E0164B1A7AFB7BDB0817
:10281800DBB29A4201D100231FE0124B5B681B78A0
:102828001946104B1B689B791A464FF48073029324
:102838000123019307F10F03009301230A4804F0D1
:1028480031FD0346002B02D04FF0FF3305E0FB7B40
:10285800DB08DAB2034B1A72002318461037BD465C
:1028680080BD00BF0C0000203401002080B483B07C
:1028780000AF7860194B5B7A032B1BD801A252F882
:1028880023F000BF9D280008A5280008AD280008EF
:10289800B52800087B6802221A700EE07B680422C3
:1028A8001A700AE07B6808221A7006E07B6810221A
:1028B8001A7002E04FF0FF330AE0084BDB7C002B74
:1028C80005D07B681B785B00DAB27B681A7000233E
:1028D80018460C37BD4680BC704700BF0C0000206E
:1028E80080B588B004AF0346FB71344B9B7A002B4C
:1028F80002D14FF0FF335DE0FB79023B0E2B2DD860
:1029080001A252F823F000BF4D29000865290008EC
:102918005329000865290008652900086529000869
:102928005929000865290008652900086529000853
:102938006529000865290008652900086529000837
:102948005F2900080023FB730BE00823FB7308E0F2
:102958001023FB7305E01823FB7302E04FF0FF33ED
:1029680028E0164B5A7AFB7BDB08DBB29A4201D18E
:1029780000231FE0114B5B681B7819460F4B1B683F
:10298800DB791A464FF4807302930123019307F110
:102998000F03009301230A4804F084FC0346002B2C
:1029A80002D04FF0FF3305E0FB7BDB08DAB2034BC4
:1029B8005A72002318461037BD4680BD0C0000200F
:1029C8003401002080B483B000AF78601A4BDB7A02
:1029D800013B052B26D801A252F823F0FD29000857
:1029E800052A00080D2A0008152A00081D2A0008D3
:1029F800252A00087B68BC221A8017E07B686222BF
:102A08001A8013E07B682A221A800FE07B68142260
:102A18001A800BE07B680A221A8007E07B6805228F
:102A28001A8003E07B6800221A8000BF0023184642
:102A38000C37BD4680BC70470C00002080B588B0BC
:102A480004AF0346FB80284B9B7A002B02D14FF042
:102A5800FF3344E0FB88BB2B02D90123FB7319E049
:102A6800FB88612B02D90223FB7313E0FB88292B17
:102A780002D90323FB730DE0FB88132B02D904232F
:102A8800FB7307E0FB88092B02D90523FB7301E0E0
:102A98000623FB73144BDA7AFB7B9A4201D100239D
:102AA8001DE0114B5B681B7819460F4B1B689B7820
:102AB8001A464FF4807302930123019307F10F0321
:102AC80000930123094804F0EDFB0346002B02D0D4
:102AD8004FF0FF3303E0FA7B034BDA72002318460A
:102AE8001037BD4680BD00BF0C0000203401002017
:102AF80080B483B000AF7860084B93F82430002B83
:102B080002D04FF0FF3304E0044BDA897B681A8067
:102B1800002318460C37BD4680BC70470C000020C7
:102B280080B588B004AF0346FB80344B9B7A002BFA
:102B380002D14FF0FF335CE0304B93F82430002B88
:102B480002D04FF0FF3354E02C4B1B7D002B0FD0ED
:102B5800FB88002B09D0FB88282B06D8FB88DBB222
:102B68001846FFF7EFFB002343E00020FFF7EAFBDE
:102B7800FB88032B02D80423FB8006E0FB88B3F50F
:102B88007A7F02D94FF47A73FB80FB884FF47A720C
:102B980092FBF3F3DBB2013BDBB2FB73174B5B68D1
:102BA8001B781946154B1B685B781A464FF48073DF
:102BB80002930123019307F10F03009301231048A7
:102BC80004F070FB0346002B02D04FF0FF3310E0F7
:102BD800FB7B01334FF47A7292FBF3F39AB2074B03
:102BE800DA81064BDB895B089BB21846FFF726FFA4
:102BF800002318461037BD4680BD00BF0C000020DA
:102C08003401002080B483B000AF7860144B1B7A85
:102C1800032B1BD801A252F823F000BF352C000863
:102C28003D2C0008452C00084D2C00087B680D4AF7
:102C38001A600EE07B680C4A1A600AE07B680B4A4F
:102C48001A6006E07B680A4A1A6002E04FF0FF3318
:102C580000E0002318460C37BD4680BC704700BF13
:102C68000C0000200000034300008342333303427A
:102C78003333834180B483B000AF78601B4B5B7AF9
:102C8800032B1FD801A252F823F000BFA52C00087F
:102C9800AF2C0008B92C0008C32C00087B684FF43F
:102CA80080421A8011E07B6841F69C721A800CE021
:102CB8007B684FF480521A8007E07B684FF400620B
:102CC8001A8002E04FF0FF330AE0084BDB7C002B50
:102CD80005D07B681B885B089AB27B681A80002342
:102CE80018460C37BD4680BC704700BF0C0000205A
:102CF80080B483B000AF7860044B1A7C7B681A708C
:102D0800002318460C37BD4680BC70470C000020D5
:102D180080B584B000AF0346FB710023FB60FB79EC
:102D280023F00103FB71224B93F82430002B01D0D0
:102D3800002338E01E4B9B7A002B02D14FF0FF3363
:102D480031E01B4B1B7CFB72194B9A7AFB791340C1
:102D5800DAB2174B1A74164B1B7CFA799A4203D0D5
:102D68004FF0FF33FB6001E00023FB60FB79002B91
:102D780003D10F4B1B7D002B03D00120FFF746F931
:102D880002E00020FFF742F9FB79002B0AD0FFF799
:102D980069FB0346002B05D0054AFB7A13744FF0F4
:102DA800FF3300E0FB6818461037BD4680BD00BF02
:102DB8000C00002080B588B004AF0346FB71FB7996
:102DC80003F07003002B02D00123FB7307E0FB79AB
:102DD800002B02D00023FB7301E04023FB73404B20
:102DE8005B681B7819463E4B1B685B7D1A464FF49F
:102DF800807302930123019307F10F0300930123CA
:102E0800384804F04FFA0346002B05D0344B002213
:102E18009A724FF0FF335FE0FB7B23F04003DAB296
:102E28002F4B1A730023FB73FB7903F04003002B2D
:102E380004D1FB7B43F00403DBB2FB73FB7903F0A3
:102E48002003002B04D1FB7B43F00203DBB2FB73AE
:102E5800FB7903F01003002B04D1FB7B43F0010343
:102E6800DBB2FB73FB7903F00803002B04D1FB7B77
:102E780043F03803DBB2FB73194B5B681B781946C8
:102E8800174B1B689B7D1A464FF4807302930123EE
:102E9800019307F10F0300930123124804F002FA8B
:102EA8000346002B05D00E4B00229A724FF0FF33D9
:102EB80012E0FB79002B05D0FB79082B02D000200B
:102EC80000F010F9064AFB799372054B00221A7537
:102ED800322003F053FC002318461037BD4680BD4E
:102EE8000C0000203401002080B588B004AF0346F0
:102EF800FB717A4B9B7CFA799A4201D10023E8E076
:102F0800FB79002B6BD0754B5B681B781946734BAC
:102F18001B681B791A464FF48073029301230193AF
:102F280007F10F03009301236D4804F0B5FA034637
:102F3800002B02D04FF0FF33CBE0FB7B23F02003C4
:102F4800DBB2FB73654B5B681B781946634B1B68E8
:102F58001B791A464FF4807302930123019307F1FA
:102F68000F03009301235E4804F09CF90346002BED
:102F780002D04FF0FF33ACE0032003F0FFFB022345
:102F8800FB73564B93F82230002B04D0FB7B63F085
:102F98007F03DBB2FB73514B93F82330002B04D033
:102FA800FB7B43F03003DBB2FB734C4B5B681B7855
:102FB80019464A4B1B68DB7D1A464FF4807302930F
:102FC8000123019307F10F0300930123444804F000
:102FD80069F90346002B78D04FF0FF3379E03F4B77
:102FE8005B681B7819463D4B1B681B791A464FF4E2
:102FF800807302930123019307F10F0300930123C8
:10300800374804F049FA0346002B02D04FF0FF334B
:103018005FE0324B9B7A03F00103002B05D0FB7B6A
:1030280043F02003DBB2FB7304E0FB7B23F02003B7
:10303800DBB2FB73294B5B681B781946274B1B686F
:103048001B791A464FF4807302930123019307F109
:103058000F0300930123224804F024F90346002BB0
:1030680002D04FF0FF3334E0032003F087FB1B4B03
:1030780093F82230002B02D08023FB7301E0002359
:10308800FB73164B93F82330002B04D0FB7B43F0E3
:103098003003DBB2FB73114B5B681B7819460F4B8F
:1030A8001B68DB7D1A464FF480730293012301935A
:1030B80007F10F0300930123094804F0F3F80346CE
:1030C800002B02D04FF0FF3303E0044AFB799374DE
:1030D800002318461037BD4680BD00BF0C000020F5
:1030E8003401002080B588B004AF0346FB71234B40
:1030F80093F82330FA799A4201D1002339E0FB7919
:10310800002B02D03023FB7301E00023FB731B4B21
:103118009B7C002B04D0FB7B43F00203DBB2FB73E8
:10312800164B93F82230002B04D0FB7B63F07F030F
:10313800DBB2FB73114B5B681B7819460F4B1B689E
:10314800DB7D1A464FF4807302930123019307F144
:103158000F03009301230A4804F0A4F80346002B48
:1031680002D04FF0FF3304E0044AFB7982F82330A1
:10317800002318461037BD4680BD00BF0C00002054
:103188003401002090B58BB004AF7860444B5B6885
:103198001B7819464FF4807302930423019307F1B7
:1031A8001003009301230D223E4804F075F90346ED
:1031B800002B01D007236FE03B7CDB105BB203F0F0
:1031C8001C035AB2FB7C1B115BB203F003035BB216
:1031D80013435BB2DBB23B737B7CDB105BB203F067
:1031E8001C035AB2FB7C9B105BB203F003035BB277
:1031F80013435BB2DBB27B73BB7CDB105BB203F0C7
:103208001C035AB2FB7C5BB203F003035BB21343AB
:103218005BB2DBB2BB730023FB7539E0FB7D18336F
:103228003B4413F80C3C002B07D1FB7D9B007A68CC
:1032380013444FF000021A6027E0FB7D9B007A6878
:103248001344194A1A600DE0FB7D9B007A68134409
:103258001868FB7D9B007A68D4181449FDF7DCFCDC
:1032680003462360FB7D03F118023A4412F80C2C44
:10327800013AD1B203F118023A4402F80C1C18338F
:103288003B4413F80C3C002BDED1FB7D0133FB756E
:10329800FB7D022BC2D9002318461C37BD4690BDC2
:1032A8000C000020340100207B14AE3E1D5A843FE0
:1032B80080B58AB000AF7860396000233B6207F1BF
:1032C8000C031846FFF75EFF00237B6265E07B6A0C
:1032D8009B007A6813441A687B6A9B0039680B4420
:1032E8001B68D31A002BB8BF5B421846FDF740FC99
:1032F80003464FF08F411846FDF742FD0346FB6138
:103308007B6A9B0028333B4453F81C3C4FF0000178
:103318001846FDF715FE0346002B24D17B6A9B0057
:1033280028333B4453F81C3C1946F869FDF728FD3F
:1033380003464FF07E511846FDF764FB0346BB6118
:10334800BB6923F00043194A11461846FDF720FED1
:103358000346002B1ED001227B6A02FA03F33A6A65
:1033680013433B6216E0124B1946F869FDF7F2FD6C
:103378000346002B07D10F4B1946F869FDF708FEE5
:103388000346002B06D001227B6A02FA03F33A6A4D
:1033980013433B627B6A01337B627B6A022B96DDB7
:1033A8003B6A18462837BD4680BD00BF295C0F3EE2
:1033B8009A99993E3333733F80B58CB004AF7860E7
:1033C80039600023BB61584B5B681B7819464FF482
:1033D800807302930323019307F1080300930123E9
:1033E8000D22524804F058F80346002B01D0072359
:1033F80095E03B7A03F01F03DBB23B727B7A03F064
:103408001F03DBB27B72BB7A03F01F03DBB2BB7214
:103418000023FB617EE0FB699B007A6813441A680D
:10342800FB699B0039680B441B68D31A002BB8BF93
:103438005B421846FDF79CFB03464FF08F41184648
:10344800FDF79EFC03463B6107F10802FB69134444
:103458001B78002B44D083231846FDF785FB0346D1
:1034680019463348FDF78CFC03467B6105E031497A
:103478007869FDF7D1FB03467B6107F10802FB6918
:1034880013441B78013BD9B207F10802FB691344C6
:103498000A461A7007F10802FB6913441B78002BCF
:1034A800E5D179693869FDF76BFC03464FF07E5129
:1034B8001846FDF7A7FA0346FB60FB6823F00043B4
:1034C8001D4A11461846FDF763FD0346002B1ED022
:1034D8000122FB6902FA03F3BA691343BB6116E0E0
:1034E800164B19463869FDF735FD0346002B07D101
:1034F800134B19463869FDF74BFD0346002B06D0E0
:103508000122FB6902FA03F3BA691343BB61FB6941
:103518000133FB61FB69022B7FF77DAFBB6918465E
:103528002037BD4680BD00BF0C00002034010020BC
:1035380000B04C4554E3853F295C0F3E0000204114
:103548000000D2422DE9B04FBCB004AFC7F8B400B8
:10355800C7F8B010134687F8AF30012387F8CC308E
:10356800002387F8CD30AB4B5B681B781946A94B15
:103578001B685B7D1A464FF4807302930223019304
:1035880007F1CC0300930123A34803F08BFE034605
:10359800002B02D04FF0FF33D6E3C82003F0EEF83B
:1035A800002387F8CC309B4B5B681B781946994BF6
:1035B8001B685B7C1A464FF48073029301230193C6
:1035C80007F1CC0300930123934803F06BFE0346F5
:1035D800002B02D04FF0FF33B6E38E4B5B681B78AD
:1035E80019468C4B1B685B791A464FF4807302931B
:1035F8000123019307F1CC0300930123864803F0CC
:1036080051FE0346002B02D04FF0FF339CE3814B61
:103618005B681B7819467F4B1B685B7D1A464FF425
:10362800807302930123019307F1CC0300930123D4
:10363800794803F037FE0346002B02D04FF0FF33E2
:1036480082E3744B5B681B781946724B1B689B7E40
:103658001A464FF4807302930123019307F1CC03B8
:10366800009301236C4803F01DFE0346002B02D093
:103678004FF0FF3368E3674B5B681B781946654B6F
:103688001B681B791A464FF4807302930123019338
:1036980007F1CC03009301235F4803F003FE0346C0
:1036A800002B02D04FF0FF334EE30C2387F8CC30C9
:1036B800584B5B681B781946564B1B681B791A4692
:1036C8004FF4807302930123019307F1CC03009315
:1036D8000123514803F0E6FD0346002B02D04FF0CA
:1036E800FF3331E30F2003F049F84A4B9B6A5B7ABA
:1036F80087F8CC30474B5B681B781946454B1B68ED
:103708009B781A464FF4807302930123019307F1C3
:10371800CC0300930123404803F0C4FD0346002B6B
:1037280002D04FF0FF330FE33A4B9B6A1B7A87F8BE
:10373800CC30384B5B681B781946364B1B685B7876
:103748001A464FF4807302930123019307F1CC03C7
:1037580000930123304803F0A5FD0346002B02D057
:103768004FF0FF33F0E297F8AF30002B08D0294B29
:103778009B6A9B7A63F01F03DBB287F8CC3004E0C6
:10378800244B9B6A9B7A87F8CC30224B5B681B786A
:103798001946204B1B689B791A464FF48073029395
:1037A8000123019307F1CC03009301231A4803F086
:1037B80079FD0346002B02D04FF0FF33C4E297F89F
:1037C800AF30002B08D0134B9B6ADB7A63F01F03E2
:1037D800DBB287F8CC3002E0182387F8CC300D4BE9
:1037E8005B681B7819460B4B1B68DB791A464FF44C
:1037F800807302930123019307F1CC030093012303
:10380800054803F04FFD0346002B07D04FF0FF3368
:103818009AE200BF0C0000203401002097F8AF3076
:10382800002B02D0C82002F0A9FF402387F8CC3033
:10383800604B5B681B7819465E4B1B681B791A4600
:103848004FF4807302930123019307F1CC03009393
:103858000123594803F026FD0346002B02D04FF000
:10386800FF3371E2782387F8CC30524B5B681B78C2
:103878001946504B1B685B791A464FF480730293C4
:103888000123019307F1CC03009301234A4803F075
:1038980009FD0346002B02D04FF0FF3354E23223D8
:1038A800184602F06BFF002387F8CC30414B5B6869
:1038B8001B7819463F4B1B685B791A464FF4807397
:1038C80002930123019307F1CC03009301233A48A3
:1038D80003F0E8FC0346002B02D04FF0FF3333E23D
:1038E800344B5B681B781946324B1B681B7B1A46A6
:1038F8004FF4807302930223019307F1CC030093E2
:1039080001232D4803F0C8FD0346002B02D04FF0D9
:10391800FF3319E297F8CC301B021AB297F8CD3072
:103928001BB213431BB2A7F8DC30B7F8DC20234BDB
:10393800A3FB0223DB089BB287F8DB30D7F8B4304F
:1039480003F1080100230B60D7F8B4301A1D0B6887
:1039580013601268D7F8B4301A60D7F8B03003F1A2
:10396800080100230B60D7F8B0301A1D0B681360EC
:103978001268D7F8B0301A60002387F8DF30AAE061
:103988000C4B5B681B7819460A4B1B685B7B1A4615
:103998004FF4807302930C23019307F1CC03009337
:1039A8000123054803F078FD0346002B08D04FF0AB
:1039B800FF33C9E10C00002034010020ABAAAAAAF9
:1039C80097F8CC301B021AB297F8CD301BB21343CC
:1039D8001BB2A7F8C43097F8CE301B021AB297F87A
:1039E800CF301BB213431BB2A7F8C63097F8D030BC
:1039F8001B021AB297F8D1301BB213431BB2A7F8B7
:103A0800C830D7F8B0301A68B7F9C4301A44D7F8B4
:103A1800B0301A60D7F8B03004331968B7F9C63037
:103A28001846D7F8B0301A1D0B181360D7F8B03005
:103A380008331968B7F9C8301846D7F8B03003F119
:103A480008020B18136097F8D2301B021AB297F8C5
:103A5800D3301BB213431BB2A7F8BC3097F8D4304D
:103A68001B021AB297F8D5301BB213431BB2A7F842
:103A7800BE3097F8D6301B021AB297F8D7301BB26F
:103A880013431BB2A7F8C030D7F8B4301A68B7F997
:103A9800BC301A44D7F8B4301A60D7F8B4300433BD
:103AA8001968B7F9BE301846D7F8B4301A1D0B1884
:103AB8001360D7F8B43008331968B7F9C03018461E
:103AC800D7F8B43003F108020B18136097F8DF3009
:103AD800013387F8DF3097F8DF2097F8DB309A4218
:103AE800FFF44EAFD7F8B4301B68DA171C461546FA
:103AF8002314C7F8A4302304C7F8A0308322002376
:103B0800C7F89820C7F89C30D7E92623D7E92801B9
:103B1800FDF78EFA02460B461046194697F8DB3039
:103B28000022C7F89030C7F89420D7E92423FDF77E
:103B38007FFA02460B46D7F8B4301A60D7F8B4308B
:103B480004331B68DA17984691464FEA2843C7F8AA
:103B58008C304FEA0843C7F8883083220023C7F81F
:103B68008020C7F88430D7E92023D7E92201FDF760
:103B78005FFA02460B461046194697F8DB300022DA
:103B8800BB67FA67D7E91E23FDF752FA02460B46D0
:103B980010461946D7F8B4301A1D03461360D7F8F3
:103BA800B43008331B68DA179A4693464FEA2A431B
:103BB8007B674FEA0A433B6783220023BA66FB66AA
:103BC800D7E91A23D7E91C01FDF732FA02460B465A
:103BD8001046194697F8DB3000223B667A66D7E92B
:103BE8001823FDF725FA02460B4610461946D7F862
:103BF800B43003F1080203461360D7F8B0301B68ED
:103C0800DA17BB65FA65D7E916120B461B147B65F4
:103C18000B461B043B654FF400620023BA64FB6447
:103C2800D7E91223D7E91401FDF702FA02460B4639
:103C38001046194697F8DB3000223B647A64D7E9CE
:103C48001023FDF7F5F902460B46D7F8B0301A6095
:103C5800D7F8B03004331B68DA17BB63FA63D7E9C7
:103C68000E120B461B147B630B461B043B634FF47D
:103C780000620023BA62FB62D7E90A23D7E90C0184
:103C8800FDF7D6F902460B461046194697F8DB3081
:103C980000223B627A62D7E90823FDF7C9F9024698
:103CA8000B4610461946D7F8B030043302461A605E
:103CB800D7F8B03008331B68DA17BB61FA61D7E967
:103CC80006120B461B147B610B461B043B614FF429
:103CD80000620023BA60FB60D7E90223D7E9040138
:103CE800FDF7A6F902460B461046194697F8DB3051
:103CF80000223B607A60D7E90023FDF799F9024674
:103D08000B4610461946D7F8B030083302461A60F9
:103D1800D7F8B03008331B68002B0ADDD7F8B0306D
:103D280008331A68D7F8B0300833A2F580321A6021
:103D380009E0D7F8B03008331A68D7F8B03008333C
:103D480002F580321A6000231846E037BD46BDE808
:103D5800B08F00BF80B58EB000AF786039600223A5
:103D680087F82E30644B93F82430002B06D00020BF
:103D780000F018FA012387F82F3002E0002387F8B3
:103D88002F3007F10C031846FEF7DCFC07F10F0390
:103D98001846FEF76BFD07F108031846FEF712FEFA
:103DA80007F10A031846FEF7A3FE534B9B7A87F8E0
:103DB8002D3007F10E031846FEF79AFF00237B63A8
:103DC8000AE0002239687868FFF7BCFB0346002B3D
:103DD80008D07B6B01337B6397F82E307A6B9A425D
:103DE800EFDB00E000BF97F82E307A6B9A4202D1E1
:103DF80000233B6345E000237B630DE007F11001DE
:103E080007F11C0301221846FFF79CFB0346002B11
:103E180008D07B6B01337B6397F82E307A6B9A421C
:103E2800ECDB00E000BF97F82E307A6B9A4202D1A3
:103E380000233B6325E007F1100319463868FFF7B4
:103E480037FA034687F82C3007F11C0319467868BF
:103E5800FFF7B2FA034687F82B3000233B6397F845
:103E68002B30002B03D13B6B43F001033B6397F8E6
:103E78002C30002B04D13B6B43F002033B6300E082
:103E880000BF1D4BFF221A721B4BFF225A721A4B9E
:103E9800FF22DA72184B4FF6FF72DA81164BFF22B7
:103EA8009A72154BFF221A74134B01221A73BB899D
:103EB8001846FEF77BFCFB7B1846FEF711FD3B8995
:103EC8001846FEF7BBFD7B891846FEF729FE97F8D2
:103ED8002D301846FEF76EFFBB7B1846FEF718FF1D
:103EE80097F82F30002B02D0012000F05BF93B6BD4
:103EF80018463837BD4680BD0C00002080B588B014
:103F080004AF03463A60FB800B46BB803B68002B3E
:103F180002D14FF0FF334EE0294B9B7A002B02D1A0
:103F28004FF0FF3347E0FB881B0A9BB2DBB23B73C1
:103F3800FB88DBB27B737B7B1A46BB881344204A21
:103F480052685289934202DD4FF0FF3333E01C4B35
:103F58005B681B7819461A4B1B68DB7E1A464FF4C0
:103F6800807302930223019307F10C03009301234A
:103F7800144803F097F90346002B02D04FF0FF33A3
:103F880019E00F4B5B681B7819460D4B1B681B7EAD
:103F98001A464FF480730293BB8801933B680093E1
:103FA8000123084803F07EF90346002B02D04FF0A6
:103FB800FF3300E0002318461037BD4680BD00BF20
:103FC8000C0000203401002080B588B004AF0346FF
:103FD8003A60FB800B46BB803B68002B02D14FF058
:103FE800FF334EE0294B9B7A002B02D14FF0FF3371
:103FF80047E0FB881B0A9BB2DBB23B73FB88DBB252
:104008007B737B7B1A46BB881344204A52685289CB
:10401800934202DD4FF0FF3333E01C4B5B681B78A3
:1040280019461A4B1B68DB7E1A464FF480730293BD
:104038000223019307F10C0300930123144803F0B2
:1040480031F90346002B02D04FF0FF3319E00F4B34
:104058005B681B7819460D4B1B681B7E1A464FF48C
:1040680080730293BB8801933B680093012308483F
:1040780003F012FA0346002B02D04FF0FF3300E0A2
:10408800002318461037BD4680BD00BF0C00002035
:104098003401002080B58EB004AFB96011461A46CD
:1040A8000346FB810B46BB811346FB803B4B93F8D1
:1040B8002530002B02D04FF0FF336BE0BB68002B9C
:1040C80002D14FF0FF3365E00023FB8434E0FA8926
:1040D800FB8CD31A102BA8BF1023BB84FB8CBA68A7
:1040E8001A44B98CFB8C1846FFF708FF0346002BCF
:1040F80002D04FF0FF334DE007F11402B98CFB8C6E
:104108001846FFF761FF0346002B02D04FF0FF333C
:1041180040E0FB8CBA681344BA8C07F114011846C6
:1041280006F01AF80346002B02D06FF0010331E0C5
:10413800FA8CBB8C1344FB84FA8CFB899A42C6D355
:10414800BB891B0A9BB2DBB23B74BB89DBB27B74B5
:10415800124B5B681B781946104B1B685B7F1A462D
:104168004FF4807302930223019307F11003009325
:1041780001230B4803F096F80346002B02D04FF0BA
:10418800FF3307E0054B012283F82520034AFB880B
:10419800D384002318462837BD4680BD0C00002074
:1041A8003401002080B588B004AF0346FB712E4B64
:1041B80093F82430FA799A4201D1002350E0FB7930
:1041C800002B2FD0284B93F82530002B02D14FF02D
:1041D800FF3345E00020FDF719FF0020FEF784FEBD
:1041E800214BDB8C1846FEF79BFC0023FB731E4B10
:1041F8005B681B7819464FF480730293012301937F
:1042080007F10F03009301232322184803F04AF80B
:10421800154B012283F824200120FDF7F7FEFEF755
:1042280021F91CE00020FDF7F1FE0F4B1B7CFB730E
:104238000D4B5B681B7819464FF48073029301237A
:10424800019307F10F03009301232322074803F08A
:1042580029F8054B002283F82420FEF703F90023F0
:1042680018461037BD4680BD0C00002034010020E0
:1042780080B500AF4FF48062C823044940F6F63099
:10428800FFF708FF0346184680BD00BFACAD000825
:1042980080B588B000AF0346FB806E4A07F114036F
:1042A8001268114619800233120C1A706A4A07F113
:1042B80010031268114619800233120C1A70674AEB
:1042C80007F10C031268114619800233120C1A7098
:1042D800634A07F108031268114619800233120C69
:1042E8001A70FB8803F0030320333B4413F80C3C9B
:1042F8003B77FB88DB089BB203F0030320333B4486
:1043080013F80C3C7B77FB889B099BB203F00303F3
:1043180020333B4413F80C3CBB77FB8803F00303C2
:1043280020333B4413F8103C3B76FB88DB089BB2F8
:1043380003F0030320333B4413F8103C7B76FB88DF
:104348009B099BB203F0030320333B4413F8103C52
:10435800BB7607F11C031A46032140F22640FFF7FB
:10436800CDFD0346002B02D04FF0FF336EE007F17E
:1043780018031A46032140F22A40FFF7BFFD0346FF
:10438800002B02D04FF0FF3360E007F11C0307F168
:104398000C021268114619800233120C1A7007F1C8
:1043A800180307F108021268114619800233120C2B
:1043B8001A70FB8803F00403002B09D03B7F43F0FD
:1043C8000103DBB23B773B7E43F00103DBB23B7674
:1043D800FB8803F02003002B09D07B7F43F0010307
:1043E800DBB27B777B7E43F00103DBB27B76FB8815
:1043F80003F48073002B09D0BB7F43F00103DBB2C9
:10440800BB77BB7E43F00103DBB2BB7607F11C032D
:104418001A4603214FF48860FFF770FD0346002B0E
:1044280002D04FF0FF3311E007F118031A460321B9
:1044380040F23140FFF762FD0346002B02D04FF0F7
:10444800FF3303E0074AFB8813810023184620370F
:10445800BD4680BDD0AC0008D4AC0008D8AC00087C
:10446800DCAC0008880100202DE9B04F8CB000AF0B
:10447800F861804B1B8903F003039B00FA6913441E
:104488001B687B627B4B1B8903F00403002B02D063
:104498007B6A5B427B62774B1B89DB089BB203F02C
:1044A80003039B00FA6913441B68BB62714B1B89A9
:1044B80003F02003002B02D0BB6A5B42BB626D4B4A
:1044C8001B899B099BB203F003039B00FA69134401
:1044D8001B68FB62674B1B8903F48073002B02D0B7
:1044E800FB6A5B42FB627B6ADA173B617A61624B6B
:1044F800D7E904010A4603FB02F20023C7E90401D5
:10450800014601FB03F313445B4A3969A1FB02AB83
:104518005B449B464FF000024FF000034FEA9A724B
:1045280042EA8B024FEAAB7313467B62BB6ADA1727
:10453800BB60FA60504BD7E902AB5A4603FB02F264
:104548000023514601FB03F313444B4A5146A1FB98
:1045580002894B4499464FF000024FF000034FEA9E
:10456800987242EA89024FEAA9731346BB62FB6A52
:10457800DA173B607A60404BD7E900894A4603FB6B
:1045880002F20023414601FB03F313443A4A414631
:10459800A1FB02452B441D464FF000024FF00003DB
:1045A800A20F42EA8502AB171346FB627B6A1B1611
:1045B800DBB287F820307B6A1B14DBB287F8213026
:1045C8007B6A1B12DBB287F822307B6ADBB287F882
:1045D800233007F120031A4604214FF47470FFF7C3
:1045E8008DFC0346002B02D04FF0FF333CE0BB6A42
:1045F8001B16DBB287F82030BB6A1B14DBB287F8C6
:104608002130BB6A1B12DBB287F82230BB6ADBB2EF
:1046180087F8233007F120031A4604214FF47570F8
:10462800FFF76CFC0346002B02D04FF0FF331BE072
:10463800FB6A1B16DBB287F82030FB6A1B14DBB25F
:1046480087F82130FB6A1B12DBB287F82230FB6A3D
:10465800DBB287F8233007F120031A4604214FF410
:104668007670FFF74BFC034618463037BD46BDE869
:10467800B08F00BF8801002009E3CA022DE9B04FBE
:1046880094B000AF786207F12E031846FEF7F2FAED
:10469800FB8D9BB200223B617A614FF000024FF024
:1046A80000037969CB03D7E90401844643EA5C43F4
:1046B8000146CA03C7E9122300BF724B1B8903F0E6
:1046C80003039B007A6A13441B68FB636D4B1B89C9
:1046D80003F00403002B02D0FB6B5B42FB63694BC6
:1046E8001B89DB089BB203F003039B007A6A13441F
:1046F8001B683B64634B1B8903F02003002B02D02B
:104708003B6C5B423B645F4B1B899B099BB203F08C
:1047180003039B007A6A13441B687B64594B1B890B
:1047280003F48073002B02D07B6C5B427B64FB6BD1
:10473800DA17BB61FA61BB6CD7E906010A4602FBCE
:1047480003F2FB6CC7E90601014601FB03F31344BE
:10475800BA6CB969A2FB01AB5B449B464FF00002FF
:104768004FF000034FEA9A7242EA8B024FEAAB73AA
:104778001346FB633B6CDA17BB60FA60BB6CD7E986
:1047880002AB5A4602FB03F2FB6C514601FB03F3F2
:104798001344BA6C5146A2FB01894B4499464FF029
:1047A80000024FF000034FEA987242EA89024FEA8A
:1047B800A97313463B647B6CDA173B607A60BB6C69
:1047C800D7E900894A4602FB03F2FB6C414601FB2C
:1047D80003F31344BA6C4146A2FB01452B441D4622
:1047E8004FF000024FF00003A20F42EA8502AB1718
:1047F80013467B64FB6B1B16DBB287F83030FB6B10
:104808001B14DBB287F83130FB6B1B12DBB287F865
:104818003230FB6BDBB287F833303B6C1B16DBB2F4
:1048280087F834303B6C1B14DBB287F835303B6CAF
:104838001B12DBB287F836303B6CDBB287F83730B7
:104848007B6C1B16DBB287F838307B6C1B14DBB231
:1048580087F839307B6C1B12DBB287F83A307B6CF7
:10486800DBB287F83B3007F130031A460C214FF4CE
:104878002570FFF743FB034618465037BD46BDE891
:10488800B08F00BF8801002080B588B000AF034614
:10489800FB801F4A07F1100307CA83E80700FB885B
:1048A800C82B02D94FF0FF332EE0FB88C82292FBB9
:1048B800F3F39BB2013BFB83FB8B1B0A9BB2DBB27E
:1048C8003B72FB8BDBB27B7207F108031A460221AD
:1048D80040F21620FFF712FB0346002B02D04FF0E0
:1048E800FF3311E007F110031A460C2140F6C120EE
:1048F800FFF704FB0346002B02D04FF0FF3303E021
:10490800044AFB889381002318462037BD4680BDA2
:10491800E0AC00088801002080B586B000AF0346EF
:104928000A46FB711346BB80FB7903F00703002B93
:1049380003D0BB88B3F5C86F02D94FF0FF3307E146
:10494800BB881846FCF710F9034683491846FCF75C
:1049580017FA03463B6107F10B031846FDF786FF7C
:10496800FB7A023B0E2B79D801A252F823F000BF44
:10497800B5490008654A0008E1490008654A000889
:10498800654A0008654A00080D4A0008654A00089B
:10499800654A0008654A0008654A0008654A000833
:1049A800654A0008654A0008394A00084FF08D41F9
:1049B8003869FCF731F903461846FCF719FB03463A
:1049C800FB8266493869FCF727F903461846FCF765
:1049D8000FFB0346BB8244E04FF08C413869FCF77B
:1049E8001BF903461846FCF703FB0346FB825C49A8
:1049F8003869FCF711F903461846FCF7F9FA03463B
:104A0800BB822EE04FF08B413869FCF705F903466D
:104A18001846FCF7EDFA0346FB8252493869FCF761
:104A2800FBF803461846FCF7E3FA0346BB8218E096
:104A38004FF08A413869FCF7EFF803461846FCF74F
:104A4800D7FA0346FB8248493869FCF7E5F803467C
:104A58001846FCF7CDFA0346BB8202E04FF0FF335D
:104A680076E0FB8A1B0A9BB2DBB23B73FB8ADBB2A4
:104A78007B73BB8A1B0A9BB2DBB2BB73BB8ADBB2FC
:104A8800FB73FB7903F00103002B1CD007F10C0327
:104A98001A4602214FF4EA70FFF730FA0346002B5A
:104AA80002D04FF0FF3353E007F10C0302331A46EC
:104AB80002214FF49270FFF721FA0346002B02D02F
:104AC8004FF0FF3344E0FB7903F00203002B1CD0C6
:104AD80007F10C031A4602214FF4EC70FFF70EFAA7
:104AE8000346002B02D04FF0FF3331E007F10C03EF
:104AF80002331A4602214FF49470FFF7FFF9034678
:104B0800002B02D04FF0FF3322E0FB7903F00403BF
:104B1800002B1CD007F10C031A4602214FF4EE704B
:104B2800FFF7ECF90346002B02D04FF0FF330FE0FC
:104B380007F10C0302331A4602214FF49670FFF76F
:104B4800DDF90346002B02D04FF0FF3300E00023CD
:104B580018461837BD4680BD00004843000040464F
:104B68000000C045000040450000C04480B584B046
:104B780000AF0346FB710023FB73FB7903F00103CD
:104B8800002B04D0FB7B43F03003DBB2FB73FB79D3
:104B980003F00203002B04D0FB7B43F00C03DBB2D1
:104BA800FB73FB7903F00403002B04D0FB7B43F079
:104BB8000303DBB2FB7307F10F031A4601214FF41D
:104BC800A470FFF79BF9034618461037BD4680BD11
:104BD80080B584B000AF0346FB71FB79002B02D18E
:104BE8000123FB7104E0FB79042B01D90423FB7139
:104BF800FB79013BDBB2FB7307F10F031A46012176
:104C080040F24F10FFF77AF9034618461037BD46B1
:104C180080BD000080B584B000AF0346FB80FB88F0
:104C28000C4AA2FB03239B08FB81FB891B0A9BB24E
:104C3800DBB23B73FB89DBB27B7307F10C031A46CB
:104C480002214FF4EF70FFF759F903461846103761
:104C5800BD4680BDCDCCCCCC80B584B000AF03467A
:104C6800FB80FB880C4AA2FB03239B08FB81FB8982
:104C78001B0A9BB2DBB23B73FB89DBB27B7307F188
:104C88000C031A4602214FF4ED70FFF737F903467B
:104C980018461037BD4680BDCDCCCCCC80B584B08D
:104CA80000AF78600B467B807B68134A82FB031257
:104CB8009211DB17D31A7A8802FB03F3FB60FB68B7
:104CC8001B16DBB23B72FB681B14DBB27B72FB6802
:104CD8001B12DBB2BB72FB68DBB2FB7207F1080385
:104CE8001A4604214FF4AE70FFF708F90346184638
:104CF8001037BD4680BD00BFD34D621080B584B06B
:104D080000AF0346FB80FB880C4AA2FB03239B08E9
:104D1800FB80FB881B0A9BB2DBB23B73FB88DBB2D0
:104D28007B7307F10C031A4602214FF4AD70FFF7AD
:104D3800E5F8034618461037BD4680BDCDCCCCCC2F
:104D480080B584B000AF0346FB80FB880C4AA2FB09
:104D580003239B08FB80FB881B0A9BB2DBB23B73D7
:104D6800FB88DBB27B7307F10C031A4602214FF470
:104D7800AC70FFF7C3F8034618461037BD4680BD30
:104D8800CDCCCCCC80B586B000AF0346FB800223E7
:104D98003B73CA237B73E323BB730923FB7307F1BC
:104DA8000C031A4604216820FFF7A8F8A3233B73D5
:104DB800FB8803F04003002B06D0C0237B73C82375
:104DC800BB73C223FB7305E0A3237B73A323BB73CD
:104DD800A323FB73FB8803F4C073002B06D0C42302
:104DE8003B74CC237B74C623BB7405E0A3233B74BC
:104DF800A3237B74A323BB74A323FB74A3233B7556
:104E0800A3237B7507F10C031A460A2140F6A72055
:104E1800FFF774F8FB8803F00303002B02D020236C
:104E28003B7301E0D8233B7307F10C031A460121B9
:104E380040F6B620FFF762F8FB8803F02003002B4A
:104E480003D0012000F0C6F802E0002000F0C2F80C
:104E5800FB8803F4C073002B1DD0FB8803F4807318
:104E6800002B08D0B2233B738B237B73B623BB7311
:104E78009B23FB7307E0B0233B7380237B73B4232E
:104E8800BB739023FB7307F10C031A46042140F609
:104E9800A220FFF733F8FB8803F00103002B25D08D
:104EA800F8233B7307F10C031A4601214FF40B60FA
:104EB800FFF724F8FA210720FFF72EFD0720FFF758
:104EC80055FE0120FFF784FE6420FFF7A3FE4FF490
:104ED800FA70FFF7C1FEC8213C48FFF7DFFE282023
:104EE800FFF70CFF0A20FFF72BFF09E0D8233B73DD
:104EF80007F10C031A4601214FF40B60FEF7FEFF81
:104F0800FB8803F00203002B02D0D9233B7301E096
:104F1800D8233B7307F10C031A46012140F23D7078
:104F2800FEF7ECFFFB8803F00403002B03D00120FD
:104F380000F080F802E0002000F07CF8FB8803F025
:104F48001003002B03D0012000F09BF802E00020A2
:104F580000F097F8FB8843F008039AB21C4B5A817B
:104F6800FDF780FA1A4B00229A73FB8803F040037E
:104F7800002B05D0164B9B7B0633DAB2144B9A7381
:104F8800FB8803F4C073002B05D0114B9B7B0633C1
:104F9800DAB20F4B9A73FB8803F01403002B05D089
:104FA8000B4B9B7B1033DAB2094B9A73FB8803F0E7
:104FB8000303002B05D0064B9B7B0433DAB2044B6A
:104FC8009A73002318461837BD4680BD09E3CA0204
:104FD8008801002080B588B000AF0346FB71FB79DB
:104FE800002B0FD0114A07F1140307CA03C31A7024
:104FF80007F114031A4609214FF49760FEF77EFF64
:1050080003460EE00A4A07F1080307CA03C31A70E9
:1050180007F108031A4609214FF49760FEF76EFF5F
:10502800034618462037BD4680BD00BFECAC0008DB
:10503800F8AC000880B584B000AF0346FB71FB797B
:10504800002B08D0C0233B73C2237B73C423BB73DC
:10505800C623FB7306E007F10C0304228B211846D4
:1050680005F08AF807F10C031A46042140F6982047
:10507800FEF744FFFDF7F6F9034618461037BD461C
:1050880080BD80B584B000AF0346FB71FB79002B6F
:1050980008D020233B7328237B733023BB7338232A
:1050A800FB7306E007F10C030422A321184605F060
:1050B80063F807F10C031A46042140F69E20FEF718
:1050C8001DFFFDF7CFF9034618461037BD4680BDD2
:1050D80080B483B000AF786039607B68002B1FDB39
:1050E8007B68032B1CDC3B68002B19DB3B68032B1C
:1050F80016DC10497B689A003B68134451F823304A
:10510800002B0DD10C4A7B689B001A443B68134462
:105118001B7883F00103DBB2002B01D0012300E0F0
:10512800002303F00103DBB218460C37BD4680BCF0
:10513800704700BF000200204002002080B586B002
:1051480000AF78603960364B1B687A689A4206D19E
:10515800344B1B683A689A4201D101235CE0324A19
:105168007B689B001A443B68134401221A70002391
:105178007B6145E02D4A7B6952F833307A681344E5
:105188003B612A4A7B69DB0013445B683A68134435
:10519800FB60F9683869FFF79BFF0346002B2CD0AA
:1051A80023493B699A00FB681344022241F82320F3
:1051B800204A7B69134419781F4A7B689B001A446C
:1051C8003B6813440A461A70F9683869FFF7B6FF56
:1051D8000346002B01D001231EE015493B699A00C4
:1051E800FB681344002241F82320134A3B699B00C3
:1051F8001A44FB6813444F221A707B6901337B61A0
:105208007B69032BB6DD084A7B689B001A443B6820
:10521800134400221A70002318461837BD4680BD73
:10522800580200205C020020400200208C00002070
:1052380000020020AC0000207800002080B483B079
:1052480000AF00237B6035E000233B602CE01E4A62
:105258007B689B001A443B6813444F221A701B4A10
:105268007B689B001A443B68134400221A70184953
:105278007B689A003B68134451F82330012B08D10E
:1052880014497B689A003B681344012241F82320A3
:1052980007E010497B689A003B681344002241F8F4
:1052A80023203B6801333B603B68032BCFDD7B68E1
:1052B80001337B607B68032BC6DD00BF00BF0C3762
:1052C800BD4680BC704700BF780000204002002027
:1052D800C00100200002002080B483B000AF00238A
:1052E8007B6016E000233B600DE00E497B689A0066
:1052F8003B68134451F82330002B01D100230CE004
:105308003B6801333B603B68032BEEDD7B68013370
:105318007B607B68032BE5DD012318460C37BD460F
:1053280080BC7047C001002080B483B000AF034642
:10533800FB71FB795E2B09D1234B1B78762B2CD084
:10534800762B39DC3C2B2AD03E2B35E0FB79762BAB
:1053580009D11D4B1B785E2B23D05E2B2CDC3C2BFC
:1053680021D03E2B28E0FB793C2B09D1164B1B782A
:10537800762B1AD0762B1FDC3E2B18D05E2B1BE029
:10538800FB793E2B18D1104B1B78762B11D0762B3E
:1053980012DC3C2B0FD05E2B0EE000BF0CE000BFF0
:1053A8000AE000BF08E000BF06E000BF04E000BF5D
:1053B80002E000BF00E000BF034AFB79137000BFA2
:1053C8000C37BD4680BC70478800002080B483B08D
:1053D80000AF7860396008497B689A003B681344DD
:1053E80051F82330012B01D1322300E06423184601
:1053F8000C37BD4680BC70473800002080B584B0AB
:1054080000AF71E0424B1A68424B1B684249920058
:105418000A4413441B781846FFF786FF3F4B1B7856
:10542800762B22D0762B28DC5E2B16D05E2B24DC44
:105438003C2B02D03E2B08D01FE0354B1B68FB608D
:10544800344B1B68013BBB6017E0314B1B68FB60AA
:10545800304B1B680133BB600FE02D4B1B68013BD1
:10546800FB602C4B1B68BB6007E0294B1B680133B2
:10547800FB60284B1B68BB6000BFB968F868FFF782
:10548800A5FF78607B684F2B14DC2549FB689A00E0
:10549800BB681344012241F82320FB68DBB29B0060
:1054A800DAB2BB68DBB21344DBB201211846FCF761
:1054B800B1FB28E01A49FB689A00BB681344022232
:1054C80041F82320FB68DBB29B00DAB2BB68DBB291
:1054D8001344DBB202211846FCF79CFB0C4AFB681C
:1054E80013600C4ABB681360094B1B689A00094B90
:1054F8001B681A440B4B1B6899000B4B1B680B4429
:105508009A427FF47FAF00BF1037BD4680BD00BF11
:10551800600200206402002078000020880000203B
:10552800C0010020580200205C02002080B586B02F
:1055380000AF03460A46FB711346BB71FB799B0813
:10554800DBB21A465B4B1A60FB7903F003035A4A35
:105558001360BB799B08DBB21A46584B1A60BB79BB
:1055680003F00303564A1360524B1B68524A1268F1
:105578001946544804F006FD504B1B68504A1268FF
:105588001946514804F0FEFC4A4B1A684A4B1B68FE
:105598004E4992001344022241F82320474B1A68CF
:1055A800474B1B68494992001344022241F82320C3
:1055B8004CE0FFF743FE0023FB7500233B6120E02E
:1055C800FB7D002B21D10023FB6014E03F493B69A0
:1055D8009A00FB68134451F82330002B08D1374A4E
:1055E8003B691360364AFB6813600123FB7505E0CD
:1055F800FB680133FB60FB68032BE7DD3B69013384
:105608003B613B69032BDBDD00E000BF294B1B68D6
:105618002F4A1360284B1B682E4A13602C4B1B68BB
:105628002C4A126811461846FFF788FD0346002BDE
:1056380002D0FFF7E3FE09E0204B1A68204B1B68F5
:10564800224992001344032241F82320FFF744FE25
:10565800034683F00103DBB2002BAAD1154B1B686C
:105668001B4A1360144B1B681A4A13601A4B1B68B9
:10567800002B00DA03339B101A46104B1A60164BA6
:105688001B685A4203F0030302F0030258BF534257
:105698000B4A1360FFF7D2FD0D4B1B680D4A1268C9
:1056A80011461846FFF74AFDFFF7A8FE00BF183756
:1056B800BD4680BD60020020640200205802002020
:1056C8005C02002038AD000848AD0008C001002089
:1056D80050020020540200206802002080B582B0E9
:1056E80000AF00F0E9FFFCF7CDFA00F0EDFA00F0AA
:1056F8009FFA00F083FB00F0ADFCFCF767FB00F0BD
:1057080045FA0021184802F047FE00F0B3FD00F00A
:10571800C7FD00237B60FBF70BFF78607B68002BDD
:10572800F9D101221149124803F0DBFD00F08AFD8E
:1057380003461846FCF736F8C82001F01FF8FBF7B7
:105748007BFF03463B603B68042B02D1FCF7ACFBB4
:10575800ECE73B68012BE9D100F074FD03461846DD
:10576800FCF720F8E2E700BF74030020980100204E
:10577800BC03002080B400AF72B600BF00BFFDE7D5
:1057880080B584B000AF164B9B69154A43F00103FE
:105798009361134B9B6903F00103BB60BB68104B1B
:1057A800DB690F4A43F08053D3610D4BDB6903F08B
:1057B80080537B607B68052001F0D0F8094B5B685B
:1057C800FB60FB6823F0E063FB60FB6843F0007359
:1057D800FB60044AFB68536000BF1037BD4680BDBC
:1057E800001002400000014080B400AF00BFFDE798
:1057F80080B400AF00BFFDE780B400AF00BFFDE795
:1058080080B400AF00BFFDE780B400AF00BFFDE784
:1058180080B400AF00BFBD4680BC704780B400AF05
:1058280000BFBD4680BC704780B400AF00BFBD4616
:1058380080BC704780B500AF00F084FF00BF80BD1A
:1058480080B500AF022001F0D1FB00BF80BD000091
:1058580080B500AF024802F059FE00BF80BD00BF0E
:105868002C03002080B500AF024803F05FFD00BFA5
:1058780080BD00BFBC03002080B582B000AF0346E6
:10588800FB800A2000F07AFFFB88022B27D14FF01B
:10589800804300225A62144802F0A8FC00BF02218B
:1058A800124801F073FB0346002BF8D10E4802F0B2
:1058B800F5FC4FF080435B6A1846FBF759F903463D
:1058C8000B491846FBF7A8F903464FF080411846E4
:1058D800FBF756FA03461A46064B1A6000E000BF6B
:1058E80000BF0837BD4680BDE4020020001001401B
:1058F80096430B3D0404002080B582B000AF786069
:105908007B681B68484A934240F08980474B1B7864
:10591800042B00F2848001A252F823F039590008C0
:105928006759000881590008C3590008055A00083A
:105938003F4B1B78AA2B0CD13D4B1A783D4B1A7064
:105948003A4B01221A70012239493B4803F0C9FC3D
:1059580065E001223649384803F0C3FC5FE0344B68
:105968001A78344B5A70314B02221A70012230498E
:10597800314803F0B6FC52E02D4B1A782D4B9A7043
:105988002C4B9B78002B0FD02A4B9B78202B0BD8C5
:10599800264B03221A70294B00221A70012224492F
:1059A800254803F09EFC3AE0204B00221A700122A1
:1059B8001F49214803F095FC31E0204B1B785A1C05
:1059C800D1B21E4A11701946194B1A78194B0B445B
:1059D800DA70184B9A78194B1B789A4208D8134BEF
:1059E80004221A7001221249134803F07AFC16E0C7
:1059F80001220F49104803F074FC10E00C4B1A7890
:105A08000C4B83F823200B48FBF75AFE074B002268
:105A18001A7001220649084803F063FC00BF00BF62
:105A28000837BD4680BD00BF004400406C0200201E
:105A38009801002070020020BC030020940200207E
:105A480080B586B000AFF860B9607A6000237B61EA
:105A58000AE0AFF300800146BB685A1CBA60CAB2BC
:105A68001A707B6901337B617A697B689A42F0DB43
:105A78007B6818461837BD4680BD80B586B000AF34
:105A8800F860B9607A6000237B6109E0BB685A1C42
:105A9800BA601B781846AFF300807B6901337B61DD
:105AA8007A697B689A42F1DB7B6818461837BD46ED
:105AB80080BD80B483B000AF78604FF0FF331846E4
:105AC8000C37BD4680BC704780B483B000AF7860A7
