:020000040800F2
:1000000000C00020DD1D0008651500086D15000802
:10001000751500087D150008851500080000000012
:100020000000000000000000000000008D15000826
:100030009915000800000000A5150008B11500087A
:10004000251E0008251E0008251E0008251E000884
:10005000251E0008251E0008251E0008BD150008E5
:10006000251E0008251E0008CB150008251E0008C7
:10007000251E0008251E0008251E0008251E000854
:10008000251E0008251E0008251E0008251E000844
:10009000251E0008251E0008251E0008D915000889
:1000A000251E0008251E0008251E0008251E000824
:1000B000251E0008251E0008E9150008251E000859
:1000C000251E0008251E0008251E0008251E000804
:1000D000251E0008251E0008FD150008251E000825
:1000E000251E0008251E0008251E0008251E0008E4
:1000F000251E0008251E0008251E0008251E0008D4
:10010000251E0008251E0008251E0008251E0008C3
:10011000251E0008251E0008251E0008251E0008B3
:10012000251E0008251E0008251E0008251E0008A3
:1001300000000000000000000000000000000000BF
:1001400000000000000000000000000000000000AF
:10015000000000000000000000000000000000009F
:10016000000000000000000000000000000000008F
:10017000000000000000000000000000000000007F
:10018000000000000000000000000000000000006F
:10019000000000000000000000000000000000005F
:1001A000000000000000000000000000000000004F
:1001B000000000000000000000000000000000003F
:1001C000000000000000000000000000000000002F
:1001D000000000000000000000000000000000001F
:0401E0005FF8E0F1F3
:1001E80010B5054C237833B9044B13B10448AFF369
:1001F80000800123237010BD1000002000000000C3
:10020800E050000808B5034B1BB103490348AFF39E
:10021800008008BD0000000014000020E050000825
:1002280081F0004102E000BF83F0004330B54FEA9F
:1002380041044FEA430594EA050F08BF90EA020F0C
:100248001FBF54EA000C55EA020C7FEA645C7FEA9F
:10025800655C00F0E2804FEA5454D4EB5555B8BFC2
:100268006D420CDD2C4480EA020281EA030382EA33
:10027800000083EA010180EA020281EA0303362DC5
:1002880088BF30BD11F0004F4FEA01314FF4801C98
:100298004CEA113102D0404261EB410113F0004FAA
:1002A8004FEA03334CEA133302D0524263EB430361
:1002B80094EA050F00F0A780A4F10104D5F1200EFF
:1002C8000DDB02FA0EFC22FA05F2801841F100015A
:1002D80003FA0EF2801843FA05F359410EE0A5F12E
:1002E80020050EF1200E012A03FA0EFC28BF4CF05F
:1002F800020C43FA05F3C01851EBE37101F0004515
:1003080007D54FF0000EDCF1000C7EEB00006EEB21
:100318000101B1F5801F1BD3B1F5001F0CD34908AB
:100328005FEA30004FEA3C0C04F101044FEA445202
:1003380012F5800F80F09A80BCF1004F08BF5FEA89
:10034800500C50F1000041EB045141EA050130BD69
:100358005FEA4C0C404141EB0101013C28BFB1F57B
:10036800801FE9D291F0000F04BF01460020B1FAC6
:1003780081F308BF2033A3F10B03B3F120020CDA99
:100388000C3208DD02F1140CC2F10C0201FA0CF077
:1003980021FA02F10CE002F11402D8BFC2F1200CDC
:1003A80001FA02F120FA0CFCDCBF41EA0C01904092
:1003B800E41AA2BF01EB0451294330BD6FEA0404DB
:1003C8001F3C1CDA0C340EDC04F11404C4F12002C6
:1003D80020FA04F001FA02F340EA030021FA04F3D8
:1003E80045EA030130BDC4F10C04C4F1200220FA2F
:1003F80002F001FA04F340EA0300294630BD21FA6D
:1004080004F0294630BD94F0000F83F4801306BF32
:1004180081F480110134013D4EE77FEA645C18BF26
:100428007FEA655C29D094EA050F08BF90EA020FBD
:1004380005D054EA000C04BF1946104630BD91EAB5
:10044800030F1EBF0021002030BD5FEA545C05D1B8
:100458004000494128BF41F0004130BD14F58004F7
:100468003CBF01F5801130BD01F0004545F0FE416B
:1004780041F470014FF0000030BD7FEA645C1ABFA0
:10048800194610467FEA655C1CBF0B46024650EAD7
:10049800013406BF52EA033591EA030F41F4002103
:1004A80030BD00BF90F0000F04BF0021704730B589
:1004B8004FF4806404F132044FF000054FF000015E
:1004C80050E700BF90F0000F04BF0021704730B51F
:1004D8004FF4806404F1320410F0004548BF4042F4
:1004E8004FF000013EE700BF42004FEAE2014FEA49
:1004F80031014FEA02701FBF12F07F4393F07F4F24
:1005080081F06051704732F07F4208BF704793F026
:100518007F4F04BF41F40021704730B54FF4607439
:1005280001F0004521F000411CE700BF50EA01023C
:1005380008BF704730B54FF000050AE050EA0102E5
:1005480008BF704730B511F0004502D5404261EB55
:1005580041014FF4806404F132045FEA915C3FF496
:10056800D8AE4FF003025FEADC0C18BF03325FEA33
:10057800DC0C18BF033202EBDC02C2F1200300FAE4
:1005880003FC20FA02F001FA03FE40EA0E0021FA09
:1005980002F11444BDE600BF70B54FF0FF0C4CF4F7
:1005A800E06C1CEA11541DBF1CEA135594EA0C0FA9
:1005B80095EA0C0F00F0DEF82C4481EA030621EAE4
:1005C8004C5123EA4C5350EA013518BF52EA03351F
:1005D80041F4801143F4801338D0A0FB02CE4FF0D1
:1005E8000005E1FB02E506F00042E0FB03E54FF001
:1005F8000006E1FB03569CF0000F18BF4EF0010EF9
:10060800A4F1FF04B6F5007F64F5407404D25FEAF4
:100618004E0E6D4146EB060642EAC62141EA5551A7
:100628004FEAC52040EA5E504FEACE2EB4F1FD0CE9
:1006380088BFBCF5E06F1ED8BEF1004F08BF5FEA67
:10064800500E50F1000041EB045170BD06F0004619
:1006580046EA010140EA020081EA0301B4EB5C04C6
:10066800C2BFD4EB0C0541EA045170BD41F48011BE
:100678004FF0000E013C00F3AB8014F1360FDEBFE3
:10068800002001F0004170BDC4F10004203C35DABF
:100698000C341BDC04F11404C4F1200500FA05F342
:1006A80020FA04F001FA05F240EA020001F00042E3
:1006B80021F0004110EBD37021FA04F642EB060159
:1006C8005EEA430E08BF20EAD37070BDC4F10C0483
:1006D800C4F1200500FA04F320FA05F001FA04F247
:1006E80040EA020001F0004110EBD37041F1000133
:1006F8005EEA430E08BF20EAD37070BDC4F120053E
:1007080000FA05F24EEA020E20FA04F301FA05F2A5
:1007180043EA020321FA04F001F0004121FA04F24D
:1007280020EA020000EBD3705EEA430E08BF20EA1D
:10073800D37070BD94F0000F0FD101F00046400057
:1007480041EB010111F4801F08BF013CF7D041EAD9
:10075800060195F0000F18BF704703F000465200DD
:1007680043EB030313F4801F08BF013DF7D043EAAE
:100778000603704794EA0C0F0CEA135518BF95EA64
:100788000C0F0CD050EA410618BF52EA4306D1D1EB
:1007980081EA030101F000414FF0000070BD50EA0A
:1007A800410606BF1046194652EA430619D094EA94
:1007B8000C0F02D150EA013613D195EA0C0F05D17E
:1007C80052EA03361CBF104619460AD181EA0301D2
:1007D80001F0004141F0FE4141F470014FF000008A
:1007E80070BD41F0FE4141F4780170BD70B54FF025
:1007F800FF0C4CF4E06C1CEA11541DBF1CEA1355A5
:1008080094EA0C0F95EA0C0F00F0A7F8A4EB050486
:1008180081EA030E52EA03354FEA013100F088807D
:100828004FEA03334FF0805545EA131343EA126346
:100838004FEA022245EA111545EA10654FEA0026FB
:100848000EF000419D4208BF964244F1FD0404F5B4
:10085800407402D25B084FEA3202B61A65EB030510
:100868005B084FEA32024FF480104FF4002CB6EBCD
:10087800020E75EB030E22BFB61A754640EA0C004D
:100888005B084FEA3202B6EB020E75EB030E22BF8D
:10089800B61A754640EA5C005B084FEA3202B6EBCE
:1008A800020E75EB030E22BFB61A754640EA9C008D
:1008B8005B084FEA3202B6EB020E75EB030E22BF5D
:1008C800B61A754640EADC0055EA060E18D04FEA1B
:1008D800051545EA16754FEA06164FEAC30343EABB
:1008E80052734FEAC2025FEA1C1CC0D111F4801F88
:1008F8000BD141EA00014FF000004FF0004CB6E781
:1009080011F4801F04BF01430020B4F1FD0C88BF1F
:10091800BCF5E06F3FF6AFAEB5EB030C04BFB6EB2A
:10092800020C5FEA500C50F1000041EB045170BD1D
:100938000EF0004E4EEA113114EB5C04C2BFD4EB4A
:100948000C0541EA045170BD41F480114FF0000ECE
:10095800013C90E645EA060E8DE60CEA135594EA4A
:100968000C0F08BF95EA0C0F3FF43BAF94EA0C0F4D
:100978000AD150EA01347FF434AF95EA0C0F7FF4C2
:1009880025AF104619462CE795EA0C0F06D152EA16
:1009980003353FF4FDAE1046194622E750EA4106FA
:1009A80018BF52EA43067FF4C5AE50EA41047FF40B
:1009B8000DAF52EA43057FF4EBAE12E74A0011D2BD
:1009C80012F5001211D20DD56FF47873B3EB6252A1
:1009D8000ED44FEAC12343F0004343EA505323FAAD
:1009E80002F070474FF00000704750EA013002D122
:1009F8004FF0FF3070474FF00000704780F0004024
:100A080002E000BF81F0004142001FBF5FEA4103DE
:100A180092EA030F7FEA226C7FEA236C6AD04FEADE
:100A28001262D2EB1363C1BFD21841404840414023
:100A3800B8BF5B42192B88BF704710F0004F40F4D5
:100A4800000020F07F4018BF404211F0004F41F4F1
:100A5800000121F07F4118BF494292EA030F3FD0BD
:100A6800A2F1010241FA03FC10EB0C00C3F12003D0
:100A780001FA03F100F0004302D5494260EB40005F
:100A8800B0F5000F13D3B0F1807F06D340084FEACA
:100A9800310102F10102FE2A51D2B1F1004F40EBBF
:100AA800C25008BF20F0010040EA03007047490027
:100AB80040EB0000013A28BFB0F5000FEDD2B0FAC4
:100AC80080FCACF1080CB2EB0C0200FA0CF0AABFE7
:100AD80000EBC25052421843BCBFD0401843704785
:100AE80092F0000F81F4000106BF80F4000001328B
:100AF800013BB5E74FEA41037FEA226C18BF7FEA62
:100B0800236C21D092EA030F04D092F0000F08BFA3
:100B18000846704790EA010F1CBF0020704712F08A
:100B28007F4F04D1400028BF40F00040704712F1C9
:100B380000723CBF00F50000704700F0004343F02E
:100B4800FE4040F4000070477FEA226216BF084664
:100B58007FEA23630146420206BF5FEA412390EA27
:100B6800010F40F4800070474FF0000304E000BF1D
:100B780010F0004348BF40425FEA000C08BF7047CE
:100B880043F0964301464FF000001CE050EA010292
:100B980008BF70474FF000030AE000BF50EA0102A7
:100BA80008BF704711F0004302D5404261EB410194
:100BB8005FEA010C02BF84460146002043F0B643B9
:100BC80008BFA3F18053A3F50003BCFA8CF2083ADE
:100BD800A3EBC25310DB01FA02FC634400FA02FCE7
:100BE800C2F12002BCF1004F20FA02F243EB0200EE
:100BF80008BF20F00100704702F1200201FA02FC50
:100C0800C2F1200250EA4C0021FA02F243EB020042
:100C180008BF20EADC7070474FF0FF0C1CEAD05286
:100C28001EBF1CEAD15392EA0C0F93EA0C0F6FD047
:100C38001A4480EA010C400218BF5FEA41211ED025
:100C48004FF0006343EA501043EA5111A0FB013111
:100C58000CF00040B1F5000F3EBF490041EAD371E6
:100C68005B0040EA010062F17F02FD2A1DD8B3F162
:100C7800004F40EBC25008BF20F00100704790F0D1
:100C8800000F0CF0004C08BF49024CEA502040EA23
:100C980051207F3AC2BFD2F1FF0340EAC2507047E9
:100CA80040F400004FF00003013A5DDC12F1190F27
:100CB800DCBF00F000407047C2F10002410021FA99
:100CC80002F1C2F1200200FA02FC5FEA310040F1B1
:100CD800000053EA4C0308BF20EADC70704792F02A
:100CE800000F00F0004C02BF400010F4000F013A62
:100CF800F9D040EA0C0093F0000F01F0004C02BF5D
:100D0800490011F4000F013BF9D041EA0C018FE7CB
:100D18000CEAD15392EA0C0F18BF93EA0C0F0AD0D1
:100D280030F0004C18BF31F0004CD8D180EA0100F7
:100D380000F00040704790F0000F17BF90F0004F90
:100D4800084691F0000F91F0004F14D092EA0C0F72
:100D580001D142020FD193EA0C0F03D14B0218BF05
:100D6800084608D180EA010000F0004040F0FE404B
:100D780040F40000704740F0FE4040F440007047E7
:100D88004FF0FF0C1CEAD0521EBF1CEAD15392EA66
:100D98000C0F93EA0C0F69D0A2EB030280EA010C56
:100DA80049024FEA402037D04FF0805343EA1111EF
:100DB80043EA10130CF000408B4238BF5B0042F14D
:100DC8007D024FF4000C8B4224BF5B1A40EA0C00F2
:100DD800B3EB510F24BFA3EB510340EA5C00B3EB24
:100DE800910F24BFA3EB910340EA9C00B3EBD10F12
:100DF80024BFA3EBD10340EADC001B0118BF5FEA64
:100E08001C1CE0D1FD2A3FF650AF8B4240EBC2508C
:100E180008BF20F0010070470CF0004C4CEA50204D
:100E28007F32C2BFD2F1FF0340EAC250704740F49C
:100E380000004FF00003013A37E792F0000F00F08E
:100E4800004C02BF400010F4000F013AF9D040EA0C
:100E58000C0093F0000F01F0004C02BF490011F4A0
:100E6800000F013BF9D041EA0C0195E70CEAD15398
:100E780092EA0C0F08D142027FF47DAF93EA0C0F7F
:100E88007FF470AF084676E793EA0C0F04D14B0263
:100E98003FF44CAF08466EE730F0004C18BF31F015
:100EA800004CCAD130F000427FF45CAF31F000430F
:100EB8007FF43CAF5FE700BF42000ED2B2F1FE4FB5
:100EC8000BD34FF09E03B3EB126209D44FEA002311
:100ED80043F0004323FA02F070474FF000007047D8
:100EE80012F1610F01D1420202D14FF0FF30704779
:100EF8004FF00000704700BF80B483B000AF0346D6
:100F0800FB71FB79042B02D8034AFB79137000BFED
:100F18000C37BD4680BC70470000002080B58CB0FF
:100F280000AF0346FB71AA233B7304237B730223A0
:100F3800BB730123FB73FB793B7407F10C03184661
:100F480000F06DF8034687F82F3007F10C031846B8
:100F580000F0A6F800BF3037BD4680BD80B582B02E
:100F680000AF7860786800F084F80346002B21D140
:100F78007B685B78052B10D0052B1DDC012B02D07C
:100F8800032B1BD018E0104B1B78012B18D17B6862
:100F9800DB78184600F0BCF812E07B68DB7818466E
:100FA800FFF7AAFF00F044F97B68DB781846FFF7E3
:100FB800B5FF06E000BF04E000BF02E000BF00E0AC
:100FC80000BF0837BD4680BD0000002080B58CB04A
:100FD80000AF7860AA233B7202237B720423BB72A2
:100FE8003B1DFB62FB6A1B78FB72FB6A5B783B73F9
:100FF800FB6A9B787B73FB6ADB78BB7307F108039A
:10100800184600F00CF8034687F82B3007F1080360
:10101800184600F045F800BF3037BD4680BD80B4A3
:1010280085B000AF78600023FB737B685A78FB7B40
:101038001344FB737B689A78FB7B1344FB73002390
:10104800BB600AE07A68BB68134403331A78FB7BF9
:101058001344FB73BB680133BB607B689B781A46FB
:10106800BB689342EEDBFB7B18461437BD4680BC59
:10107800704780B584B000AF78607868FFF7CFFF1D
:101088000346FB737B6893F82330FA7B9A4201D1BD
:10109800002301E04FF0FF3318461037BD4680BDEE
:1010A80080B58CB000AF78607B689B78043387F894
:1010B8002F307B681B783B727B685B787B727B6820
:1010C8009B78BB727B68D91C7B689B781A4607F1B2
:1010D80008030333184603F0F1FF7B689B7803335A
:1010E8007A6892F8232030333B4403F8282C97F889
:1010F8002F309AB207F10801C823044803F098F981
:10110800034618463037BD4680BD00BF5401002055
:1011180080B58CB000AF0346FB71AA233B73012353
:101128007B730123BB73FB79FB7307F10C03184630
:10113800FFF775FF034687F82F30FB79013B062B35
:1011480065D801A252F823F06D1100088511000836
:101158009D110008CD110008B5110008E51100081F
:10116800FD110008012201212E4801F0C8FC2E487B
:1011780000F00CFF642001F0A3F849E001220421EB
:101188002A4801F0BCFC284800F034FF642001F034
:1011980097F83DE001220121224801F0B0FC2248E5
:1011A80000F05CFF642001F08BF831E0012201219E
:1011B8001C4801F0A4FC1C4800F0B8FF642001F0B2
:1011C8007FF825E001220121164801F098FC164815
:1011D80000F078FF642001F073F819E0012204217F
:1011E800124801F08CFC104800F0D6FF642001F092
:1011F80067F80DE0002201210A4801F080FC002276
:1012080004210A4801F07BFC00F08EFE00E000BFDC
:1012180007F10C031846FFF743FF00BF3037BD4600
:1012280080BD00BF000C0140C40000200014014034
:1012380080B500AF00220121054801F060FC0022C2
:101248000421044801F05BFC00F06EFE00BF80BD85
:10125800000C01400014014080B588B000AF07F1D0
:10126800100300221A605A609A60DA604F4B9B693B
:101278004E4A43F0200393614C4B9B6903F02003D3
:10128800FB60FB68494B9B69484A43F01003936134
:10129800464B9B6903F01003BB60BB68434B9B69DB
:1012A800424A43F004039361404B9B6903F00403F3
:1012B8007B607B683D4B9B693C4A43F00803936124
:1012C8003A4B9B6903F008033B603B68002201210D
:1012D800374801F014FC00224FF20101354801F0B3
:1012E8000EFC00220421344801F009FC01233B6173
:1012F80001237B610223BB610323FB6107F1100318
:1013080019462B4801F050FA02233B612B4B7B61B5
:101318000023BB6107F110031946254801F044FA80
:1013280030233B61264B7B610123BB6107F110032E
:1013380019461F4801F038FA4FF201033B610123B7
:101348007B610023BB610223FB6107F1100319468F
:10135800184801F029FA04233B6101237B6100232B
:10136800BB610223FB6107F110031946124801F023
:101378001BFA00220121072001F09DF8072001F047
:10138800B6F8002201210A2001F095F80A2001F0A0
:10139800AEF800220121172001F08DF8172001F086
:1013A800A6F800BF2037BD4680BD00BF0010024030
:1013B80000100140000C0140001401400000111011
:1013C8000000211080B582B000AF00F017FF00F0D8
:1013D80045F8FFF741FF00F0CFFA00F081FA00F07E
:1013E80065FB00F07BFC0021174802F007F900F0CC
:1013F80085FD01221549164803F0A5F800220121B0
:10140800144801F07CFB00220421134801F077FB0B
:1014180000F08AFD00F05AFD03461846FFF74CFD20
:101428000346FB7100F052FD03461846FFF75CF8CF
:1014380002460B4610461946FFF7C8FD4FF4FA60FE
:1014480000F03EFF00BFD9E70C0100202C0000206F
:1014580054010020000C01400014014080B590B0F8
:1014680000AF07F1180328220021184603F0FAFDFF
:101478003B1D00221A605A609A60DA601A610123E3
:10148800BB614FF48033FB6100233B620123BB62E5
:1014980002237B634FF48033BB634FF4E013FB6399
:1014A80007F11803184601F073FB0346002B01D01F
:1014B80000F019F80F237B600223BB600023FB6058
:1014C8004FF480633B6100237B613B1D022118467A
:1014D80001F0E0FD0346002B01D000F004F800BF46
:1014E8004037BD4680BD80B400AF72B600BF00BFB4
:1014F800FDE7000080B584B000AF164B9B69154A24
:1015080043F001039361134B9B6903F00103BB6034
:10151800BB68104BDB690F4A43F08053D3610D4B16
:10152800DB6903F080537B607B68052000F0B8FF1F
:10153800094B5B68FB60FB6823F0E063FB60FB68BA
:1015480043F00073FB60044AFB68536000BF103728
:10155800BD4680BD001002400000014080B400AFCD
:1015680000BFFDE780B400AF00BFFDE780B400AF67
:1015780000BFFDE780B400AF00BFFDE780B400AF57
:1015880000BFFDE780B400AF00BFBD4680BC704718
:1015980080B400AF00BFBD4680BC704780B400AFC8
:1015A80000BFBD4680BC704780B500AF00F06CFE40
:1015B80000BF80BD80B500AF022001F0D1FA00BFA6
:1015C80080BD80B500AF102001F0CAFA00BF80BD11
:1015D80080B500AF202001F0C3FA00BF80BD000035
:1015E80080B500AF024802F0C3F800BF80BD00BF5D
:1015F800C400002080B500AF024802F0C9FF00BF58
:1016080080BD00BF5401002080B582B000AF034602
:10161800FB800A2000F054FEFB88013B1F2B00F2E0
:101628009F8001A252F823F0091700081917000833
:101638006917000869170008691700086917000882
:101648006917000869170008691700086917000872
:101658006917000869170008691700086917000862
:1016680069170008C11600086917000869170008FB
:101678006917000869170008691700086917000842
:101688006917000869170008691700086917000832
:101698006917000869170008691700086917000822
:1016A80069170008E1160008012201212F4801F0FE
:1016B80026FA2F4800F03AFD10212E4801F008FACA
:1016C8000346002BF0D04CE0012204212A4801F007
:1016D80016FA274800F060FD2021264801F0F8F9A5
:1016E8000346002BF0D03CE04FF4FA7000F0E8FD20
:1016F80001211E4801F01BFA04211F4801F017FAC6
:1017080001211E4801F0E4F90346012BECD028E042
:101718004FF0804300225A62194801F099FE00BF39
:101728000221144801F0D4F90346002BF8D11448DB
:1017380001F0E6FE4FF080435B6A1846FFF718FA9F
:10174800034610491846FFF767FA03464FF08041F1
:101758001846FFF715FB03461A460B4B1A6000E0C4
:1017680000BF00BF0837BD4680BD00BF000C014068
:10177800C40000200010014000140140000801408E
:101788007C00002096430B3D9C01002080B582B070
:1017980000AF78607B681B68484A934240F08980B4
:1017A800474B1B78042B00F2848001A252F823F0E7
:1017B800CD170008FB17000815180008571800086F
:1017C800991800083F4B1B78AA2B0CD13D4B1A786F
:1017D8003D4B1A703A4B01221A70012239493B4895
:1017E80002F0B1FE65E001223649384802F0ABFE4E
:1017F8005FE0344B1A78344B5A70314B02221A701E
:1018080001223049314802F09EFE52E02D4B1A78F1
:101818002D4B9A702C4B9B78002B0FD02A4B9B7822
:10182800202B0BD8264B03221A70294B00221A7042
:1018380001222449254802F086FE3AE0204B002286
:101848001A7001221F49214802F07DFE31E0204B29
:101858001B785A1CD1B21E4A11701946194B1A78B6
:10186800194B0B44DA70184B9A78194B1B789A422B
:1018780008D8134B04221A7001221249134802F0A7
:1018880062FE16E001220F49104802F05CFE10E0EB
:101898000C4B1A780C4B83F823200B48FFF75EFBA0
:1018A800074B00221A7001220649084802F04BFE35
:1018B80000BF00BF0837BD4680BD00BF00440040E0
:1018C800520000202C000020540000205401002069
:1018D8007800002080B400AF00BFBD4680BC7047D0
:1018E80080B586B000AF07F1080300221A605A607D
:1018F8009A60DA603B4600221A605A601D4B4FF02E
:1019080080421A601B4B47225A601A4B00229A6089
:10191800184B4FF6FF72DA60164B00221A61154B0E
:1019280080229A61134801F043FD0346002B01D041
:10193800FFF7D9FD4FF48053BB6007F10803194640
:101948000C4802F0C7F80346002B01D0FFF7CBFD87
:1019580000233B6000237B603B461946054802F0A4
:1019680099FC0346002B01D0FFF7BDFD00BF1837D7
:10197800BD4680BD7C00002080B58EB000AF07F169
:10198800280300221A605A609A60DA6007F120037F
:1019980000221A605A603B1D00221A605A609A6041
:1019A800DA601A615A619A613E4B3F4A1A603D4BB0
:1019B80000225A603B4B00229A603A4B41F61F4284
:1019C800DA60384B00221A61364B80229A6135481A
:1019D80001F0EEFC0346002B01D0FFF784FD4FF425
:1019E8008053BB6207F1280319462E4802F072F8AB
:1019F8000346002B01D0FFF776FD2A4801F0A6FD2B
:101A08000346002B01D0FFF76EFD00233B62002345
:101A18007B6207F120031946224802F03BFC03468B
:101A2800002B01D0FFF75FFD70237B600023BB60B4
:101A38000023FB6000237B613B1D002219461948E7
:101A480001F086FF0346002B01D0FFF74CFD3B1D3C
:101A580004221946134801F07BFF0346002B01D0EE
:101A6800FFF741FD60237B603B1D082219460D48A6
:101A780001F06EFF0346002B01D0FFF734FD3B1D3C
:101A88000C221946074801F063FF0346002B01D0DA
:101A9800FFF729FD034800F0CBF800BF3837BD46F3
:101AA80080BD00BFC40000200008004080B58EB093
:101AB80000AF07F1280300221A605A609A60DA60C2
:101AC80007F1200300221A605A603B1D00221A60A9
:101AD8005A609A60DA601A615A619A612C4B2D4AF1
:101AE8001A602B4B8F225A60294B00229A60284B90
:101AF80042F20F72DA60264B00221A61244B8022D0
:101B08009A61234801F054FC0346002B01D0FFF7EB
:101B1800EAFC4FF48053BB6207F1280319461C48BE
:101B280001F0D8FF0346002B01D0FFF7DCFC184872
:101B380001F00CFD0346002B01D0FFF7D4FC002375
:101B48003B6200237B6207F120031946104802F02C
:101B5800A1FB0346002B01D0FFF7C5FC60237B6087
:101B68000023BB600023FB6000237B613B1D002238
:101B78001946074801F0ECFE0346002B01D0FFF799
:101B8800B2FC034800F054F800BF3837BD4680BDAA
:101B98000C010020000C004080B586B000AF7860D2
:101BA8007B681B68B3F1804F0CD11E4BDB691D4A63
:101BB80043F00103D3611B4BDB6903F001037B6135
:101BC8007B692AE07B681B68174A934214D1154B3E
:101BD800DB69144A43F00403D361124BDB6903F059
:101BE80004033B613B69002201211E2000F063FCD5
:101BF8001E2000F07CFC10E07B681B680B4A9342B7
:101C08000BD1084BDB69074A43F00803D361054B46
:101C1800DB6903F00803FB60FB6800BF1837BD46AB
:101C280080BD00BF0010024000080040000C0040CA
:101C380080B588B000AF786007F1100300221A6001
:101C48005A609A60DA607B681B681F4A934219D110
:101C58001E4B9B691D4A43F0080393611B4B9B690C
:101C680003F00803FB60FB684FF470733B610223C9
:101C78007B610323FB6107F110031946144800F048
:101C880093FD1CE07B681B68124A934217D10F4BE7
:101C98009B690E4A43F0040393610C4B9B6903F064
:101CA8000403BB60BB6801233B6102237B61022301
:101CB800FB6107F110031946074800F075FD00BFE6
:101CC8002037BD4680BD00BF00080040001002401C
:101CD800000C0140000C00400008014080B500AF36
:101CE800114B124A1A60104B4FF416525A600E4BA1
:101CF80000229A600C4B0022DA600B4B00221A611A
:101D0800094B0C225A61084B00229A61064B0022AB
:101D1800DA61054802F03CFB0346002B01D0FFF7CF
:101D2800E2FB00BF80BD00BF54010020004400401A
:101D380080B588B000AF786007F1100300221A6000
:101D48005A609A60DA607B681B681F4A934237D1F1
:101D58001E4BDB691D4A43F40033D3611B4BDB691F
:101D680003F40033FB60FB68184B9B69174A43F088
:101D780004039361154B9B6903F00403BB60BB68C4
:101D880004233B6102237B610323FB6107F11003FA
:101D980019460F4800F008FD08233B6100237B61CA
:101DA8000023BB6107F110031946094800F0FCFC49
:101DB80000220121262000F07EFB262000F097FB60
:101DC80000BF2037BD4680BD0044004000100240DF
:101DD80000080140FFF77EFD0B480C490C4A002320
:101DE80002E0D458C4500433C4188C42F9D3094AC9
:101DF800094C002301E013600432A242FBD303F034
:101E080039F9FFF7DFFA70470000002010000020C2
:101E18002C51000810000020A4010020FEE700005B
:101E280090B583B000AF78607868FEF75DFB4FF03F
:101E38000002194BFEF7B0FB02460B461046194646
:101E48004FF00002154BFEF7D1FC02460B46104638
:101E580019460FA3D3E90023FEF7E8F902460B461B
:101E680010461946FEF7AAFD03469BB21846FEF730
:101E78007BFE03467B600A4C7868FFF71DF8034633
:101E8800636300BF0C37BD4690BD00BFAFF3008051
:101E98000000000000206F40000049400000224080
:101EA800000C004080B500AF01220121064800F077
:101EB80026FE012000F004FA00220121024800F069
:101EC8001EFE00BF80BD00BF0010014080B582B07B
:101ED80000AF0848FFF7A4FF642000F0F1F9FFF70E
:101EE800E1FF054B1B687B607B6818460837BD46D9
:101EF80080BD00BF0000AA429C01002080B500AF51
:101F08000021084801F07AFB0421064801F076FB1D
:101F18000821044801F072FB0C21024801F06EFB15
:101F280000BF80BDC400002080B500AF00224FF480
:101F38008051144800F0E3FD00224FF4005111488D
:101F480000F0DDFD00224FF480410E4800F0D7FD7F
:101F580000224FF400410B4800F0D1FD0A4B1B68EA
:101F68004FF4E1525A63084B1B684FF4E1529A63ED
:101F7800054B1B680022DA63034B1B6800221A64B6
:101F880000BF80BD000C0140C400002080B582B0B5
:101F980000AF786000224FF48051154800F0AFFD83
:101FA80000224FF40051124800F0A9FD00224FF41E
:101FB80080410F4800F0A3FD00224FF400410C4877
:101FC80000F09DFD7B681B6800225A637B681B68D4
:101FD80000229A637B681B684FF4E152DA637B68DE
:101FE8001B684FF4E1521A6400BF0837BD4680BD34
:101FF800000C014080B582B000AF786001224FF438
:102008008051154800F07BFD01224FF40051124821
:1020180000F075FD01224FF480410F4800F06FFD7C
:1020280001224FF400410C4800F069FD7B681B68F1
:102038004FF4E1525A637B681B684FF4E1529A638C
:102048007B681B680022DA637B681B6800221A64BD
:1020580000BF0837BD4680BD000C014080B582B086
:1020680000AF786001224FF48051154800F047FD19
:1020780000224FF40051124800F041FD00224FF4B5
:1020880080410F4800F03BFD01224FF400410C480D
:1020980000F035FD7B681B684FF4E1525A637B689A
:1020A8001B6800229A637B681B684FF4E152DA636D
:1020B8007B681B6800221A6400BF0837BD4680BDD4
:1020C800000C014080B582B000AF786000224FF468
:1020D8008051154800F013FD01224FF400511248B9
:1020E80000F00DFD01224FF480410F4800F007FD7C
:1020F80000224FF400410C4800F001FD7B681B688A
:1021080000225A637B681B684FF4E1529A637B682C
:102118001B680022DA637B681B684FF4E1521A647B
:1021280000BF0837BD4680BD000C014080B582B0B5
:1021380000AF786001224FF48051164800F0DFFCB0
:1021480001224FF40051134800F0D9FC00224FF44B
:102158008041104800F0D3FC00224FF400410D48A4
:1021680000F0CDFC7B681B684FF4E1525A637B6832
:102178001B684FF4E1529A637B681B684FF4E15285
:10218800DA637B681B684FF4E1521A6400BF0837B2
:10219800BD4680BD000C014080B582B000AF7860BC
:1021A80000224FF48051144800F0A9FC00224FF49B
:1021B8000051114800F0A3FC01224FF480410E4861
:1021C80000F09DFC01224FF400410B4800F097FC01
:1021D8007B681B6800225A637B681B6800229A632D
:1021E8007B681B680022DA637B681B6800221A641C
:1021F80000BF0837BD4680BD000C014080B500AF68
:10220800084B1B68074A43F010031360032000F0D3
:1022180047F9002000F008F8FFF76CF9002318468A
:1022280080BD00BF0020024080B582B000AF78605A
:10223800124B1A68124B1B7819464FF47A73B3FB8A
:10224800F1F3B2FBF3F3184600F05FF90346002BF5
:1022580001D001230EE07B680F2B0AD80022796891
:102268004FF0FF3000F027F9064A7B68136000231F
:1022780000E0012318460837BD4680BD0400002051
:102288000C0000200800002080B400AF054B1B782C
:102298001A46054B1B681344034A136000BFBD462A
:1022A80080BC70470C000020A001002080B400AF63
:1022B800024B1B681846BD4680BC7047A001002031
:1022C80080B584B000AF7860FFF7F0FFB8607B6836
:1022D800FB60FB68B3F1FF3F05D00A4B1B781A4639
:1022E800FB681344FB6000BFFFF7E0FF0246BB68D2
:1022F800D31AFA689A42F7D800BF00BF1037BD4614
:1023080080BD00BF0C00002080B485B000AF7860AD
:102318007B6803F00703FB600C4BDB68BB60BA68A3
:102328004FF6FF031340BB60FB681A02BB681343F8
:1023380043F0BF6343F40033BB60044ABB68D36017
:1023480000BF1437BD4680BC704700BF00ED00E0F9
:1023580080B400AF044BDB681B0A03F00703184680
:10236800BD4680BC704700BF00ED00E080B483B07C
:1023780000AF0346FB7197F90730002B0BDBFB79A5
:1023880003F01F02064997F907305B09012000FA9C
:1023980002F241F8232000BF0C37BD4680BC7047CD
:1023A80000E100E080B483B000AF03463960FB7100
:1023B80097F90730002B0ADB3B68DAB20C4997F92A
:1023C80007301201D2B20B4483F800230AE03B68BD
:1023D800DAB20849FB7903F00F03043B1201D2B2C9
:1023E8000B441A7600BF0C37BD4680BC704700BF4F
:1023F80000E100E000ED00E080B489B000AFF860D3
:10240800B9607A60FB6803F00703FB61FB69C3F1FD
:102418000703042B28BF0423BB61FB690433062B85
:1024280002D9FB69033B00E000237B614FF0FF32D8
:10243800BB6902FA03F3DA43BB681A407B699A4026
:102448004FF0FF317B6901FA03F3D9437B680B40F6
:10245800134318462437BD4680BC704780B582B008
:1024680000AF78607B68013BB3F1807F01D3012323
:102478000FE00A4A7B68013B53600F214FF0FF30A1
:10248800FFF790FF054B00229A60044B07221A6061
:10249800002318460837BD4680BD00BF10E000E0A5
:1024A80080B582B000AF78607868FFF72DFF00BF75
:1024B8000837BD4680BD80B586B000AF0346B96019
:1024C8007A60FB7300237B61FFF742FF78617A68CB
:1024D800B9687869FFF790FF024697F90F301146FF
:1024E8001846FFF75FFF00BF1837BD4680BD80B5AF
:1024F80082B000AF0346FB7197F907301846FFF723
:1025080035FF00BF0837BD4680BD80B582B000AF3B
:1025180078607868FFF7A2FF034618460837BD467B
:1025280080BD80B485B000AF78600023FB737B6802
:1025380093F82130DBB2022B08D07B6804229A631F
:102548007B68002283F82020012320E07B681B6839
:102558001A687B681B6822F00E021A607B681B6889
:102568001A687B681B6822F001021A607B681A6C83
:102578007B68DB6B012101FA02F25A607B68012259
:1025880083F821207B68002283F82020FB7B1846F3
:102598001437BD4680BC704780B584B000AF786002
:1025A8000023FB737B6893F82130DBB2022B05D044
:1025B8007B6804229A630123FB73D6E07B681B685F
:1025C8001A687B681B6822F00E021A607B681B6819
:1025D8001A687B681B6822F001021A607B681B6816
:1025E8001A46644B9A4258D97B681B68624A9342E0
:1025F8004FD07B681B68614A934248D07B681B6850
:102608005F4A934240D07B681B685E4A934238D049
:102618007B681B685C4A934230D07B681B685B4AC6
:10262800934228D07B681B68524A934220D07B682B
:102638001B68574A934219D07B681B68554A9342D6
:1026480012D07B681B68544A93420AD07B681B6887
:10265800524A934202D14FF480531BE04FF4803327
:1026680018E04FF4807315E0102313E0012311E004
:102678004FF080730EE04FF480130BE04FF480337B
:1026880008E04FF4805305E04FF4807302E0102314
:1026980000E00123424A536057E07B681B68364AD2
:1026A80093424FD07B681B68344A934248D07B687A
:1026B8001B68334A934240D07B681B68314A934277
:1026C80038D07B681B68304A934230D07B681B68DF
:1026D8002E4A934228D07B681B68264A934220D012
:1026E8007B681B682A4A934219D07B681B68294A71
:1026F800934212D07B681B68274A93420AD07B68B2
:102708001B68264A934202D14FF480531BE04FF4D2
:10271800803318E04FF4807315E0102313E0012391
:1027280011E04FF080730EE04FF480130BE04FF48C
:10273800803308E04FF4805305E04FF4807302E0E3
:10274800102300E00123174A53607B68012283F8B5
:1027580021207B68002283F820207B685B6B002B9C
:1027680003D07B685B6B78689847FB7B184610370B
:10277800BD4680BD80000240080002401C000240A7
:102788003000024044000240580002406C00024001
:10279800080402401C040240300402404404024081
:1027A800000402400000024080B48BB000AF7860A3
:1027B800396000237B6200233B6279E101227B6A56
:1027C80002FA03F3FB613B681B68FA691340BB61BB
:1027D800BA69FB699A4240F068813B685B68964A2F
:1027E80093425ED0944A934275D8944A934258D003
:1027F800924A93426FD8924A934252D0904A934257
:1028080069D8904A93424CD08E4A934263D88E4AF4
:10281800934246D08C4A93425DD8122B2AD8122B69
:1028280059D801A252F823F0AB28000885280008DF
:1028380097280008D9280008DF280008DF280008A2
:10284800DF280008DF280008DF280008DF28000844
:10285800DF280008DF280008DF280008DF28000834
:10286800DF280008DF280008DF2800088D28000876
:10287800A1280008754A934213D02CE03B68DB6816
:102888003B6229E03B68DB6804333B6224E03B6839
:10289800DB6808333B621FE03B68DB680C333B6254
:1028A8001AE03B689B68002B02D104233B6213E0CB
:1028B8003B689B68012B05D108233B627B68FA695A
:1028C8001A6109E008233B627B68FA695A6103E0F0
:1028D80000233B6200E000BFBB69FF2B01D87B6887
:1028E80001E07B6804337B61BB69FF2B02D87B6AFC
:1028F8009B0002E07B6A083B9B003B617B691A688E
:102908000F213B6901FA03F3DB431A40396A3B693B
:1029180001FA03F31A437B691A603B685B6803F0AA
:102928008053002B00F0C180494B9B69484A43F013
:1029380001039361464B9B6903F00103BB60BB68CD
:10294800444A7B6A9B08023352F82330FB607B6A57
:1029580003F003039B000F2202FA03F3DB43FA6838
:102968001340FB607B683C4A93421FD07B683B4A1C
:10297800934219D07B683A4A934213D07B68394A0C
:1029880093420DD07B68384A934207D07B68374A18
:10299800934201D105230AE0062308E0042306E058
:1029A800032304E0022302E0012300E000237A6A03
:1029B80002F0030292009340FA681343FB60254932
:1029C8007B6A9B080233FA6841F823203B685B68FE
:1029D80003F48013002B06D0254B9A682449BB6961
:1029E80013438B6006E0224B9A68BB69DB4320499E
:1029F80013408B603B685B6803F40013002B06D020
:102A08001B4BDA681A49BB691343CB6006E0184BC5
:102A1800DA68BB69DB4316491340CB603B685B68E7
:102A280003F40033002B25D0114B5A681049BB69B9
:102A380013434B6025E000BF000032100000311046
:102A480000002210000021100000121000001110D8
:102A5800001002400000014000080140000C014045
:102A6800001001400014014000180140001C014002
:102A780000040140154B5A68BB69DB4313491340F6
:102A88004B603B685B6803F48033002B06D00F4B28
:102A98001A680E49BB6913430B6006E00B4B1A68B2
:102AA800BB69DB43094913400B607B6A01337B62D6
:102AB8003B681A687B6A22FA03F3002B7FF47EAE28
:102AC80000BF00BF2C37BD4680BC704700040140E2
:102AD80080B485B000AF78600B467B807B689A68CD
:102AE8007B881340002B02D00123FB7301E00023F5
:102AF800FB73FB7B18461437BD4680BC704780B417
:102B080083B000AF78600B467B8013467B707B7880
:102B1800002B03D07A887B681A6103E07B881A044B
:102B28007B681A6100BF0C37BD4680BC704780B413
:102B380085B000AF78600B467B807B68DB68FB6004
:102B48007A88FB6813401A04FB68D9437B880B40DA
:102B58001A437B681A6100BF1437BD4680BC7047B2
:102B680080B582B000AF0346FB80084B5A69FB88EA
:102B78001340002B06D0054AFB885361FB88184692
:102B8800FEF742FD00BF0837BD4680BD0004014086
:102B980080B586B000AF78607B68002B01D1012337
:102BA80072E27B681B6803F00103002B00F087804A
:102BB800924B5B6803F00C03042B0CD08F4B5B68C3
:102BC80003F00C03082B12D18C4B5B6803F48033A1
:102BD800B3F5803F0BD1894B1B6803F40033002BFE
:102BE8006CD07B685B68002B68D101234CE27B6862
:102BF8005B68B3F5803F06D1804B1B687F4A43F47E
:102C0800803313602EE07B685B68002B0CD17B4B14
:102C18001B687A4A23F480331360784B1B68774A21
:102C280023F4802313601DE07B685B68B3F5A02F55
:102C38000CD1724B1B68714A43F4802313606F4BAD
:102C48001B686E4A43F4803313600BE06B4B1B68C0
:102C58006A4A23F480331360684B1B68674A23F47D
:102C6800802313607B685B68002B13D0FFF71EFB83
:102C7800386108E0FFF71AFB02463B69D31A642B58
:102C880001D9032300E25D4B1B6803F40033002BDA
:102C9800F0D014E0FFF70AFB386108E0FFF706FB05
:102CA80002463B69D31A642B01D90323ECE1534B49
:102CB8001B6803F40033002BF0D100E000BF7B68F1
:102CC8001B6803F00203002B63D04C4B5B6803F0D6
:102CD8000C03002B0BD0494B5B6803F00C03082B4B
:102CE8001CD1464B5B6803F48033002B16D1434B51
:102CF8001B6803F00203002B05D07B681B69012BBE
:102D080001D00123C0E13D4B1B6823F0F8027B682A
:102D18005B69DB00394913430B603AE07B681B6948
:102D2800002B20D0364B01221A60FFF7BFFA38611A
:102D380008E0FFF7BBFA02463B69D31A022B01D918
:102D48000323A1E12D4B1B6803F00203002BF0D0F5
:102D58002A4B1B6823F0F8027B685B69DB00274974
:102D680013430B6015E0264B00221A60FFF79EFA0A
:102D7800386108E0FFF79AFA02463B69D31A022B3A
:102D880001D9032380E11D4B1B6803F00203002BCC
:102D9800F0D17B681B6803F00803002B3AD07B68EE
:102DA8009B69002B19D0174B01221A60FFF77EFA96
:102DB800386108E0FFF77AFA02463B69D31A022B1A
:102DC80001D9032360E10D4B5B6A03F00203002B7A
:102DD800F0D0012000F0CEFA1CE00A4B00221A6065
:102DE800FFF764FA38610FE0FFF760FA02463B69C3
:102DF800D31A022B08D9032346E100BF0010024072
:102E08000000424280044242924B5B6A03F0020394
:102E1800002BE9D17B681B6803F00403002B00F04A
:102E2800A6800023FB758B4BDB6903F08053002BD6
:102E38000DD1884BDB69874A43F08053D361854BBA
:102E4800DB6903F08053BB60BB680123FB75824BD1
:102E58001B6803F48073002B18D17F4B1B687E4AD4
:102E680043F480731360FFF721FA386108E0FFF735
:102E78001DFA02463B69D31A642B01D9032303E1E7
:102E8800754B1B6803F48073002BF0D07B68DB68FC
:102E9800012B06D16F4B1B6A6E4A43F00103136284
:102EA8002DE07B68DB68002B0CD16A4B1B6A694AF2
:102EB80023F001031362674B1B6A664A23F004037D
:102EC80013621CE07B68DB68052B0CD1614B1B6A25
:102ED800604A43F0040313625E4B1B6A5D4A43F089
:102EE800010313620BE05B4B1B6A5A4A23F0010390
:102EF8001362584B1B6A574A23F0040313627B681A
:102F0800DB68002B15D0FFF7D1F938610AE0FFF72D
:102F1800CDF902463B69D31A41F28832934201D96E
:102F28000323B1E04B4B1B6A03F00203002BEED0E6
:102F380014E0FFF7BBF938610AE0FFF7B7F902467A
:102F48003B69D31A41F28832934201D903239BE0AB
:102F5800404B1B6A03F00203002BEED1FB7D012BD3
:102F680005D13C4BDB693B4A23F08053D3617B6836
:102F7800DB69002B00F08780364B5B6803F00C039D
:102F8800082B61D07B68DB69022B46D1334B0022CA
:102F98001A60FFF78BF9386108E0FFF787F90246F6
:102FA8003B69D31A022B01D903236DE0294B1B6817
:102FB80003F00073002BF0D17B681B6AB3F5803FE8
:102FC80008D1244B5B6823F400327B689B68214955
:102FD80013434B601F4B5B6823F474127B68196AB8
:102FE8007B685B6A0B431B4913434B601B4B0122F5
:102FF8001A60FFF75BF9386108E0FFF757F90246F6
:103008003B69D31A022B01D903233DE0114B1B68FE
:1030180003F00073002BF0D035E0104B00221A604B
:10302800FFF744F9386108E0FFF740F902463B69C9
:10303800D31A022B01D9032326E0064B1B6803F0A1
:103048000073002BF0D11EE07B68DB69012B07D1F0
:10305800012319E000100240007000406000424265
:103068000B4B5B68FB60FB6803F480327B681B6A70
:103078009A4206D1FB6803F470127B685B6A9A4235
:1030880001D0012300E0002318461837BD4680BD53
:103098000010024080B584B000AF786039607B686A
:1030A800002B01D10123D0E06A4B1B6803F0070312
:1030B8003A689A4210D9674B1B6823F007026549A2
:1030C8003B6813430B60634B1B6803F007033A68C4
:1030D8009A4201D00123B8E07B681B6803F0020321
:1030E800002B20D07B681B6803F00403002B05D05D
:1030F800594B5B68584A43F4E06353607B681B682C
:1031080003F00803002B05D0534B5B68524A43F485
:1031180060535360504B5B6823F0F0027B689B68F8
:103128004D4913434B607B681B6803F00103002B78
:1031380040D07B685B68012B07D1474B1B6803F4C1
:103148000033002B15D101237FE07B685B68022BDD
:1031580007D1414B1B6803F00073002B09D10123F1
:1031680073E03D4B1B6803F00203002B01D10123E0
:103178006BE0394B5B6823F003027B685B68364978
:1031880013434B60FFF792F8F8600AE0FFF78EF8F8
:103198000246FB68D31A41F28832934201D90323CD
:1031A80053E02D4B5B6803F00C027B685B689B0067
:1031B8009A42EBD1274B1B6803F007033A689A42FF
:1031C80010D2244B1B6823F0070222493B681343A3
:1031D8000B60204B1B6803F007033A689A4201D042
:1031E800012332E07B681B6803F00403002B08D03E
:1031F800194B5B6823F4E0627B68DB68164913436C
:103208004B607B681B6803F00803002B09D0124B46
:103218005B6823F460527B681B69DB000E4913432B
:103228004B6000F021F802460B4B5B681B0903F06A
:103238000F030A49CB5C22FA03F3094A1360094BCE
:103248001B681846FEF7F0FF002318461037BD46E6
:1032580080BD00BF0020024000100240F850000866
:10326800040000200800002080B487B000AF0023CD
:10327800FB600023BB6000237B6100237B6000238D
:103288003B611E4B5B68FB60FB6803F00C03042B7F
:1032980002D0082B03D027E0194B3B6127E0FB68DD
:1032A8009B0C03F00F03174AD35C7B60FB6803F4A5
:1032B8008033002B10D0114B5B685B0C03F00103CB
:1032C800114AD35CBB607B680D4A03FB02F2BB6802
:1032D800B2FBF3F37B6104E07B680C4A02FB03F367
:1032E8007B617B693B6102E0054B3B6100BF3B6949
:1032F80018461C37BD4680BC704700BF001002400E
:1033080000127A00105100082051000800093D0001
:1033180080B400AF024B1B681846BD4680BC70479E
:103328000400002080B500AFFFF7F2FF0246054B0E
:103338005B681B0A03F007030349CB5C22FA03F31B
:10334800184680BD001002400851000880B500AF43
:10335800FFF7DEFF0246054B5B68DB0A03F0070355
:103368000349CB5C22FA03F3184680BD00100240E3
:103378000851000880B485B000AF78600A4B1B681C
:103388000A4AA2FB03235B0A7A6802FB03F3FB6089
:1033980000BFFB685A1EFA60002BF9D100BF00BFBE
:1033A8001437BD4680BC704704000020D34D62101E
:1033B80080B582B000AF78607B68002B01D1012313
:1033C80041E07B6893F83D30DBB2002B06D17B6887
:1033D800002283F83C207868FEF7DEFB7B68022237
:1033E80083F83D207B681A687B68043319461046C9
:1033F80000F064FC7B68012283F846207B68012288
:1034080083F83E207B68012283F83F207B680122F5
:1034180083F840207B68012283F841207B680122E1
:1034280083F842207B68012283F843207B680122CD
:1034380083F844207B68012283F845207B680122B9
:1034480083F83D20002318460837BD4680BD00009C
:1034580080B485B000AF78607B6893F83D30DBB20C
:10346800012B01D001233CE07B68022283F83D2038
:103478007B681B681D4A934218D07B681B681C4AEE
:10348800934213D07B681B68B3F1804F0ED07B68E2
:103498001B68184A934209D07B681B68164A9342F6
:1034A80004D07B681B68154A934211D17B681B685E
:1034B8009B6803F00703FB60FB68062B10D07B6852
:1034C8001B681A687B681B6842F001021A6007E0F3
:1034D8007B681B681A687B681B6842F001021A60E7
:1034E800002318461437BD4680BC7047002C0140A5
:1034F800003401400004004000080040000C004077
:1035080080B483B000AF78607B681B681A6A41F2A8
:1035180011131340002B0FD17B681B681A6A40F205
:1035280044431340002B07D17B681B681A687B68EB
:103538001B6822F001021A607B68012283F83D2093
:10354800002318460C37BD4680BC704780B582B052
:1035580000AF78607B68002B01D1012341E07B68D4
:1035680093F83D30DBB2002B06D17B68002283F84C
:103578003C20786800F039F87B68022283F83D2007
:103588007B681A687B6804331946104600F096FB7E
:103598007B68012283F846207B68012283F83E205D
:1035A8007B68012283F83F207B68012283F8402052
:1035B8007B68012283F841207B68012283F842203E
:1035C8007B68012283F843207B68012283F844202A
:1035D8007B68012283F845207B68012283F83D201F
:1035E800002318460837BD4680BD80B483B000AFBD
:1035F800786000BF0C37BD4680BC704780B584B08A
:1036080000AF786039603B68002B09D17B6893F87C
:103618003E30DBB2012B14BF01230023DBB222E0D2
:103628003B68042B09D17B6893F83F30DBB2012B50
:1036380014BF01230023DBB215E03B68082B09D136
:103648007B6893F84030DBB2012B14BF01230023C1
:10365800DBB208E07B6893F84130DBB2012B14BF82
:1036680001230023DBB2002B01D0012372E03B6869
:10367800002B04D17B68022283F83E2013E03B68CC
:10368800042B04D17B68022283F83F200BE03B68BF
:10369800082B04D17B68022283F8402003E07B6872
:1036A800022283F841207B681B680122396818468A
:1036B80000F0CCFD7B681B68284A934204D07B68E5
:1036C8001B68274A934201D1012300E00023002B05
:1036D80007D07B681B685A6C7B681B6842F4004201
:1036E8005A647B681B681D4A934218D07B681B6824
:1036F8001B4A934213D07B681B68B3F1804F0ED0EE
:103708007B681B68174A934209D07B681B68164A76
:10371800934204D07B681B68144A934211D17B689A
:103728001B689B6803F00703FB60FB68062B10D03F
:103738007B681B681A687B681B6842F001021A6084
:1037480007E07B681B681A687B681B6842F0010207
:103758001A60002318461037BD4680BD002C014072
:10376800003401400004004000080040000C004004
:1037780080B584B000AF78607B681B68DB68FB604D
:103788007B681B681B69BB60BB6803F00203002BE6
:1037980020D0FB6803F00203002B1BD07B681B685A
:1037A8006FF002021A617B6801221A777B681B6836
:1037B8009B6903F00303002B03D0786800F063FAD9
:1037C80005E0786800F056FA786800F065FA7B68DA
:1037D80000221A77BB6803F00403002B20D0FB6893
:1037E80003F00403002B1BD07B681B686FF00402F6
:1037F8001A617B6802221A777B681B689B6903F44D
:103808004073002B03D0786800F03DFA05E0786833
:1038180000F030FA786800F03FFA7B6800221A77E7
:10382800BB6803F00803002B20D0FB6803F00803F3
:10383800002B1BD07B681B686FF008021A617B683D
:1038480004221A777B681B68DB6903F00303002BEB
:1038580003D0786800F017FA05E0786800F00AFAF3
:10386800786800F019FA7B6800221A77BB6803F0C1
:103878001003002B20D0FB6803F01003002B1BD093
:103888007B681B686FF010021A617B6808221A7740
:103898007B681B68DB6903F44073002B03D07868EE
:1038A80000F0F1F905E0786800F0E4F9786800F0D4
:1038B800F3F97B6800221A77BB6803F00103002B39
:1038C8000CD0FB6803F00103002B07D07B681B6852
:1038D8006FF001021A61786800F0C3F9BB6803F061
:1038E8008003002B0CD0FB6803F08003002B07D06B
:1038F8007B681B686FF080021A61786800F03FFDF2
:10390800BB6803F04003002B0CD0FB6803F04003B6
:10391800002B07D07B681B686FF040021A6178683B
:1039280000F0C3F9BB6803F02003002B0CD0FB6840
:1039380003F02003002B07D07B681B686FF0200280
:103948001A61786800F012FD00BF1037BD4680BDCF
:1039580080B586B000AFF860B9607A600023FB7567
:10396800FB6893F83C30012B01D10223AEE0FB68E1
:10397800012283F83C207B680C2B00F29F8001A277
:1039880052F823F0C1390008C53A0008C53A0008C2
:10399800C53A0008013A0008C53A0008C53A0008C7
:1039A800C53A0008433A0008C53A0008C53A000875
:1039B800C53A0008833A0008FB681B68B9681846CE
:1039C80000F002FAFB681B689A69FB681B6842F002
:1039D80008029A61FB681B689A69FB681B6822F0F9
:1039E80004029A61FB681B689969BB681A69FB68DD
:1039F8001B680A439A6164E0FB681B68B96818464B
:103A080000F052FAFB681B689A69FB681B6842F46D
:103A180000629A61FB681B689A69FB681B6822F45C
:103A280080629A61FB681B689969BB681B691A0206
:103A3800FB681B680A439A6143E0FB681B68B96826
:103A4800184600F0A5FAFB681B68DA69FB681B6872
:103A580042F00802DA61FB681B68DA69FB681B68D8
:103A680022F00402DA61FB681B68D969BB681A692D
:103A7800FB681B680A43DA6123E0FB681B68B968C6
:103A8800184600F0F9FAFB681B68DA69FB681B68DE
:103A980042F40062DA61FB681B68DA69FB681B683C
:103AA80022F48062DA61FB681B68D969BB681B690C
:103AB8001A02FB681B680A43DA6102E00123FB75FE
:103AC80000BFFB68002283F83C20FB7D18461837AE
:103AD800BD4680BD80B584B000AF786039600023F2
:103AE800FB737B6893F83C30012B01D10223B4E0CF
:103AF8007B68012283F83C207B68022283F83D2002
:103B08007B681B689B68BB60BB6823F07703BB605E
:103B1800BB6823F47F43BB607B681B68BA689A6004
:103B28003B681B68B3F5005F3ED0B3F5005F00F259
:103B38008780B3F5805F00F08680B3F5805F7FD81B
:103B4800702B1AD0702B7BD8602B50D0602B77D875
:103B5800502B3CD0502B73D8402B58D0402B6FD8CB
:103B6800302B64D0302B6BD8202B60D0202B67D81B
:103B7800002B5CD0102B5AD062E07B6818683B6839
:103B880099683B685A683B68DB6800F040FB7B68D3
:103B98001B689B68BB60BB6843F07703BB607B68AE
:103BA8001B68BA689A604FE07B6818683B68996838
:103BB8003B685A683B68DB6800F029FB7B681B6838
:103BC8009A687B681B6842F480429A603CE07B6894
:103BD80018683B6859683B68DB681A4600F0A0FA29
:103BE8007B681B685021184600F0F7FA2CE07B68C8
:103BF80018683B6859683B68DB681A4600F0BEFAEB
:103C08007B681B686021184600F0E7FA1CE07B68B7
:103C180018683B6859683B68DB681A4600F080FA08
:103C28007B681B684021184600F0D7FA0CE07B68D7
:103C38001A683B681B681946104600F0CEFA03E084
:103C48000123FB7300E000BF7B68012283F83D205D
:103C58007B68002283F83C20FB7B18461037BD4662
:103C680080BD80B483B000AF786000BF0C37BD461C
:103C780080BC704780B483B000AF786000BF0C3759
:103C8800BD4680BC704780B483B000AF786000BF89
:103C98000C37BD4680BC704780B483B000AF7860F5
:103CA80000BF0C37BD4680BC704780B483B000AFFE
:103CB800786000BF0C37BD4680BC704780B485B0C3
:103CC80000AF786039607B681B68FB607B68394AA5
:103CD800934213D07B68384A93420FD07B68B3F184
:103CE800804F0BD07B68354A934207D07B68344AB3
:103CF800934203D07B68334A934208D1FB6823F090
:103D08007003FB603B685B68FA681343FB607B6881
:103D1800284A934213D07B68274A93420FD07B6886
:103D2800B3F1804F0BD07B68244A934207D07B685D
:103D3800234A934203D07B68224A934208D1FB6806
:103D480023F44073FB603B68DB68FA681343FB604D
:103D5800FB6823F080023B685B691343FB607B6868
:103D6800FA681A603B689A687B68DA623B681A6886
:103D78007B689A627B680F4A934203D07B680E4A3D
:103D8800934203D13B681A697B681A637B680122F6
:103D98005A617B681B6903F00103002B05D07B681F
:103DA8001B6923F001027B681A6100BF1437BD4606
:103DB80080BC7047002C01400034014000040040E2
:103DC80000080040000C004080B487B000AF786065
:103DD80039607B681B6A7B617B681B6A23F0010280
:103DE8007B681A627B685B683B617B689B69FB60E8
:103DF800FB6823F07003FB60FB6823F00303FB60A0
:103E08003B681B68FA681343FB607B6923F0020375
:103E18007B613B689B687A6913437B617B68204AB6
:103E2800934203D07B681F4A93420CD17B6923F0ED
:103E380008037B613B68DB687A6913437B617B69B4
:103E480023F004037B617B68154A934203D07B68A7
:103E5800144A934211D13B6923F480733B613B6957
:103E680023F400733B613B685B693A6913433B6128
:103E78003B689B693A6913433B617B683A695A60BE
:103E88007B68FA689A613B685A687B685A637B6802
:103E98007A691A6200BF1C37BD4680BC704700BFF4
:103EA800002C01400034014080B487B000AF786036
:103EB80039607B681B6A7B617B681B6A23F0100290
:103EC8007B681A627B685B683B617B689B69FB6007
:103ED800FB6823F4E043FB60FB6823F44073FB605A
:103EE8003B681B681B02FA681343FB607B6923F07D
:103EF80020037B613B689B681B017A6913437B61E4
:103F08007B68214A934203D07B68204A93420DD1B3
:103F18007B6923F080037B613B68DB681B017A695E
:103F280013437B617B6923F040037B617B68164AFE
:103F3800934203D07B68154A934213D13B6923F41B
:103F480080633B613B6923F400633B613B685B69C9
:103F58009B003A6913433B613B689B699B003A6944
:103F680013433B617B683A695A607B68FA689A61D7
:103F78003B685A687B689A637B687A691A6200BFF3
:103F88001C37BD4680BC7047002C014000340140FE
:103F980080B487B000AF786039607B681B6A7B614A
:103FA8007B681B6A23F480727B681A627B685B6893
:103FB8003B617B68DB69FB60FB6823F07003FB6097
:103FC800FB6823F00303FB603B681B68FA68134334
:103FD800FB607B6923F400737B613B689B681B0271
:103FE8007A6913437B617B68214A934203D07B68DB
:103FF800204A93420DD17B6923F400637B613B68BF
:10400800DB681B027A6913437B617B6923F4806355
:104018007B617B68164A934203D07B68154A9342BA
:1040280013D13B6923F480533B613B6923F400536C
:104038003B613B685B691B013A6913433B613B6821
:104048009B691B013A6913433B617B683A695A6073
:104058007B68FA68DA613B685A687B68DA637B6870
:104068007A691A6200BF1C37BD4680BC704700BF22
:10407800002C01400034014080B487B000AF786064
:1040880039607B681B6A3B617B681B6A23F480523A
:104098007B681A627B685B687B617B68DB69FB60B5
:1040A800FB6823F4E043FB60FB6823F44073FB6088
:1040B8003B681B681B02FA681343FB603B6923F4E7
:1040C80000533B613B689B681B033A6913433B61A0
:1040D8007B68114A934203D07B68104A934209D106
:1040E8007B6923F480437B613B685B699B017A6948
:1040F80013437B617B687A695A607B68FA68DA6186
:104108003B685A687B681A647B683A691A6200BF20
:104118001C37BD4680BC7047002C0140003401406C
:1041280080B487B000AFF860B9607A60FB681B6A3A
:104138007B61FB681B6A23F00102FB681A62FB685B
:104148009B693B613B6923F0F0033B617B681B0182
:104158003A6913433B617B6923F00A037B617A69FF
:10416800BB6813437B61FB683A699A61FB687A69AB
:104178001A6200BF1C37BD4680BC704780B487B048
:1041880000AFF860B9607A60FB681B6A7B61FB6806
:104198001B6A23F01002FB681A62FB689B693B618B
:1041A8003B6923F470433B617B681B033A69134303
:1041B8003B617B6923F0A0037B61BB681B017A69C3
:1041C80013437B61FB683A699A61FB687A691A62F2
:1041D80000BF1C37BD4680BC704780B485B000AFB7
:1041E800786039607B689B68FB60FB6823F070032C
:1041F800FB603A68FB68134343F00703FB607B6886
:10420800FA689A6000BF1437BD4680BC704780B416
:1042180087B000AFF860B9607A603B60FB689B6864
:104228007B617B6923F47F437B613B681A027B686F
:104238001A43BB6813437A6913437B61FB687A6945
:104248009A6000BF1C37BD4680BC704780B487B0F9
:1042580000AFF860B9607A60BB6803F01F03012201
:1042680002FA03F37B61FB681A6A7B69DB431A4035
:10427800FB681A62FB681A6ABB6803F01F03796857
:1042880001FA03F31A43FB681A6200BF1C37BD46E4
:1042980080BC704780B485B000AF786039607B68B7
:1042A80093F83C30012B01D1022350E07B680122B6
:1042B80083F83C207B68022283F83D207B681B68DA
:1042C8005B68FB607B681B689B68BB60FB6823F0CE
:1042D8007003FB603B681B68FA681343FB607B68EC
:1042E8001B68FA685A607B681B681B4A934218D09F
:1042F8007B681B68194A934213D07B681B68B3F12B
:10430800804F0ED07B681B68154A934209D07B68A2
:104318001B68144A934204D07B681B68124A934274
:104328000CD1BB6823F08003BB603B685B68BA684C
:104338001343BB607B681B68BA689A607B6801227C
:1043480083F83D207B68002283F83C200023184630
:104358001437BD4680BC7047002C01400034014032
:104368000004004000080040000C004080B483B006
:1043780000AF786000BF0C37BD4680BC704780B482
:1043880083B000AF786000BF0C37BD4680BC704773
:1043980080B582B000AF78607B68002B01D1012323
:1043A80042E07B6893F84130DBB2002B06D17B6892
:1043B800002283F840207868FDF7BAFC7B68242245
:1043C80083F841207B681B68DA687B681B6822F4E5
:1043D8000052DA60786800F0B7FD7B681B681A69DC
:1043E8007B681B6822F490421A617B681B685A69D3
:1043F8007B681B6822F02A025A617B681B68DA68AE
:104408007B681B6842F40052DA607B6800225A64B9
:104418007B68202283F841207B68202283F8422091
:104428007B6800225A63002318460837BD4680BDC2
:1044380080B58AB002AFF860B9603B601346FB8074
:1044480000237B61FB6893F84130DBB2202B75D1E8
:10445800BB68002B02D0FB88002B01D101236EE042
:10446800FB6800225A64FB68212283F84120FDF78B
:104478001DFF7861FB68FA889A84FB68FA88DA84F9
:10448800FB689B68B3F5805F08D1FB681B69002B4C
:1044980004D10023FB61BB68BB6103E0BB68FB611F
:1044A8000023BB612EE03B6800937B6900228021DA
:1044B800F86800F01CFB0346002B05D0FB6820229F
:1044C80083F8412003233AE0FB69002B0BD1BB6939
:1044D8001B881A46FB681B68C2F308025A60BB694E
:1044E8000233BB6107E0FB691A78FB681B685A60F6
:1044F800FB690133FB61FB68DB8C9BB2013B9AB221
:10450800FB68DA84FB68DB8C9BB2002BCBD13B6861
:1045180000937B6900224021F86800F0E8FA03461E
:10452800002B05D0FB68202283F84120032306E0F6
:10453800FB68202283F84120002300E0022318466C
:104548002037BD4680BD80B584B000AFF860B96043
:104558001346FB80FB6893F84230DBB2202B12D164
:10456800BB68002B02D0FB88002B01D101230BE094
:10457800FB6800221A63FB881A46B968F86800F0DD
:104588000FFB034600E0022318461037BD4680BDE6
:1045980080B5BAB000AF78607B681B681B68C7F845
:1045A800E4307B681B68DB68C7F8E0307B681B6811
:1045B8005B69C7F8DC300023C7F8D8300023C7F898
:1045C800D430D7F8E43003F00F03C7F8D830D7F861
:1045D800D830002B0FD1D7F8E43003F02003002B9C
:1045E80009D0D7F8E03003F02003002B03D0786817
:1045F80000F0ECFB5BE2D7F8D830002B00F0DE804F
:10460800D7F8DC3003F00103002B06D1D7F8E030EF
:1046180003F49073002B00F0D180D7F8E43003F056
:104628000103002B0BD0D7F8E03003F48073002B84
:1046380005D07B685B6C43F001027B685A64D7F84D
:10464800E43003F00403002B0BD0D7F8DC3003F080
:104658000103002B05D07B685B6C43F002027B688A
:104668005A64D7F8E43003F00203002B0BD0D7F8D4
:10467800DC3003F00103002B05D07B685B6C43F052
:1046880004027B685A64D7F8E43003F00803002B6F
:1046980011D0D7F8E03003F02003002B05D1D7F86C
:1046A800DC3003F00103002B05D07B685B6C43F022
:1046B80008027B685A647B685B6C002B00F0F2810F
:1046C800D7F8E43003F02003002B08D0D7F8E03007
:1046D80003F02003002B02D0786800F077FB7B689A
:1046E8001B685B6903F04003002B14BF0123002300
:1046F800DBB2C7F8D4307B685B6C03F00803002B8F
:1047080003D1D7F8D430002B4FD0786800F081FA65
:104718007B681B685B6903F04003002B41D07B6812
:104728001B681433C7F89C30D7F89C3053E8003F17
:10473800C7F89830D7F8983023F04003C7F8D0303E
:104748007B681B681433D7F8D020C7F8A820C7F8AF
:10475800A430D7F8A410D7F8A82041E80023C7F858
:10476800A030D7F8A030002BD9D17B68DB6B002BA9
:1047780013D07B68DB6B7E4A5A637B68DB6B184619
:10478800FDF70AFF0346002B16D07B68DB6B5B6BDB
:104798007A68D26B104698470EE0786800F093F973
:1047A8000AE0786800F08FF906E0786800F08BF985
:1047B8007B6800225A6475E100BF73E17B681B6B5C
:1047C800012B40F04F81D7F8E43003F01003002BA1
:1047D80000F04881D7F8E03003F01003002B00F018
:1047E80041810023BB607B681B681B68BB607B68DA
:1047F8001B685B68BB60BB687B681B685B6903F010
:104808004003002B00F0B6807B68DB6B1B685B689D
:10481800A7F8BE30B7F8BE30002B00F045817B68A2
:104828009B8DB7F8BE209A4280F03E817B68B7F82E
:10483800BE20DA857B68DB6B9B69202B00F08880C3
:104848007B681B680C33C7F88830D7F8883053E882
:10485800003FC7F88430D7F8843023F48073C7F852
:10486800B8307B681B680C33D7F8B820C7F8942099
:10487800C7F89030D7F89010D7F8942041E8002373
:10488800C7F88C30D7F88C30002BD9D17B681B68DF
:1048980014337B677B6F53E8003F3B673B6F23F024
:1048A8000103C7F8B4307B681B681433D7F8B42009
:1048B800C7F88020FB67F96FD7F8802041E800230C
:1048C800BB67BB6F002BE1D17B681B6814333B6669
:1048D8003B6E53E8003FFB65FB6D23F04003C7F8D0
:1048E800B0307B681B681433D7F8B020FA66BB6613
:1048F800B96EFA6E41E800237B667B6E002BE3D12C
:104908007B68202283F842207B6800221A637B6838
:104918001B680C33FB64FB6C53E8003FBB64BB6C47
:1049280023F01003C7F8AC307B681B680C33D7F84A
:10493800AC20BA657B65796DBA6D41E800233B65AB
:104948003B6D002BE3D17B68DB6B1846FDF7E9FD77
:104958007B6802225A637B689A8D7B68DB8D9BB2E9
:10496800D31A9BB21946786800F0B6F89CE000BFED
:10497800DF4C00087B689A8D7B68DB8D9BB2D31A6D
:10498800A7F8CE307B68DB8D9BB2002B00F08E80C1
:10499800B7F8CE30002B00F089807B681B680C3399
:1049A800BB63BB6B53E8003F7B637B6B23F4907363
:1049B800C7F8C8307B681B680C33D7F8C8207A64FE
:1049C8003B64396C7A6C41E80023FB63FB6B002B7A
:1049D800E3D17B681B6814337B627B6A53E8003F32
:1049E8003B623B6A23F00103C7F8C4307B681B684D
:1049F8001433D7F8C4203A63FB62F96A3A6B41E88A
:104A08000023BB62BB6A002BE3D17B68202283F8BA
:104A180042207B6800221A637B681B680C333B6169
:104A28003B6953E8003FFB60FB6823F01003C7F8BD
:104A3800C0307B681B680C33D7F8C020FA61BB61B3
:104A4800B969FA6941E800237B617B69002BE3D1EE
:104A58007B6802225A63B7F8CE301946786800F0AE
:104A68003BF823E0D7F8E43003F08003002B09D0AB
:104A7800D7F8E03003F08003002B03D0786800F00B
:104A88003EF914E0D7F8E43003F04003002B0ED0D1
:104A9800D7F8E03003F04003002B08D0786800F026
:104AA8007DF904E000BF02E000BF00E000BFE83786
:104AB800BD4680BD80B483B000AF786000BF0C37BE
:104AC800BD4680BC704780B483B000AF786000BF3B
:104AD8000C37BD4680BC704780B483B000AF7860A7
:104AE8000B467B8000BF0C37BD4680BC704780B545
:104AF80086B000AFF860B9603B601346FB713BE0DD
:104B08003B6AB3F1FF3F37D0FDF7D0FB02463B6865
:104B1800D31A3A6A9A4202D33B6A002B01D1032383
:104B28003AE0FB681B68DB6803F00403002B23D022
:104B3800BB68802B20D0BB68402B1DD0FB681B684E
:104B48001B6803F00803082B16D100237B61FB6860
:104B58001B681B687B61FB681B685B687B617B6902
:104B6800F86800F056F8FB6808225A64FB680022CF
:104B780083F8402001230FE0FB681B681A68BB68B4
:104B88001340BA689A420CBF01230023DBB21A46CD
:104B9800FB799A42B4D0002318461837BD4680BD29
:104BA80080B485B000AFF860B9601346FB80FB683D
:104BB800BA689A62FB68FA889A85FB68FA88DA8587
:104BC800FB6800225A64FB68222283F84220FB68B3
:104BD8001B69002B07D0FB681B68DA68FB681B6839
:104BE80042F48072DA60FB681B685A69FB681B68CC
:104BF80042F001025A61FB681B68DA68FB681B68AF
:104C080042F02002DA60002318461437BD4680BC03
:104C1800704780B495B000AF78607B681B680C3330
:104C28007B637B6B53E8003F3B633B6B23F49073E0
:104C3800FB647B681B680C33FA6C3A64FB63F96BA2
:104C48003A6C41E80023BB63BB6B002BE5D17B6862
:104C58001B6814333B623B6A53E8003FFB61FB6906
:104C680023F00103BB647B681B681433BA6CFA62D7
:104C7800BB62B96AFA6A41E800237B627B6A002B4F
:104C8800E5D17B681B6B012B19D17B681B680C3342
:104C9800FB60FB6853E8003FBB60BB6823F0100370
:104CA8007B647B681B680C337A6CBA617B617969B9
:104CB800BA6941E800233B613B69002BE5D17B6879
:104CC800202283F842207B6800221A6300BF5437F1
:104CD800BD4680BC704780B584B000AF78607B6803
:104CE8005B6AFB60FB680022DA85FB680022DA84D5
:104CF800F868FFF7E8FE00BF1037BD4680BD80B4F6
:104D080085B000AF78607B6893F84130DBB2212B27
:104D18003ED17B689B68B3F5805F14D17B681B69C3
:104D2800002B10D17B681B6AFB60FB681B881A4646
:104D38007B681B68C2F308025A607B681B6A9A1C6E
:104D48007B681A6208E07B681B6A591C7A681162E2
:104D58001A787B681B685A607B68DB8C9BB2013BC6
:104D68009BB27A681946D184002B0FD17B681B68E7
:104D7800DA687B681B6822F08002DA607B681B684F
:104D8800DA687B681B6842F04002DA60002300E0C2
:104D9800022318461437BD4680BC704780B582B0E0
:104DA80000AF78607B681B68DA687B681B6822F054
:104DB8004002DA607B68202283F841207868FFF798
:104DC80079FE002318460837BD4680BD80B58CB0F3
:104DD80000AF78607B6893F84230DBB2222B40F05A
:104DE800AE807B689B68B3F5805F17D17B681B69D1
:104DF800002B13D10023FB627B689B6ABB627B6834
:104E08001B685B689BB2C3F308039AB2BB6A1A803B
:104E18007B689B6A9A1C7B689A6226E07B689B6A1F
:104E2800FB620023BB627B689B68B3F5805F07D099
:104E38007B689B68002B0AD17B681B69002B06D115
:104E48007B681B685B68DAB2FB6A1A7008E07B68EB
:104E58001B685B68DBB203F07F03DAB2FB6A1A7087
:104E68007B689B6A5A1C7B689A627B68DB8D9BB265
:104E7800013B9BB27A681946D185002B5DD17B68CE
:104E88001B68DA687B681B6822F02002DA607B689E
:104E98001B68DA687B681B6822F48072DA607B68BA
:104EA8001B685A697B681B6822F001025A617B689B
:104EB800202283F842207B6800225A637B681B6BA0
:104EC800012B35D17B6800221A637B681B680C3381
:104ED8007B617B6953E8003F3B613B6923F010032A
:104EE8007B627B681B680C337A6A3A62FB61F969FA
:104EF8003A6A41E80023BB61BB69002BE5D17B68B6
:104F08001B681B6803F01003102B0AD10023FB60F9
:104F18007B681B681B68FB607B681B685B68FB60C1
:104F2800FB687B689B8D19467868FFF7D5FD02E022
:104F38007868FCF72BFC002302E0002300E0022342
:104F480018463037BD4680BD80B584B000AF786064
:104F58007B681B681B6923F440517B68DA687B68AF
:104F68001B680A431A617B689A687B681B691A4345
:104F78007B685B691343BB607B681B68DB6823F451
:104F8800B05323F00C037A681268B9680B43D360F6
:104F98007B681B685B6923F440717B689A697B684E
:104FA8001B680A435A617B681B682C4A934203D1E9
:104FB800FEF7CCF9F86002E0FEF7B4F9F860FA6899
:104FC80013469B0013449A001A447B685B689B0055
:104FD800B2FBF3F3224AA2FB03235B091901FA6827
:104FE80013469B0013449A001A447B685B689B0035
:104FF800B2FBF3F21A4BA3FB02035B09642000FB2C
:1050080003F3D31A1B013233154AA2FB03235B09AE
:1050180003F0F0031944FA6813469B0013449A00FE
:105028001A447B685B689B00B2FBF3F20C4BA3FB52
:1050380002035B09642000FB03F3D31A1B0132331C
:10504800074AA2FB03235B0903F00F027B681B6876
:105058000A449A6000BF1037BD4680BD0038014041
:105068001F85EB5103460244934200D1704703F871
:10507800011BF9E770B500260C4D0D4C641BA410FC
:10508800A64209D100F028F800260A4D0A4C641BF4
:10509800A410A64205D170BD55F8043B98470136C7
:1050A800EEE755F8043B98470136F2E7245100082B
:1050B8002451000824510008285100080A4491424C
:1050C80000F1FF3300D1704710B511F8014B914240
:1050D80003F8014FF9D110BDF8B500BFF8BC08BC02
:1050E8009E467047F8B500BFF8BC08BC9E4670479E
:1050F8000000000000000000010203040607080980
:105108000000000001020304020304050607080961
:0C5118000A0B0C0D0E0F1010010200001D
:045124000D02000870
:04512800E901000891
:10512C000100000000127A001000000001000000D5
:0400000508001DDDF5
:00000001FF
