:020000040800F2
:1000000000C00020F5500008D1480008D948000879
:10001000E1480008E9480008F14800080000000035
:10002000000000000000000000000000F948000887
:100030000549000800000000114900081D4900089A
:100040003D5100083D5100083D5100083D51000858
:100050003D5100083D5100083D5100082949000864
:100060003D5100083D5100083D5100083D51000838
:100070003D5100083D5100083D5100083D51000828
:100080003D5100083D5100083D5100083D51000818
:100090003D5100083D5100083D5100083D51000808
:1000A0003D5100083D5100083D5100083D510008F8
:1000B0003D5100083D510008394900083D510008F4
:1000C0003D5100083D5100083D5100083D510008D8
:1000D0003D5100083D5100084D4900083D510008C0
:1000E0003D5100083D5100083D5100083D510008B8
:1000F0003D5100083D5100083D5100083D510008A8
:100100003D5100083D5100083D5100083D51000897
:100110003D5100083D5100083D5100083D51000887
:100120003D5100083D5100083D5100083D51000877
:1001300000000000000000000000000000000000BF
:1001400000000000000000000000000000000000AF
:10015000000000000000000000000000000000009F
:10016000000000000000000000000000000000008F
:10017000000000000000000000000000000000007F
:10018000000000000000000000000000000000006F
:10019000000000000000000000000000000000005F
:1001A000000000000000000000000000000000004F
:1001B000000000000000000000000000000000003F
:1001C000000000000000000000000000000000002F
:1001D000000000000000000000000000000000001F
:0401E0005FF8E0F1F3
:1001E40010B5054C237833B9044B13B10448AFF36D
:1001F40000800123237010BD440000200000000093
:10020400608D000808B5034B1BB103490348AFF3E5
:10021400008008BD0000000048000020608D000838
:1002240080F0004002E000BF81F0004142001FBFA7
:100234005FEA410392EA030F7FEA226C7FEA236CB0
:100244006AD04FEA1262D2EB1363C1BFD2184140A5
:1002540048404140B8BF5B42192B88BF704710F03B
:10026400004F40F4000020F07F4018BF404211F0DE
:10027400004F41F4000121F07F4118BF494292EA46
:10028400030F3FD0A2F1010241FA03FC10EB0C0072
:10029400C3F1200301FA03F100F0004302D54942FF
:1002A40060EB4000B0F5000F13D3B0F1807F06D3AC
:1002B40040084FEA310102F10102FE2A51D2B1F1A4
:1002C400004F40EBC25008BF20F0010040EA030099
:1002D4007047490040EB0000013A28BFB0F5000F19
:1002E400EDD2B0FA80FCACF1080CB2EB0C0200FACF
:1002F4000CF0AABF00EBC25052421843BCBFD0401E
:100304001843704792F0000F81F4000106BF80F497
:1003140000000132013BB5E74FEA41037FEA226C5A
:1003240018BF7FEA236C21D092EA030F04D092F025
:10033400000F08BF0846704790EA010F1CBF002059
:10034400704712F07F4F04D1400028BF40F00040B6
:10035400704712F100723CBF00F50000704700F0D6
:10036400004343F0FE4040F4000070477FEA2262FD
:1003740016BF08467FEA23630146420206BF5FEACE
:10038400412390EA010F40F4800070474FF00003CE
:1003940004E000BF10F0004348BF40425FEA000C95
:1003A40008BF704743F0964301464FF000001CE03D
:1003B40050EA010208BF70474FF000030AE000BF93
:1003C40050EA010208BF704711F0004302D54042D1
:1003D40061EB41015FEA010C02BF84460146002043
:1003E40043F0B64308BFA3F18053A3F50003BCFA5E
:1003F4008CF2083AA3EBC25310DB01FA02FC63440B
:1004040000FA02FCC2F12002BCF1004F20FA02F211
:1004140043EB020008BF20F00100704702F1200204
:1004240001FA02FCC2F1200250EA4C0021FA02F265
:1004340043EB020008BF20EADC7070474FF0FF0C6A
:100444001CEAD0521EBF1CEAD15392EA0C0F93EA65
:100454000C0F6FD01A4480EA010C400218BF5FEA07
:1004640041211ED04FF0006343EA501043EA51117A
:10047400A0FB01310CF00040B1F5000F3EBF490074
:1004840041EAD3715B0040EA010062F17F02FD2A78
:100494001DD8B3F1004F40EBC25008BF20F001005B
:1004A400704790F0000F0CF0004C08BF49024CEA72
:1004B400502040EA51207F3AC2BFD2F1FF0340EA04
:1004C400C250704740F400004FF00003013A5DDC75
:1004D40012F1190FDCBF00F000407047C2F10002B6
:1004E400410021FA02F1C2F1200200FA02FC5FEAA3
:1004F400310040F1000053EA4C0308BF20EADC70ED
:10050400704792F0000F00F0004C02BF400010F45E
:10051400000F013AF9D040EA0C0093F0000F01F00B
:10052400004C02BF490011F4000F013BF9D041EA2D
:100534000C018FE70CEAD15392EA0C0F18BF93EA2F
:100544000C0F0AD030F0004C18BF31F0004CD8D159
:1005540080EA010000F00040704790F0000F17BFE0
:1005640090F0004F084691F0000F91F0004F14D026
:1005740092EA0C0F01D142020FD193EA0C0F03D17E
:100584004B0218BF084608D180EA010000F0004081
:1005940040F0FE4040F40000704740F0FE4040F45C
:1005A400400070474FF0FF0C1CEAD0521EBF1CEAFB
:1005B400D15392EA0C0F93EA0C0F69D0A2EB030219
:1005C40080EA010C49024FEA402037D04FF08053B3
:1005D40043EA111143EA10130CF000408B4238BF78
:1005E4005B0042F17D024FF4000C8B4224BF5B1A86
:1005F40040EA0C00B3EB510F24BFA3EB510340EAD4
:100604005C00B3EB910F24BFA3EB910340EA9C0081
:10061400B3EBD10F24BFA3EBD10340EADC001B01F1
:1006240018BF5FEA1C1CE0D1FD2A3FF650AF8B4295
:1006340040EBC25008BF20F0010070470CF0004CA2
:100644004CEA50207F32C2BFD2F1FF0340EAC250CD
:10065400704740F400004FF00003013A37E792F08E
:10066400000F00F0004C02BF400010F4000F013AEC
:10067400F9D040EA0C0093F0000F01F0004C02BFE7
:10068400490011F4000F013BF9D041EA0C0195E750
:100694000CEAD15392EA0C0F08D142027FF47DAFE9
:1006A40093EA0C0F7FF470AF084676E793EA0C0FD9
:1006B40004D14B023FF44CAF08466EE730F0004CD7
:1006C40018BF31F0004CCAD130F000427FF45CAF67
:1006D40031F000437FF43CAF5FE700BF4FF0FF3CD5
:1006E40006E000BF4FF0010C02E000BF4FF0010C28
:1006F4004DF804CD4FEA40024FEA41037FEA226CF1
:1007040018BF7FEA236C11D001B052EA530C18BF12
:1007140090EA010F58BFB2EB030088BFC81738BF77
:100724006FEAE17018BF40F0010070477FEA226C65
:1007340002D15FEA402C05D17FEA236CE4D15FEA61
:10074400412CE1D05DF8040B704700BF8446084695
:100754006146FFE70FB5FFF7C9FF002848BF10F156
:10076400000F0FBD4DF808EDFFF7F4FF0CBF01209B
:1007740000205DF808FB00BF4DF808EDFFF7EAFF25
:1007840034BF012000205DF808FB00BF4DF808EDE0
:10079400FFF7E0FF94BF012000205DF808FB00BFD5
:1007A4004DF808EDFFF7D2FF94BF012000205DF85B
:1007B40008FB00BF4DF808EDFFF7C8FF34BF012068
:1007C40000205DF808FB00BF4FEA4002B2F1FE4F83
:1007D4000FD34FF09E03B3EB12620DD94FEA0023FF
:1007E40043F0004310F0004F23FA02F018BF4042D8
:1007F40070474FF00000704712F1610F01D14202BF
:1008040005D110F0004008BF6FF0004070474FF072
:100814000000704742000ED2B2F1FE4F0BD34FF0EE
:100824009E03B3EB126209D44FEA002343F0004362
:1008340023FA02F070474FF00000704712F1610F85
:1008440001D1420202D14FF0FF3070474FF0000057
:10085400704700BF7BB972B90029BEBF00204FF0BA
:10086400004106E008BF00281CBF6FF000414FF0B4
:10087400FF3000F09BB9ADF1080C6DE904CE0029FE
:1008840009DB002B1ADB00F035F8DDF804E0DDE9C4
:10089400022304B07047404261EB4101002B1BDB93
:1008A40000F028F8DDF804E0DDE9022304B040425A
:1008B40061EB4101524263EB43037047524263EBE5
:1008C400430300F017F8DDF804E0DDE9022304B087
:1008D400404261EB41017047524263EB430300F035
:1008E40009F8DDF804E0DDE9022304B0524263EBC9
:1008F400430370472DE9F047089D0C46002B4ED169
:1009040094468C458646B2FA82F262D94AB1C2F163
:100914002003914020FA03F30CFA02FC194300FA75
:1009240002FE4FEA1C47B1FBF7F407FB14111FFA50
:100934008CF64FEA1E4343EA014304FB06F1994255
:100944000AD91CEB030304F1FF3080F010819942B3
:1009540040F20D81023C6344591AB1FBF7F007FBE6
:10096400101100FB06F61FFA8EF343EA01439E4280
:100974000AD91CEB030300F1FF3180F0FA809E4298
:1009840040F2F7806344023800219B1B40EA044094
:100994001DB1D3400022C5E90032BDE8F0878B4287
:1009A40005D90DB1C5E9000100210846F5E7B3FA00
:1009B40083F1002946D1A34202D39042C0F0EE80D5
:1009C400861A64EB03030120002DE6D0C5E9006319
:1009D400E3E7002A40F08F80A1EB0C0401214FEAE9
:1009E4001C481FFA8CF7B4FBF8F608FB164407FB07
:1009F40006F04FEA1E4343EA0443984208D91CEB2D
:100A0400030306F1FF3402D2984200F2CB8026465B
:100A14001C1AB4FBF8F008FB104400FB07F71FFA9C
:100A24008EF343EA04439F4208D91CEB030300F10D
:100A3400FF3402D29F4200F2AE802046DB1B40EA24
:100A44000640A5E7C1F120078B4022FA07FC4CEAD7
:100A5400030C24FA07F64FEA1C49B6FBF9F81FFA0F
:100A64008CFE09FB186620FA07F38C4000FA01FAA1
:100A740008FB0EF01C43230C43EA0643984202FA97
:100A840001F20AD91CEB030308F1FF3680F08180E0
:100A940098427ED9A8F1020863441E1AB6FBF9F302
:100AA40009FB136603FB0EFEA4B244EA0644A64502
:100AB40008D91CEB040403F1FF3066D2A64564D9BF
:100AC400023B644443EA0840A0FB0283A4EB0E0407
:100AD4009C42C6461E4650D34DD055B1BAEB0E03C8
:100AE40064EB060404FA07F7CB401F43CC40C5E986
:100AF4000074002151E70CFA02FCC2F12003D94032
:100B04004FEA1C4820FA03F300FA02FEB1FBF8F0A6
:100B140008FB101194401C431FFA8CF7230C43EA82
:100B2400014300FB07F1994208D91CEB030300F1D0
:100B3400FF362CD299422AD9023863445B1AB3FB9C
:100B4400F8F108FB1133A4B244EA034401FB07F3B0
:100B5400A34208D91CEB040401F1FF3613D2A342CB
:100B640011D902396444E41A41EA00413BE70446DE
:100B7400F2E6084608E7C245AFD2B8EB020E63EBD3
:100B84000C060138A9E73146EDE703469AE73046FB
:100B9400D4E7B04681E7634402384FE7064623466C
:100BA400084611E7023E634432E700BF704700BFC6
:100BB40080B485B000AF78607B6893F90030002B77
:100BC40002DD0023FB812DE07B6893F90030002BCC
:100BD40002DA0423FB8125E07B68013393F90030BA
:100BE400002B02DD0123FB811CE07B68013393F9B8
:100BF4000030002B02DA0523FB8113E07B6802330B
:100C040093F90030002B02DD0223FB810AE07B68AC
:100C1400023393F90030002B02DA0623FB8101E052
:100C24000723FB81FB8918461437BD4680BC7047F7
:100C340080B584B000AF78607868FFF7B9FF0346E9
:100C4400FB817B6803331846FFF7B2FF0346DB00E2
:100C54001AB2B7F90E3013431BB2FB817B6806331B
:100C64001846FFF7A5FF03469B011AB2B7F90E30E9
:100C740013431BB2FB81FB8918461037BD4680BD68
:100C840080B58AB000AF07F10C0207F118031146D2
:100C9400184602F0F1FB78627B6A032B53D107F10B
:100CA4000803184601F040FBBB691846FFF772FBC6
:100CB4000246BB6819461046FFF7C0FB03461846B8
:100CC400FFF782FD0346BB61FB691846FFF762FB31
:100CD4000246BB6819461046FFF7B0FB03461846A8
:100CE400FFF772FD0346FB613B6A1846FFF752FBB0
:100CF4000246BB6819461046FFF7A0FB0346184698
:100D0400FFF762FD03463B6207F11803184602F041
:100D14003DFFBB1D184601F03FFBFB68FA8802FB50
:100D240003F3FB603B69FA8802FB03F33B617B69D5
:100D3400FA8802FB03F37B6107F10C03184603F006
:100D44002FF8002301E04FF0FF3318462837BD4643
:100D540080BD000080B582B000AF3B46184600F06D
:100D640055FD78607B68002B02D04FF0FF335DE0C7
:100D7400782001F0B1FB78607B68002B02D06FF023
:100D8400010353E0782001F055FB78607B68002B69
:100D940002D06FF0020349E0642001F053FA786056
:100DA4007B68002B02D06FF003033FE002F0F2FDFA
:100DB40078607B68002B02D06FF0040336E01D4896
:100DC400FFF736FF0346184602F0F4FD78607B68AF
:100DD400002B02D06FF0050328E040F2731003F0FB
:100DE40063FB78607B68002B02D06FF006031DE084
:100DF400642003F0DBF878607B68002B02D06FF08E
:100E0400070313E0FFF73CFF78607B68002B02D0F8
:100E14006FF008030AE0012002F056FD78607B6859
:100E2400002B02D06FF0090300E0002318460837B6
:100E3400BD4680BD0000002080B483B000AF0346EF
:100E4400FB71FB79042B02D8034AFB79137000BFB2
:100E54000C37BD4680BC70470900002080B58CB0BB
:100E640000AF0346FB71AA233B7304237B73022365
:100E7400BB730123FB73FB793B7407F10C03184626
:100E840000F06EF8034687F82F3007F10C0318467C
:100E940000F0A8F800BF3037BD4680BD80B58AB0E9
:100EA40000AFAA233B7104237B710123BB7102238E
:100EB400FB713B1D184600F053F8034687F82730B2
:100EC4003B1D184600F08EF800BF2837BD4680BD94
:100ED40080B582B000AF7860786800F06BF80346A4
:100EE400002B31D17B685B78052B20D0052B2DDCC2
:100EF400012B02D0032B0AD028E0184B1B78012BBE
:100F040026D17B68DB78184600F0A4F820E0134B68
:100F14001B78022B1ED17B68D8787B68191D7B68EF
:100F24009B78013BDBB21A4600F024F912E07B689F
:100F3400DB781846FFF780FF00F022FA7B68DB7845
:100F44001846FFF78BFF06E000BF04E000BF02E095
:100F540000BF00E000BF0837BD4680BD0900002087
:100F640080B485B000AF78600023FB737B685A7847
:100F7400FB7B1344FB737B689A78FB7B1344FB7302
:100F84000023BB600AE07A68BB68134403331A7811
:100F9400FB7B1344FB73BB680133BB607B689B78AA
:100FA4001A46BB689342EEDBFB7B18461437BD46FA
:100FB40080BC704780B584B000AF78607868FFF774
:100FC400CFFF0346FB737B6893F82330FA7B9A4286
:100FD40001D1002301E04FF0FF3318461037BD461E
:100FE40080BD000080B58CB000AF78607B689B78D2
:100FF400043387F82F307B681B783B727B685B78FF
:101004007B727B689B78BB727B68D91C7B689B78FE
:101014001A4607F108030333184607F091FE7B686C
:101024009B7803337A6892F8232030333B4403F8E7
:10103400282C97F82F309AB207F10801C8230448E6
:1010440007F028F8034618463037BD4680BD00BF78
:101054003402002080B58CB000AF0346FB71AA2394
:101064003B7301237B730123BB73FB79FB7307F190
:101074000C031846FFF774FF034687F82F30FB79FB
:10108400013B062B65D801A252F823F0AD100008ED
:10109400C5100008DD1000080D110008F510000847
:1010A400251100083D110008012201212E4804F0F9
:1010B400E8FE2E4804F08AF8322004F0C3FA49E02E
:1010C400012204212A4804F0DCFE284804F0B2F886
:1010D400322004F0B7FA3DE001220121224804F055
:1010E400D0FE224804F0DAF8322004F0ABFA31E002
:1010F400012201211C4804F0C4FE1C4804F036F906
:10110400322004F09FFA25E001220121164804F060
:10111400B8FE164804F0F6F8322004F093FA19E009
:1011240001220421124804F0ACFE104804F054F9E2
:10113400322004F087FA0DE0002201210A4804F06D
:10114400A0FE002204210A4804F09BFE04F00CF8DF
:1011540000E000BF07F10C031846FFF743FF00BF90
:101164003037BD4680BD00BF000C0140A401002003
:101174000014014080B596B000AF03463960FB719E
:101184001346BB71AA233B7303237B73BB790133DF
:10119400DBB2BB73FB79FB73BA7907F10C0304333D
:1011A4003968184607F0CCFD07F10C031846FFF721
:1011B400D7FE034687F82F30FB79022B40F0DA8004
:1011C4003B685B7887F83F30BB79013B3A6813444E
:1011D4001B7887F83E30BB795B0887F83D3097F879
:1011E4003D30012B02D8FFF759FEC4E0FFF756FE4D
:1011F40001237B6597F83F2097F83E309A4201D946
:1012040000237B6500233B65ACE03B6D5B001A4625
:101214003B6813441B7887F83C303B6D5B0001331B
:101224003A6813441B7887F83B303B6D01335B000D
:101234001A463B6813441B7887F83A303B6D0133F8
:101244005B0001333A6813441B7887F8393097F808
:101254003A2097F83C30D31A7B6397F8392097F8F3
:101264003B30D31A3B633B6B002B1ADD0023FB643A
:1012740012E07B6D002B03D0404803F0A7FF02E08F
:101284003E4803F0D7FF4FF42F7004F0DBF903F06E
:101294006BFFFB6C0133FB64FA6C3B6B9A42E8DB3B
:1012A4001DE03B6B002B1ADA0023BB6412E07B6D5C
:1012B400002B03D0314803F0BDFF02E02F4803F0B8
:1012C40085FF4FF42F7004F0BDF903F04DFFBB6CA4
:1012D4000133BB643B6B5B42BA6C9A42E7DB7B6BCA
:1012E400002B1ADD00237B6412E07B6D002B03D0FE
:1012F400224804F007F802E0204803F0CFFF4FF43F
:101304002F7004F09FF903F02FFF7B6C01337B6493
:101314007A6C7B6B9A42E8DB1DE07B6B002B1ADA5C
:1013240000233B6412E07B6D002B03D0134803F0D1
:10133400B5FF02E0114803F0E5FF4FF42F7004F00D
:1013440081F903F011FF3B6C01333B647B6B5B421F
:101354003A6C9A42E7DB4FF47A7004F073F93B6D10
:1013640001333B6597F83D30013B3A6D9A42FFF6F5
:101374004CAF00E000BF5837BD4680BDA40100203B
:1013840080B500AF00220121054804F07AFD002257
:101394000421044804F075FD03F0E6FE00BF80BD9F
:1013A400000C01400014014080B588B000AF07F183
:1013B400100300221A605A609A60DA60474B9B69F6
:1013C400464A43F010039361444B9B6903F01003B6
:1013D400FB60FB68414B9B69404A43F020039361E7
:1013E4003E4B9B6903F02003BB60BB683B4B9B698E
:1013F4003A4A43F004039361384B9B6903F00403B6
:101404007B607B68354B9B69344A43F008039361E6
:10141400324B9B6903F008033B603B6800220121C7
:101424002F4804F02EFD00224FF470412D4804F0A3
:1014340028FD002204212C4804F023FD4FF46053BE
:101444003B6100237B610123BB6107F11003194653
:10145400234804F06BFB01233B6101237B610223DE
:10146400BB610323FB6107F1100319461C4804F018
:101474005DFB02233B611D4B7B610023BB6107F1D4
:1014840010031946164804F051FB4FF470433B61B6
:1014940001237B610023BB610223FB6107F110037D
:1014A4001946104804F042FB04233B6101237B618D
:1014B4000023BB610223FB6107F1100319460A48AC
:1014C40004F034FB00220121072004F0B6F90720C0
:1014D40004F0CFF900BF2037BD4680BD00100240A4
:1014E40000100140000C01400014014000001110E4
:1014F40080B500AF124B134A1A60114B124A5A605E
:101504000F4B00229A600E4B0022DA600C4B4FF412
:1015140080421A610A4B00225A61094B00229A61E7
:10152400074B0022DA61064B00221A62044804F0D9
:10153400D9FC0346002B01D003F08EF900BF80BD17
:101544006000002000580040A086010080B588B0EB
:1015540000AF786007F1100300221A605A609A60A5
:10156400DA607B681B68164A934224D1154B9B6949
:10157400144A43F008039361124B9B6903F0080378
:10158400FB60FB684FF440633B6112237B610323E0
:10159400FB6107F1100319460B4804F0C7FA094B25
:1015A400DB69084A43F48003D361064BDB6903F427
:1015B4008003BB60BB6800BF2037BD4680BD00BF51
:1015C4000058004000100240000C014080B500AFFC
:1015D4004FF40061534804F03DFC0346002B12D144
:1015E4004FF400514F4804F035FC0346002B0AD158
:1015F4004FF480514B4804F02DFC0346012B02D1DB
:10160400494803F01BFF4FF40061464804F022FCF4
:101614000346002B1DD14FF40051424804F01AFC3C
:101624000346002B15D14FF480513E4804F012FCC0
:101634000346002B0DD13D4B1B78522B02D13A4867
:1016440003F068FF394B1B784C2B02D1364803F06A
:101654002BFF4FF40061334804F0FCFB0346012BDD
:101664000AD14FF400512F4804F0F4FB0346012B38
:1016740002D12D4803F0E2FE4FF40061294804F042
:10168400E9FB0346012B21D14FF40051254804F016
:10169400E1FB0346002B19D14FF48051214804F09B
:1016A400D9FB0346012B06D1204B4C221A701E484D
:1016B40003F0C4FE0AE04FF480511A4804F0CAFB58
:1016C4000346002B02D1184803F0EEFE4FF40061EC
:1016D400144804F0BFFB0346002B21D14FF4005102
:1016E400104804F0B7FB0346012B19D14FF4805185
:1016F4000C4804F0AFFB0346012B06D10B4B5222DE
:101704001A70094803F09AFE0AE04FF48051054824
:1017140004F0A0FB0346002B02D1034803F0FAFEB9
:1017240000BF80BD00100140A4010020EA00002099
:1017340080B588B004AF0346FB71324B93F8243074
:10174400002B25D0FB79002B02D00223FB7301E090
:101754000023FB732B4B5B681B781946294B1B68D2
:101764005B7C1A464FF4807302930123019307F1C3
:101774000F0300930123244804F0F8FC0346002BD4
:1017840002D04FF0FF3339E0FA7B1E4B5A7434E039
:101794001C4B9B7A002B02D14FF0FF332EE0FB79D8
:1017A400002B05D0174B5B7C002B01D0002325E0D8
:1017B400FB79002B02D00123FB7301E00023FB73B0
:1017C400104B5B681B7819460E4B1B685B7C1A46F2
:1017D4004FF4807302930123019307F10F030093E5
:1017E4000123094804F0C2FC0346002B02D04FF049
:1017F400FF3303E0FA7B034B5A7400231846103777
:10180400BD4680BD0C0000206000002080B588B07B
:1018140004AF786080233B72904B5B681B78194659
:101824008E4B1B685B7D1A464FF480730293012331
:10183400019307F1080300930123894804F096FCFF
:101844000346002B02D04FF0FF3302E1642003F083
:10185400F9FE00233B72814B5B681B7819467F4B72
:101864001B685B7D1A464FF4807302930123019336
:1018740007F1080300930123794804F077FC034639
:10188400002B02D04FF0FF33E3E0744B5B681B780E
:101894001946724B1B685B7E1A464FF480730293A1
:1018A4000623019307F10803009301236C4804F015
:1018B40057FD0346002B02D04FF0FF33C9E07B7B7A
:1018C4009B005BB203F004035AB2FB7A5B005BB289
:1018D40003F002035BB213435AB27B7A5BB203F0A8
:1018E40001035BB213435BB2FB73FB7B002B10D091
:1018F400FB7B012B03D1594B0122DA7437E0FB7BCC
:10190400022B03D1554B0022DA7430E04FF0FF3341
:101914009FE0524B5B681B781946504B1B68DB7881
:101924001A464FF4807302930123019307F10803CD
:10193400009301234A4804F013FD0346002B02D010
:101944004FF0FF3385E03B7A03F00F03FB73FB7B1F
:10195400002B02D14FF0FF337BE0FB7B042B03D140
:101964003E4B0122DA7402E03C4B0022DA743B4B1A
:10197400FF229A72394BFF221A72384BFF225A7295
:10198400364BFF22DA72354B4FF6FF72DA81334B56
:10199400FF221A74314BFF229A74304B01221A73BE
:1019A4002E4B012283F822202C4B002283F8232083
:1019B4002A4B00225A75294B00221A750C22002149
:1019C400284807F091F9254B002283F82420234B63
:1019D400002283F82520214B0022DA844FF4FA6098
:1019E40000F076FA0346002B02D04FF0FF3330E0CC
:1019F400022000F007FB0346002B02D04FF0FF3318
:101A040027E02A2000F0ACFB0346002B02D04FF065
:101A1400FF331EE0322000F015FC0346002B02D0F9
:101A24004FF0FF3315E0002000F004FD0346002BC7
:101A340002D04FF0FF330CE0002000F0E7FD034636
:101A4400002B02D04FF0FF3303E0002000F044FDF0
:101A5400002318461037BD4680BD00BF0C0000208F
:101A6400600000202200002080B588B004AF034647
:101A7400FB71FB79282B02D94FF0FF337CE0FB7913
:101A8400002B25D1002000F0BFFE00233B73072369
:101A94007B733B4B5B681B781946394B1B685B7D3A
:101AA4001A464FF4807302930223019307F10C0347
:101AB40000930123334804F059FB0346002B02D062
:101AC4004FF0FF3358E02E4B00221A75002353E0E9
:101AD400012000F099FE20233B73FB79012B05D1F3
:101AE40000237B73052000F03BFB16E0FB79052BFC
:101AF40005D801237B73052000F032FB0DE0FB7950
:101B0400142B05D802237B730A2000F029FB04E080
:101B140003237B73142000F023FB7B7B9B015BB2CC
:101B240043F007035BB2DBB27B73154B5B681B7836
:101B34001946134B1B685B7D1A464FF4807302935E
:101B44000223019307F10C03009301230D4804F0D1
:101B54000DFB0346002B02D04FF0FF330CE0084B83
:101B640008229A72064B00221A73054B01221A7539
:101B7400002000F05FFC002318461037BD4680BDEE
:101B84000C0000206000002080B586B004AFA24B9A
:101B94009B7A002B02D14FF0FF335BE10023FB71F2
:101BA4009D4B5B681B7819469B4B1B685B7C1A46F4
:101BB4004FF48073029301230193FB1D00930123CF
:101BC400964804F0D3FA0346002B02D04FF0FF33BB
:101BD40040E1914B5B681B7819468F4B1B685B791E
:101BE4001A464FF48073029301230193FB1D009363
:101BF40001238A4804F0BAFA0346002B02D04FF0BE
:101C0400FF3327E1844B5B681B781946824B1B68C2
:101C14001B791A464FF48073029301230193FB1D31
:101C2400009301237D4804F0A1FA0346002B02D05F
:101C34004FF0FF330EE1784B93F82430002B00F083
:101C440082800C23FB71744B5B681B781946724BC2
:101C54001B681B791A464FF4807302930123019386
:101C6400FB1D009301236D4804F080FA0346002B0A
:101C740002D04FF0FF33EDE0322003F0E3FCC02349
:101C8400FB71654B9B7A03F00103002B04D0FB79B5
:101C940043F02003DBB2FB715F4B5B681B78194692
:101CA4005D4B1B681B791A464FF480730293012322
:101CB4000193FB1D00930123584804F057FA03468F
:101CC400002B02D04FF0FF33C4E0534B5B7C002B5E
:101CD40002D00223FB7101E00023FB714E4B5B68D1
:101CE4001B7819464C4B1B685B7C1A464FF4807377
:101CF400029301230193FB1D00930123474804F041
:101D040035FA0346002B02D04FF0FF33A2E0002344
:101D1400FB71414B5B681B7819463F4B1B685B7931
:101D24001A464FF48073029301230193FB1D009321
:101D340001233A4804F01AFA0346002B00F0898084
:101D44004FF0FF3386E00423FB71334B5B681B7851
:101D54001946314B1B681B791A464FF48073029362
:101D640001230193FB1D009301232C4804F0FEF989
:101D74000346002B02D04FF0FF336BE0264B9B7CD5
:101D8400002B05D1244B9B7A03F00103002B02D1D5
:101D94004023FB7101E06023FB711F4B5B681B78E0
:101DA40019461D4B1B681B791A464FF48073029326
:101DB40001230193FB1D00930123184804F0D6F975
:101DC4000346002B02D04FF0FF3343E0322003F0F0
:101DD40039FC114B5B7C002B02D00123FB7101E029
:101DE4000023FB710C4B5B681B7819460A4B1B687C
:101DF4005B7C1A464FF48073029301230193FB1D0D
:101E040000930123054804F0B1F90346002B07D0E1
:101E14004FF0FF331EE000BF0C00002060000020E4
:101E24000E4B5B681B7819460C4B1B685B791A4692
:101E34004FF48073029301230193094B0093012310
:101E4400084804F093F90346002B02D04FF0FF3307
:101E540000E0002318460837BD4680BD0C00002072
:101E64001C0000206000002080B483B000AF7860C4
:101E7400164B1B7A032B1ED801A252F823F000BF85
:101E8400951E00089D1E0008A71E0008B11E00082C
:101E94007B68FA221A8012E07B684FF4FA721A8087
:101EA4000DE07B684FF47A721A8008E07B684FF487
:101EB400FA621A8003E07B6800221A8000BF0023C4
:101EC40018460C37BD4680BC704700BF0C0000208C
:101ED40080B588B004AF0346FB802B4B9B7A002B64
:101EE40002D14FF0FF334AE0FB88B3F5FA6F17D005
:101EF400B3F5FA6F17DCB3F57A7F0ED0B3F57A7FBA
:101F040011DCFA2B03D0B3F5FA7F03D00BE00023E6
:101F1400FB730BE00823FB7308E01023FB7305E05D
:101F24001823FB7302E04FF0FF3328E0164B1A7AB4
:101F3400FB7BDB08DBB29A4201D100231FE0124B8A
:101F44005B681B781946104B1B689B791A464FF443
:101F5400807302930123019307F10F03009301237C
:101F64000A4804F003F90346002B02D04FF0FF3374
:101F740005E0FB7BDB08DAB2034B1A720023184638
:101F84001037BD4680BD00BF0C000020600000205B
:101F940080B483B000AF7860194B5B7A032B1BD8F5
:101FA40001A252F823F000BFBD1F0008C51F00089E
:101FB400CD1F0008D51F00087B6802221A700EE0AE
:101FC4007B6804221A700AE07B6808221A7006E013
:101FD4007B6810221A7002E04FF0FF330AE0084BCE
:101FE400DB7C002B05D07B681B785B00DAB27B6856
:101FF4001A70002318460C37BD4680BC704700BFDA
:102004000C00002080B588B004AF0346FB71344B4C
:102014009B7A002B02D14FF0FF335DE0FB79023B4A
:102024000E2B2DD801A252F823F000BF6D2000081A
:1020340085200008732000088520000885200008FA
:1020440085200008792000088520000885200008E4
:1020540085200008852000088520000885200008C8
:10206400852000087F2000080023FB730BE0082371
:10207400FB7308E01023FB7305E01823FB7302E0F5
:102084004FF0FF3328E0164B5A7AFB7BDB08DBB2B8
:102094009A4201D100231FE0114B5B681B7819465B
:1020A4000F4B1B68DB791A464FF4807302930123AC
:1020B400019307F10F03009301230A4804F056F833
:1020C4000346002B02D04FF0FF3305E0FB7BDB0817
:1020D400DAB2034B5A72002318461037BD4680BD4E
:1020E4000C0000206000002080B483B000AF786052
:1020F4001A4BDB7A013B052B26D801A252F823F0B8
:102104001D210008252100082D2100083521000883
:102114003D210008452100087B68BC221A8017E095
:102124007B6862221A8013E07B682A221A800FE0FF
:102134007B6814221A800BE07B680A221A8007E06D
:102144007B6805221A8003E07B6800221A8000BFA6
:10215400002318460C37BD4680BC70470C00002095
:1021640080B588B004AF0346FB80284B9B7A002BD4
:1021740002D14FF0FF3344E0FB88BB2B02D901238B
:10218400FB7319E0FB88612B02D90223FB7313E074
:10219400FB88292B02D90323FB730DE0FB88132B47
:1021A40002D90423FB7307E0FB88092B02D905231A
:1021B400FB7301E00623FB73144BDA7AFB7B9A4230
:1021C40001D100231DE0114B5B681B7819460F4BAE
:1021D4001B689B781A464FF4807302930123019382
:1021E40007F10F0300930123094803F0BFFF0346DF
:1021F400002B02D04FF0FF3303E0FA7B034BDA727B
:10220400002318461037BD4680BD00BF0C000020D7
:102214006000002080B483B000AF7860084B93F86E
:102224002430002B02D04FF0FF3304E0044BDA8952
:102234007B681A80002318460C37BD4680BC704763
:102244000C00002080B588B004AF0346FB80344BFB
:102254009B7A002B02D14FF0FF335CE0304B93F8B4
:102264002430002B02D04FF0FF3354E02C4B1B7D65
:10227400002B0FD0FB88002B09D0FB88282B06D815
:10228400FB88DBB21846FFF7EFFB002343E0002096
:10229400FFF7EAFBFB88032B02D80423FB8006E04C
:1022A400FB88B3F57A7F02D94FF47A73FB80FB88FD
:1022B4004FF47A7292FBF3F3DBB2013BDBB2FB73B4
:1022C400174B5B681B781946154B1B685B781A46DD
:1022D4004FF4807302930123019307F10F030093DA
:1022E4000123104803F042FF0346002B02D04FF0B5
:1022F400FF3310E0FB7B01334FF47A7292FBF3F36C
:102304009AB2074BDA81064BDB895B089BB218460D
:10231400FFF726FF002318461037BD4680BD00BFD7
:102324000C0000206000002080B483B000AF78600F
:10233400144B1B7A032B1BD801A252F823F000BFC5
:10234400552300085D230008652300086D23000859
:102354007B680D4A1A600EE07B680C4A1A600AE03A
:102364007B680B4A1A6006E07B680A4A1A6002E03E
:102374004FF0FF3300E0002318460C37BD4680BC05
:10238400704700BF0C00002000000343000083429C
:10239400333303423333834180B483B000AF786076
:1023A4001B4B5B7A032B1FD801A252F823F000BF0A
:1023B400C5230008CF230008D9230008E32300081D
:1023C4007B684FF480421A8011E07B6841F69C726E
:1023D4001A800CE07B684FF480521A8007E07B6817
:1023E4004FF400621A8002E04FF0FF330AE0084B1A
:1023F400DB7C002B05D07B681B885B089AB27B686A
:102404001A80002318460C37BD4680BC704700BFB5
:102414000C00002080B483B000AF7860044B1A7CB9
:102424007B681A70002318460C37BD4680BC704781
:102434000C00002080B584B000AF0346FB7100237C
:10244400FB60FB7923F00103FB71224B93F82430EA
:10245400002B01D0002338E01E4B9B7A002B02D1C5
:102464004FF0FF3331E01B4B1B7CFB72194B9A7A04
:10247400FB791340DAB2174B1A74164B1B7CFA79AA
:102484009A4203D04FF0FF33FB6001E00023FB606E
:10249400FB79002B03D10F4B1B7D002B03D00120B4
:1024A400FFF746F902E00020FFF742F9FB79002B21
:1024B4000AD0FFF769FB0346002B05D0054AFB7AD7
:1024C40013744FF0FF3300E0FB6818461037BD4625
:1024D40080BD00BF0C00002080B588B004AF034667
:1024E400FB71FB7903F07003002B02D00123FB7313
:1024F40007E0FB79002B02D00023FB7301E04023AB
:10250400FB73404B5B681B7819463E4B1B685B7D35
:102514001A464FF4807302930123019307F10F03CA
:1025240000930123384803F021FE0346002B05D015
:10253400344B00229A724FF0FF335FE0FB7B23F0B1
:102544004003DAB22F4B1A730023FB73FB7903F0B9
:102554004003002B04D1FB7B43F00403DBB2FB7389
:10256400FB7903F02003002B04D1FB7B43F002032F
:10257400DBB2FB73FB7903F01003002B04D1FB7B6C
:1025840043F00103DBB2FB73FB7903F00803002B78
:1025940004D1FB7B43F03803DBB2FB73194B5B685C
:1025A4001B781946174B1B689B7D1A464FF48073A2
:1025B40002930123019307F10F03009301231248AF
:1025C40003F0D4FD0346002B05D00E4B00229A7273
:1025D4004FF0FF3312E0FB79002B05D0FB79082B79
:1025E40002D0002000F010F9064AFB799372054BE3
:1025F40000221A75322003F025F8002318461037FC
:10260400BD4680BD0C0000206000002080B588B06D
:1026140004AF0346FB717A4B9B7CFA799A4201D151
:102624000023E8E0FB79002B6BD0754B5B681B78CB
:102634001946734B1B681B791A464FF48073029337
:102644000123019307F10F03009301236D4803F065
:1026540087FE0346002B02D04FF0FF33CBE0FB7B19
:1026640023F02003DBB2FB73654B5B681B781946D0
:10267400634B1B681B791A464FF480730293012342
:10268400019307F10F03009301235E4803F06EFDED
:102694000346002B02D04FF0FF33ACE0032002F0DE
:1026A400D1FF0223FB73564B93F82230002B04D046
:1026B400FB7B63F07F03DBB2FB73514B93F8233056
:1026C400002B04D0FB7B43F03003DBB2FB734C4B99
:1026D4005B681B7819464A4B1B68DB7D1A464FF42E
:1026E400807302930123019307F10F0300930123E5
:1026F400444803F03BFD0346002B78D04FF0FF33F2
:1027040079E03F4B5B681B7819463D4B1B681B798E
:102714001A464FF4807302930123019307F10F03C8
:1027240000930123374803F01BFE0346002B02D01D
:102734004FF0FF335FE0324B9B7A03F00103002B31
:1027440005D0FB7B43F02003DBB2FB7304E0FB7B8F
:1027540023F02003DBB2FB73294B5B681B7819461B
:10276400274B1B681B791A464FF48073029301238D
:10277400019307F10F0300930123224803F0F6FCB1
:102784000346002B02D04FF0FF3334E0032002F065
:1027940059FF1B4B93F82230002B02D08023FB738C
:1027A40001E00023FB73164B93F82330002B04D075
:1027B400FB7B43F03003DBB2FB73114B5B681B788C
:1027C40019460F4B1B68DB7D1A464FF48073029346
:1027D4000123019307F10F0300930123094803F038
:1027E400C5FC0346002B02D04FF0FF3303E0044A3C
:1027F400FB799374002318461037BD4680BD00BF93
:102804000C0000206000002080B588B004AF0346AF
:10281400FB71234B93F82330FA799A4201D10023B8
:1028240039E0FB79002B02D03023FB7301E0002355
:10283400FB731B4B9B7C002B04D0FB7B43F00203FC
:10284400DBB2FB73164B93F82230002B04D0FB7BD6
:1028540063F07F03DBB2FB73114B5B681B78194693
:102864000F4B1B68DB7D1A464FF4807302930123E0
:10287400019307F10F03009301230A4803F076FC48
:102884000346002B02D04FF0FF3304E0044AFB79E7
:1028940082F82330002318461037BD4680BD00BFA0
:1028A4000C0000206000002090B58BB004AF78606D
:1028B400444B5B681B7819464FF4807302930423DE
:1028C400019307F11003009301230D223E4803F006
:1028D40047FD0346002B01D007236FE03B7CDB1050
:1028E4005BB203F01C035AB2FB7C1B115BB203F016
:1028F40003035BB213435BB2DBB23B737B7CDB1041
:102904005BB203F01C035AB2FB7C9B105BB203F076
:1029140003035BB213435BB2DBB27B73BB7CDB10A0
:102924005BB203F01C035AB2FB7C5BB203F00303FB
:102934005BB213435BB2DBB2BB730023FB7539E0BC
:10294400FB7D18333B4413F80C3C002B07D1FB7D73
:102954009B007A6813444FF000021A6027E0FB7D65
:102964009B007A681344194A1A600DE0FB7D9B00B2
:102974007A6813441868FB7D9B007A68D41814495C
:10298400FDF75CFD03462360FB7D03F118023A4426
:1029940012F80C2C013AD1B203F118023A4402F8AD
:1029A4000C1C18333B4413F80C3C002BDED1FB7D8C
:1029B4000133FB75FB7D022BC2D9002318461C375B
:1029C400BD4690BD0C000020600000207B14AE3E8C
:1029D4001D5A843F80B58AB000AF78603960002307
:1029E4003B6207F10C031846FFF75EFF00237B628E
:1029F40065E07B6A9B007A6813441A687B6A9B00D3
:102A040039680B441B68D31A002BB8BF5B421846C5
:102A1400FDF7C0FC03464FF08F411846FDF7C2FD99
:102A24000346FB617B6A9B0028333B4453F81C3C00
:102A34004FF000011846FDF795FE0346002B24D104
:102A44007B6A9B0028333B4453F81C3C1946F869C5
:102A5400FDF7A8FD03464FF07E511846FDF7E4FB51
:102A64000346BB61BB6923F00043194A114618466B
:102A7400FDF7A0FE0346002B1ED001227B6A02FA5A
:102A840003F33A6A13433B6216E0124B1946F869A2
:102A9400FDF772FE0346002B07D10F4B1946F86968
:102AA400FDF788FE0346002B06D001227B6A02FA5A
:102AB40003F33A6A13433B627B6A01337B627B6AAA
:102AC400022B96DD3B6A18462837BD4680BD00BF01
:102AD400295C0F3E9A99993E3333733F80B58CB08D
:102AE40004AF786039600023BB61584B5B681B7886
:102AF40019464FF4807302930323019307F10803EB
:102B0400009301230D22524803F02AFC0346002BB4
:102B140001D0072395E03B7A03F01F03DBB23B723D
:102B24007B7A03F01F03DBB27B72BB7A03F01F03D3
:102B3400DBB2BB720023FB617EE0FB699B007A6819
:102B440013441A68FB699B0039680B441B68D31A49
:102B5400002BB8BF5B421846FDF71CFC03464FF040
:102B64008F411846FDF71EFD03463B6107F108023D
:102B7400FB6913441B78002B44D083231846FDF7CC
:102B840005FC034619463348FDF70CFD03467B61FB
:102B940005E031497869FDF751FC03467B6107F193
:102BA4000802FB6913441B78013BD9B207F1080200
:102BB400FB6913440A461A7007F10802FB691344BF
:102BC4001B78002BE5D179693869FDF7EBFC0346E6
:102BD4004FF07E511846FDF727FB0346FB60FB6868
:102BE40023F000431D4A11461846FDF7E3FD034652
:102BF400002B1ED00122FB6902FA03F3BA691343C6
:102C0400BB6116E0164B19463869FDF7B5FD03465E
:102C1400002B07D1134B19463869FDF7CBFD03464A
:102C2400002B06D00122FB6902FA03F3BA691343AD
:102C3400BB61FB690133FB61FB69022B7FF77DAF4D
:102C4400BB6918462037BD4680BD00BF0C0000207C
:102C54006000002000B04C4554E3853F295C0F3EE2
:102C6400000020410000D2422DE9B04FBCB004AFB7
:102C7400C7F8B400C7F8B010134687F8AF30012383
:102C840087F8CC30002387F8CD30AB4B5B681B78DA
:102C94001946A94B1B685B7D1A464FF48073029357
:102CA4000223019307F1CC0300930123A34803F00B
:102CB4005DFA0346002B02D04FF0FF33D6E3C82061
:102CC40002F0C0FC002387F8CC309B4B5B681B7878
:102CD4001946994B1B685B7C1A464FF48073029328
:102CE4000123019307F1CC0300930123934803F0DC
:102CF4003DFA0346002B02D04FF0FF33B6E38E4B70
:102D04005B681B7819468C4B1B685B791A464FF439
:102D1400807302930123019307F1CC0300930123F1
:102D2400864803F023FA0346002B02D04FF0FF330A
:102D34009CE3814B5B681B7819467F4B1B685B7D6A
:102D44001A464FF4807302930123019307F1CC03D5
:102D540000930123794803F009FA0346002B02D0BB
:102D64004FF0FF3382E3744B5B681B781946724B58
:102D74001B689B7E1A464FF48073029301230193D0
:102D840007F1CC03009301236C4803F0EFF90346E9
:102D9400002B02D04FF0FF3368E3674B5B681B786E
:102DA4001946654B1B681B791A464FF480730293CE
:102DB4000123019307F1CC03009301235F4803F03F
:102DC400D5F90346002B02D04FF0FF334EE30C231A
:102DD40087F8CC30584B5B681B781946564B1B68F8
:102DE4001B791A464FF4807302930123019307F170
:102DF400CC0300930123514803F0B8F90346002B98
:102E040002D04FF0FF3331E30F2002F01BFC4A4B9A
:102E14009B6A5B7A87F8CC30474B5B681B78194612
:102E2400454B1B689B781A464FF480730293012329
:102E3400019307F1CC0300930123404803F096F972
:102E44000346002B02D04FF0FF330FE33A4B9B6A4B
:102E54001B7A87F8CC30384B5B681B781946364BA5
:102E64001B685B781A464FF4807302930123019325
:102E740007F1CC0300930123304803F077F90346AC
:102E8400002B02D04FF0FF33F0E297F8AF30002B65
:102E940008D0294B9B6A9B7A63F01F03DBB287F847
:102EA400CC3004E0244B9B6A9B7A87F8CC30224BCD
:102EB4005B681B781946204B1B689B791A464FF4B4
:102EC400807302930123019307F1CC030093012340
:102ED4001A4803F04BF90346002B02D04FF0FF339E
:102EE400C4E297F8AF30002B08D0134B9B6ADB7A0F
:102EF40063F01F03DBB287F8CC3002E0182387F8B5
:102F0400CC300D4B5B681B7819460B4B1B68DB7987
:102F14001A464FF4807302930123019307F1CC0303
:102F240000930123054803F021F90346002B07D041
:102F34004FF0FF339AE200BF0C0000206000002035
:102F440097F8AF30002B02D0C82002F07BFB40235F
:102F540087F8CC30604B5B681B7819465E4B1B6866
:102F64001B791A464FF4807302930123019307F1EE
:102F7400CC0300930123594803F0F8F80346002BCF
:102F840002D04FF0FF3371E2782387F8CC30524BF4
:102F94005B681B781946504B1B685B791A464FF4E3
:102FA400807302930123019307F1CC03009301235F
:102FB4004A4803F0DBF80346002B02D04FF0FF33FE
:102FC40054E23223184602F03DFB002387F8CC304C
:102FD400414B5B681B7819463F4B1B685B791A466B
:102FE4004FF4807302930123019307F1CC03009300
:102FF40001233A4803F0BAF80346002B02D04FF0FD
:10300400FF3333E2344B5B681B781946324B1B6841
:103014001B7B1A464FF4807302930223019307F13A
:10302400CC03009301232D4803F09AF90346002BA7
:1030340002D04FF0FF3319E297F8CC301B021AB2DA
:1030440097F8CD301BB213431BB2A7F8DC30B7F8A6
:10305400DC20234BA3FB0223DB089BB287F8DB3085
:10306400D7F8B43003F1080100230B60D7F8B4306B
:103074001A1D0B6813601268D7F8B4301A60D7F8B9
:10308400B03003F1080100230B60D7F8B0301A1DEB
:103094000B6813601268D7F8B0301A60002387F801
:1030A400DF30AAE00C4B5B681B7819460A4B1B689F
:1030B4005B7B1A464FF4807302930C23019307F150
:1030C400CC0300930123054803F04AF90346002B7F
:1030D40008D04FF0FF33C9E10C000020600000204D
:1030E400ABAAAAAA97F8CC301B021AB297F8CD3033
:1030F4001BB213431BB2A7F8C43097F8CE301B029F
:103104001AB297F8CF301BB213431BB2A7F8C630DC
:1031140097F8D0301B021AB297F8D1301BB2134380
:103124001BB2A7F8C830D7F8B0301A68B7F9C43062
:103134001A44D7F8B0301A60D7F8B030043319689D
:10314400B7F9C6301846D7F8B0301A1D0B181360FB
:10315400D7F8B03008331968B7F9C8301846D7F82B
:10316400B03003F108020B18136097F8D2301B0239
:103174001AB297F8D3301BB213431BB2A7F8BC3072
:1031840097F8D4301B021AB297F8D5301BB2134308
:103194001BB2A7F8BE3097F8D6301B021AB297F8C4
:1031A400D7301BB213431BB2A7F8C030D7F8B430E2
:1031B4001A68B7F9BC301A44D7F8B4301A60D7F893
:1031C400B43004331968B7F9BE301846D7F8B430B0
:1031D4001A1D0B181360D7F8B43008331968B7F9FF
:1031E400C0301846D7F8B43003F108020B18136046
:1031F40097F8DF30013387F8DF3097F8DF2097F84E
:10320400DB309A42FFF44EAFD7F8B4301B68DA17BC
:103214001C4615462314C7F8A4302304C7F8A0306D
:1032240083220023C7F89820C7F89C30D7E92623C7
:10323400D7E92801FDF70EFB02460B461046194656
:1032440097F8DB300022C7F89030C7F89420D7E90C
:103254002423FDF7FFFA02460B46D7F8B4301A6070
:10326400D7F8B43004331B68DA17984691464FEA0E
:103274002843C7F88C304FEA0843C7F888308322C4
:103284000023C7F88020C7F88430D7E92023D7E982
:103294002201FDF7DFFA02460B461046194697F85D
:1032A400DB300022BB67FA67D7E91E23FDF7D2FAA9
:1032B40002460B4610461946D7F8B4301A1D034689
:1032C4001360D7F8B43008331B68DA179A4693466C
:1032D4004FEA2A437B674FEA0A433B678322002372
:1032E400BA66FB66D7E91A23D7E91C01FDF7B2FADF
:1032F40002460B461046194697F8DB3000223B661F
:103304007A66D7E91823FDF7A5FA02460B4610465C
:103314001946D7F8B43003F1080203461360D7F80E
:10332400B0301B68DA17BB65FA65D7E916120B468D
:103334001B147B650B461B043B654FF400620023A2
:10334400BA64FB64D7E91223D7E91401FDF782FAC2
:1033540002460B461046194697F8DB3000223B64C0
:103364007A64D7E91023FDF775FA02460B46D7F8BD
:10337400B0301A60D7F8B03004331B68DA17BB6377
:10338400FA63D7E90E120B461B147B630B461B042E
:103394003B634FF400620023BA62FB62D7E90A235D
:1033A400D7E90C01FDF756FA02460B4610461946BA
:1033B40097F8DB3000223B627A62D7E90823FDF7F5
:1033C40049FA02460B4610461946D7F8B030043382
:1033D40002461A60D7F8B03008331B68DA17BB61AD
:1033E400FA61D7E906120B461B147B610B461B04DA
:1033F4003B614FF400620023BA60FB60D7E902230B
:10340400D7E90401FDF726FA02460B461046194691
:1034140097F8DB3000223B607A60D7E90023FDF7A0
:1034240019FA02460B4610461946D7F8B03008334D
:1034340002461A60D7F8B03008331B68002B0ADD47
:10344400D7F8B03008331A68D7F8B0300833A2F58B
:1034540080321A6009E0D7F8B03008331A68D7F818
:10346400B030083302F580321A6000231846E03782
:10347400BD46BDE8B08F00BF80B58EB000AF7860A8
:103484003960022387F82E30644B93F82430002BE4
:1034940006D0002000F018FA012387F82F3002E04C
:1034A400002387F82F3007F10C031846FEF7DCFCE5
:1034B40007F10F031846FEF76BFD07F108031846E2
:1034C400FEF712FE07F10A031846FEF7A3FE534B5C
:1034D4009B7A87F82D3007F10E031846FEF79AFF02
:1034E40000237B630AE0002239687868FFF7BCFB9D
:1034F4000346002B08D07B6B01337B6397F82E3097
:103504007A6B9A42EFDB00E000BF97F82E307A6BBB
:103514009A4202D100233B6345E000237B630DE024
:1035240007F1100107F11C0301221846FFF79CFB69
:103534000346002B08D07B6B01337B6397F82E3056
:103544007A6B9A42ECDB00E000BF97F82E307A6B7E
:103554009A4202D100233B6325E007F11003194688
:103564003868FFF737FA034687F82C3007F11C0355
:1035740019467868FFF7B2FA034687F82B30002320
:103584003B6397F82B30002B03D13B6B43F00103D3
:103594003B6397F82C30002B04D13B6B43F00203C0
:1035A4003B6300E000BF1D4BFF221A721B4BFF223E
:1035B4005A721A4BFF22DA72184B4FF6FF72DA81F5
:1035C400164BFF229A72154BFF221A74134B0122D9
:1035D4001A73BB891846FEF77BFCFB7B1846FEF783
:1035E40011FD3B891846FEF7BBFD7B891846FEF7A3
:1035F40029FE97F82D301846FEF76EFFBB7B184660
:10360400FEF718FF97F82F30002B02D0012000F0AE
:103614005BF93B6B18463837BD4680BD0C00002073
:1036240080B588B004AF03463A60FB800B46BB808C
:103634003B68002B02D14FF0FF334EE0294B9B7ABD
:10364400002B02D14FF0FF3347E0FB881B0A9BB2EB
:10365400DBB23B73FB88DBB27B737B7B1A46BB8894
:103664001344204A52685289934202DD4FF0FF33DB
:1036740033E01C4B5B681B7819461A4B1B68DB7ED6
:103684001A464FF4807302930223019307F10C034B
:1036940000930123144802F069FD0346002B02D075
:1036A4004FF0FF3319E00F4B5B681B7819460D4B45
:1036B4001B681B7E1A464FF480730293BB880193E8
:1036C4003B6800930123084802F050FD0346002B99
:1036D40002D04FF0FF3300E0002318461037BD46F8
:1036E40080BD00BF0C0000206000002080B588B0C1
:1036F40004AF03463A60FB800B46BB803B68002B5B
:1037040002D14FF0FF334EE0294B9B7A002B02D1BC
:103714004FF0FF3347E0FB881B0A9BB2DBB23B73DD
:10372400FB88DBB27B737B7B1A46BB881344204A3D
:1037340052685289934202DD4FF0FF3333E01C4B51
:103744005B681B7819461A4B1B68DB7E1A464FF4DC
:10375400807302930223019307F10C030093012366
:10376400144802F003FD0346002B02D04FF0FF3350
:1037740019E00F4B5B681B7819460D4B1B681B7EC9
:103784001A464FF480730293BB8801933B680093FD
:103794000123084802F0E4FD0346002B02D04FF059
:1037A400FF3300E0002318461037BD4680BD00BF3C
:1037B4000C0000206000002080B58EB004AFB9601A
:1037C40011461A460346FB810B46BB811346FB8018
:1037D4003B4B93F82530002B02D04FF0FF336BE0C6
:1037E400BB68002B02D14FF0FF3365E00023FB845C
:1037F40034E0FA89FB8CD31A102BA8BF1023BB84A6
:10380400FB8CBA681A44B98CFB8C1846FFF708FF86
:103814000346002B02D04FF0FF334DE007F11402B2
:10382400B98CFB8C1846FFF761FF0346002B02D0CE
:103834004FF0FF3340E0FB8CBA681344BA8C07F1B5
:103844001401184605F040FA0346002B02D06FF02D
:10385400010331E0FA8CBB8C1344FB84FA8CFB89A2
:103864009A42C6D3BB891B0A9BB2DBB23B74BB89A9
:10387400DBB27B74124B5B681B781946104B1B68D8
:103884005B7F1A464FF4807302930223019307F17E
:103894001003009301230B4802F068FC0346002B3D
:1038A40002D04FF0FF3307E0054B012283F82520B7
:1038B400034AFB88D384002318462837BD4680BDBD
:1038C4000C0000206000002080B588B004AF0346DF
:1038D400FB712E4B93F82430FA799A4201D10023DC
:1038E40050E0FB79002B2FD0284B93F82530002B88
:1038F40002D14FF0FF3345E00020FDF719FF00200F
:10390400FEF784FE214BDB8C1846FEF79BFC00235C
:10391400FB731E4B5B681B7819464FF4807302934C
:103924000123019307F10F03009301232322184875
:1039340002F01CFC154B012283F824200120FDF722
:10394400F7FEFEF721F91CE00020FDF7F1FE0F4B16
:103954001B7CFB730D4B5B681B7819464FF480731B
:1039640002930123019307F10F0300930123232200
:10397400074802F0FBFB054B002283F82420FEF7E6
:1039840003F9002318461037BD4680BD0C00002003
:103994006000002080B500AF4FF48062C823044962
:1039A40040F6F630FFF708FF0346184680BD00BF17
:1039B400188E000880B588B000AF0346FB806E4ABD
:1039C40007F114031268114619800233120C1A709D
:1039D4006A4A07F110031268114619800233120C67
:1039E4001A70674A07F10C031268114619800233F2
:1039F400120C1A70634A07F1080312681146198001
:103A04000233120C1A70FB8803F0030320333B4487
:103A140013F80C3C3B77FB88DB089BB203F00303F1
:103A240020333B4413F80C3C7B77FB889B099BB207
:103A340003F0030320333B4413F80C3CBB77FB88AF
:103A440003F0030320333B4413F8103C3B76FB881C
:103A5400DB089BB203F0030320333B4413F8103C10
:103A64007B76FB889B099BB203F0030320333B4422
:103A740013F8103CBB7607F11C031A46032140F2ED
:103A84002640FFF7CDFD0346002B02D04FF0FF3355
:103A94006EE007F118031A46032140F22A40FFF7AB
:103AA400BFFD0346002B02D04FF0FF3360E007F167
:103AB4001C0307F10C021268114619800233120C20
:103AC4001A7007F1180307F10802126811461980E9
:103AD4000233120C1A70FB8803F00403002B09D084
:103AE4003B7F43F00103DBB23B773B7E43F00103B2
:103AF400DBB23B76FB8803F02003002B09D07B7FED
:103B040043F00103DBB27B777B7E43F00103DBB23E
:103B14007B76FB8803F48073002B09D0BB7F43F0D2
:103B24000103DBB2BB77BB7E43F00103DBB2BB76A0
:103B340007F11C031A4603214FF48860FFF770FD58
:103B44000346002B02D04FF0FF3311E007F11803B6
:103B54001A46032140F23140FFF762FD0346002B71
:103B640002D04FF0FF3303E0074AFB8813810023A0
:103B740018462037BD4680BD788D00087C8D00082E
:103B8400808D0008848D0008B40000202DE9B04F1A
:103B94008CB000AFF861804B1B8903F003039B00DA
:103BA400FA6913441B687B627B4B1B8903F0040393
:103BB400002B02D07B6A5B427B62774B1B89DB085C
:103BC4009BB203F003039B00FA6913441B68BB62B6
:103BD400714B1B8903F02003002B02D0BB6A5B42AC
:103BE400BB626D4B1B899B099BB203F003039B00D3
:103BF400FA6913441B68FB62674B1B8903F48073E7
:103C0400002B02D0FB6A5B42FB627B6ADA173B61E2
:103C14007A61624BD7E904010A4603FB02F20023EE
:103C2400C7E90401014601FB03F313445B4A396904
:103C3400A1FB02AB5B449B464FF000024FF0000334
:103C44004FEA9A7242EA8B024FEAAB7313467B62E5
:103C5400BB6ADA17BB60FA60504BD7E902AB5A462D
:103C640003FB02F20023514601FB03F313444B4AC6
:103C74005146A1FB02894B4499464FF000024FF094
:103C840000034FEA987242EA89024FEAA973134685
:103C9400BB62FB6ADA173B607A60404BD7E9008964
:103CA4004A4603FB02F20023414601FB03F313449B
:103CB4003A4A4146A1FB02452B441D464FF00002FF
:103CC4004FF00003A20F42EA8502AB171346FB62D2
:103CD4007B6A1B16DBB287F820307B6A1B14DBB2CD
:103CE40087F821307B6A1B12DBB287F822307B6AAB
:103CF400DBB287F8233007F120031A4604214FF47E
:103D04007470FFF78DFC0346002B02D04FF0FF3395
:103D14003CE0BB6A1B16DBB287F82030BB6A1B147D
:103D2400DBB287F82130BB6A1B12DBB287F8223082
:103D3400BB6ADBB287F8233007F120031A4604215B
:103D44004FF47570FFF76CFC0346002B02D04FF064
:103D5400FF331BE0FB6A1B16DBB287F82030FB6ADB
:103D64001B14DBB287F82130FB6A1B12DBB287F825
:103D74002230FB6ADBB287F8233007F120031A46AE
:103D840004214FF47670FFF74BFC03461846303796
:103D9400BD46BDE8B08F00BFB400002009E3CA02ED
:103DA4002DE9B04F94B000AF786207F12E031846A6
:103DB400FEF7F2FAFB8D9BB200223B617A614FF071
:103DC40000024FF000037969CB03D7E9040184466C
:103DD40043EA5C430146CA03C7E9122300BF724B9E
:103DE4001B8903F003039B007A6A13441B68FB637B
:103DF4006D4B1B8903F00403002B02D0FB6B5B4269
:103E0400FB63694B1B89DB089BB203F003039B0034
:103E14007A6A13441B683B64634B1B8903F02003D9
:103E2400002B02D03B6C5B423B645F4B1B899B09BC
:103E34009BB203F003039B007A6A13441B687B6400
:103E4400594B1B8903F48073002B02D07B6C5B42BB
:103E54007B64FB6BDA17BB61FA61BB6CD7E90601C3
:103E64000A4602FB03F2FB6CC7E90601014601FBAB
:103E740003F31344BA6CB969A2FB01AB5B449B46E0
:103E84004FF000024FF000034FEA9A7242EA8B02AD
:103E94004FEAAB731346FB633B6CDA17BB60FA6003
:103EA400BB6CD7E902AB5A4602FB03F2FB6C5146EA
:103EB40001FB03F31344BA6C5146A2FB01894B4442
:103EC40099464FF000024FF000034FEA987242EA1D
:103ED40089024FEAA97313463B647B6CDA173B6093
:103EE4007A60BB6CD7E900894A4602FB03F2FB6C9B
:103EF400414601FB03F31344BA6C4146A2FB01455E
:103F04002B441D464FF000024FF00003A20F42EA7B
:103F14008502AB1713467B64FB6B1B16DBB287F879
:103F24003030FB6B1B14DBB287F83130FB6B1B1298
:103F3400DBB287F83230FB6BDBB287F833303B6C93
:103F44001B16DBB287F834303B6C1B14DBB287F8EA
:103F540035303B6C1B12DBB287F836303B6CDBB27E
:103F640087F837307B6C1B16DBB287F838307B6CF4
:103F74001B14DBB287F839307B6C1B12DBB287F879
:103F84003A307B6CDBB287F83B3007F130031A46DA
:103F94000C214FF42570FFF743FB034618465037B6
:103FA400BD46BDE8B08F00BFB400002080B588B026
:103FB40000AF0346FB801F4A07F1100307CA83E8DA
:103FC4000700FB88C82B02D94FF0FF332EE0FB8893
:103FD400C82292FBF3F39BB2013BFB83FB8B1B0ACE
:103FE4009BB2DBB23B72FB8BDBB27B7207F1080343
:103FF4001A46022140F21620FFF712FB0346002B5B
:1040040002D04FF0FF3311E007F110031A460C21E0
:1040140040F6C120FFF704FB0346002B02D04FF00B
:10402400FF3303E0044AFB889381002318462037BA
:10403400BD4680BD888D0008B400002080B586B0E0
:1040440000AF03460A46FB711346BB80FB7903F0BD
:104054000703002B03D0BB88B3F5C86F02D94FF018
:10406400FF3307E1BB881846FCF790F90346834900
:104074001846FCF797FA03463B6107F10B03184611
:10408400FDF786FFFB7A023B0E2B79D801A252F88A
:1040940023F000BFD5400008854100080141000815
:1040A4008541000885410008854100082D4100082C
:1040B40085410008854100088541000885410008C4
:1040C40085410008854100088541000859410008E0
:1040D4004FF08D413869FCF7B1F903461846FCF7F7
:1040E40099FB0346FB8266493869FCF7A7F9034646
:1040F4001846FCF78FFB0346BB8244E04FF08C412B
:104104003869FCF79BF903461846FCF783FB034622
:10411400FB825C493869FCF791F903461846FCF7C1
:1041240079FB0346BB822EE04FF08B413869FCF7E4
:1041340085F903461846FCF76DFB0346FB8252499A
:104144003869FCF77BF903461846FCF763FB034622
:10415400BB8218E04FF08A413869FCF76FF90346D7
:104164001846FCF757FB0346FB8248493869FCF7BD
:1041740065F903461846FCF74DFB0346BB8202E093
:104184004FF0FF3376E0FB8A1B0A9BB2DBB23B7332
:10419400FB8ADBB27B73BB8A1B0A9BB2DBB2BB73A9
:1041A400BB8ADBB2FB73FB7903F00103002B1CD049
:1041B40007F10C031A4602214FF4EA70FFF730FAB4
:1041C4000346002B02D04FF0FF3353E007F10C03FA
:1041D40002331A4602214FF49270FFF721FA034684
:1041E400002B02D04FF0FF3344E0FB7903F00203CD
:1041F400002B1CD007F10C031A4602214FF4EC707B
:10420400FFF70EFA0346002B02D04FF0FF3331E0E4
:1042140007F10C0302331A4602214FF49470FFF79E
:10422400FFF90346002B02D04FF0FF3322E0FB7965
:1042340003F00403002B1CD007F10C031A460221DF
:104244004FF4EE70FFF7ECF90346002B02D04FF069
:10425400FF330FE007F10C0302331A4602214FF437
:104264009670FFF7DDF90346002B02D04FF0FF33C1
:1042740000E0002318461837BD4680BD00004843BF
:10428400000040460000C045000040450000C04416
:1042940080B584B000AF0346FB710023FB73FB7948
:1042A40003F00103002B04D0FB7B43F03003DBB2AB
:1042B400FB73FB7903F00203002B04D0FB7B43F078
:1042C4000C03DBB2FB73FB7903F00403002B04D073
:1042D400FB7B43F00303DBB2FB7307F10F031A46C6
:1042E40001214FF4A470FFF79BF9034618461037D9
:1042F400BD4680BD80B584B000AF0346FB71FB7939
:10430400002B02D10123FB7104E0FB79042B01D9BA
:104314000423FB71FB79013BDBB2FB7307F10F0351
:104324001A46012140F24F10FFF77AF90346184666
:104334001037BD4680BD000080B584B000AF034691
:10434400FB80FB880C4AA2FB03239B08FB81FB89AF
:104354001B0A9BB2DBB23B73FB89DBB27B7307F1B5
:104364000C031A4602214FF4EF70FFF759F9034684
:1043740018461037BD4680BDCDCCCCCC80B584B0BA
:1043840000AF0346FB80FB880C4AA2FB03239B0877
:10439400FB81FB891B0A9BB2DBB23B73FB89DBB25B
:1043A4007B7307F10C031A4602214FF4ED70FFF7FB
:1043B40037F9034618461037BD4680BDCDCCCCCC6A
:1043C40080B584B000AF78600B467B807B68134A6D
:1043D40082FB03129211DB17D31A7A8802FB03F3D0
:1043E400FB60FB681B16DBB23B72FB681B14DBB281
:1043F4007B72FB681B12DBB2BB72FB68DBB2FB7225
:1044040007F108031A4604214FF4AE70FFF708F9C8
:10441400034618461037BD4680BD00BFD34D621019
:1044240080B584B000AF0346FB80FB880C4AA2FB36
:1044340003239B08FB80FB881B0A9BB2DBB23B7304
:10444400FB88DBB27B7307F10C031A4602214FF49D
:10445400AD70FFF7E5F8034618461037BD4680BD3A
:10446400CDCCCCCC80B584B000AF0346FB80FB88B8
:104474000C4AA2FB03239B08FB80FB881B0A9BB20C
:10448400DBB23B73FB88DBB27B7307F10C031A4688
:1044940002214FF4AC70FFF7C3F8034618461037F7
:1044A400BD4680BDCDCCCCCC80B586B000AF034634
:1044B400FB8002233B73CA237B73E323BB7309236F
:1044C400FB7307F10C031A4604216820FFF7A8F8D0
:1044D400A3233B73FB8803F04003002B06D0C023C7
:1044E4007B73C823BB73C223FB7305E0A3237B73D5
:1044F400A323BB73A323FB73FB8803F4C073002BB8
:1045040006D0C4233B74CC237B74C623BB7405E060
:10451400A3233B74A3237B74A323BB74A323FB7443
:10452400A3233B75A3237B7507F10C031A460A21C9
:1045340040F6A720FFF774F8FB8803F00303002B71
:1045440002D020233B7301E0D8233B7307F10C0313
:104554001A46012140F6B620FFF762F8FB8803F003
:104564002003002B03D0012000F0C6F802E0002055
:1045740000F0C2F8FB8803F4C073002B1DD0FB8845
:1045840003F48073002B08D0B2233B738B237B731B
:10459400B623BB739B23FB7307E0B0233B738023D9
:1045A4007B73B423BB739023FB7307F10C031A468C
:1045B400042140F6A220FFF733F8FB8803F001033F
:1045C400002B25D0F8233B7307F10C031A46012175
:1045D4004FF40B60FFF724F8FA210720FFF72EFDB4
:1045E4000720FFF755FE0120FFF784FE6420FFF744
:1045F400A3FE4FF4FA70FFF7C1FEC8213C48FFF751
:10460400DFFE2820FFF70CFF0A20FFF72BFF09E04D
:10461400D8233B7307F10C031A4601214FF40B60B6
:10462400FEF7FEFFFB8803F00203002B02D0D92320
:104634003B7301E0D8233B7307F10C031A460121B5
:1046440040F23D70FEF7ECFFFB8803F00403002BFF
:1046540003D0012000F080F802E0002000F07CF894
:10466400FB8803F01003002B03D0012000F09BF81B
:1046740002E0002000F097F8FB8843F008039AB2A8
:104684001C4B5A81FDF780FA1A4B00229A73FB885F
:1046940003F04003002B05D0164B9B7B0633DAB2A4
:1046A400144B9A73FB8803F4C073002B05D0114B91
:1046B4009B7B0633DAB20F4B9A73FB8803F0140327
:1046C400002B05D00B4B9B7B1033DAB2094B9A734A
:1046D400FB8803F00303002B05D0064B9B7B0433BC
:1046E400DAB2044B9A73002318461837BD4680BDCE
:1046F40009E3CA02B400002080B588B000AF0346C5
:10470400FB71FB79002B0FD0114A07F1140307CA80
:1047140003C31A7007F114031A4609214FF4976072
:10472400FEF77EFF03460EE00A4A07F1080307CAB4
:1047340003C31A7007F108031A4609214FF497605E
:10474400FEF76EFF034618462037BD4680BD00BF06
:10475400948D0008A08D000880B584B000AF034696
:10476400FB71FB79002B08D0C0233B73C2237B73FE
:10477400C423BB73C623FB7306E007F10C030422B6
:104784008B21184604F0B0FA07F10C031A460421F1
:1047940040F69820FEF744FFFDF7F6F90346184665
:1047A4001037BD4680BD80B584B000AF0346FB71B1
:1047B400FB79002B08D020233B7328237B73302301
:1047C400BB733823FB7306E007F10C030422A32117
:1047D400184604F089FA07F10C031A46042140F63E
:1047E4009E20FEF71DFFFDF7CFF90346184610374C
:1047F400BD4680BD80B582B000AF00F0C1FEFCF7BD
:10480400D3FD00F033FA00F0E5F900F0C9FA00F046
:10481400F3FBFCF76DFE00F08BF900210B4802F06E
:104824001FFD00F08BFC00F09FFC00237B60FCF775
:1048340091FA78607B68002BF9D10122044905487C
:1048440003F0B3FCFCF7C2FEFCE700BFEC01002060
:10485400C40000203402002080B400AF72B600BF50
:1048640000BFFDE780B584B000AF164B9B69154AC5
:1048740043F001039361134B9B6903F00103BB6095
:10488400BB68104BDB690F4A43F08053D3610D4B77
:10489400DB6903F080537B607B68052000F0C2FF76
:1048A400094B5B68FB60FB6823F0E063FB60FB681B
:1048B40043F00073FB60044AFB68536000BF103789
:1048C400BD4680BD001002400000014080B400AF2E
:1048D40000BFFDE780B400AF00BFFDE780B400AFC8
:1048E40000BFFDE780B400AF00BFFDE780B400AFB8
:1048F40000BFFDE780B400AF00BFBD4680BC704779
:1049040080B400AF00BFBD4680BC704780B400AF28
:1049140000BFBD4680BC704780B500AF00F076FE96
:1049240000BF80BD80B500AF022001F0C3FA00BF14
:1049340080BD000080B500AF024802F04BFD00BF0F
:1049440080BD00BFA401002080B500AF024803F081
:1049540051FC00BF80BD00BF3402002080B582B08E
:1049640000AF0346FB800A2000F06CFEFB88022B9C
:1049740027D14FF0804300225A62144802F09AFB78
:1049840000BF0221124801F065FA0346002BF8D15A
:104994000E4802F0E7FB4FF080435B6A1846FBF7D2
:1049A400F9FC03460B491846FBF748FD03464FF054
:1049B40080411846FBF7F6FD03461A46064B1A607B
:1049C40000E000BF00BF0837BD4680BD5C01002089
:1049D4000010014096430B3D7C02002080B582B05C
:1049E40000AF78607B681B68484A934240F0898036
:1049F400474B1B78042B00F2848001A252F823F069
:104A0400194A0008474A0008614A0008A34A0008F6
:104A1400E54A00083F4B1B78AA2B0CD13D4B1A7872
:104A24003D4B1A703A4B01221A70012239493B4816
:104A340003F0BBFB65E001223649384803F0B5FBBF
:104A44005FE0344B1A78344B5A70314B02221A709F
:104A540001223049314803F0A8FB52E02D4B1A786B
:104A64002D4B9A702C4B9B78002B0FD02A4B9B78A4
:104A7400202B0BD8264B03221A70294B00221A70C4
:104A840001222449254803F090FB3AE0204B002200
:104A94001A7001221F49214803F087FB31E0204BA3
:104AA4001B785A1CD1B21E4A11701946194B1A7838
:104AB400194B0B44DA70184B9A78194B1B789A42AD
:104AC40008D8134B04221A7001221249134803F028
:104AD4006CFB16E001220F49104803F066FB10E05E
:104AE4000C4B1A780C4B83F823200B48FCF7F0F995
:104AF400074B00221A7001220649084803F055FBAF
:104B040000BF00BF0837BD4680BD00BF0044004061
:104B1400EB000020C4000020EC0000203402002040
:104B24001001002080B400AF00BFBD4680BC7047B8
:104B340080B586B000AF07F1080300221A605A60FE
:104B44009A60DA603B4600221A605A601F4B204A82
:104B54001A601E4B41F61F425A601C4B00229A6099
:104B64001A4B4FF6FF72DA60184B00221A61174B8A
:104B740000225A61154B00229A61144802F04AFA45
:104B84000346002B01D0FFF767FE4FF48053BB6050
:104B940007F1080319460D4802F0CEFD0346002B29
:104BA40001D0FFF759FE00233B6000237B603B46A6
:104BB4001946064803F0A0F90346002B01D0FFF77D
:104BC4004BFE00BF1837BD4680BD00BF1401002056
:104BD400002C014080B586B000AF07F10803002225
:104BE4001A605A609A60DA603B4600221A605A6082
:104BF4001D4B4FF080421A601B4B47225A601A4BE0
:104C040000229A60184B4FF6FF72DA60164B0022AE
:104C14001A61154B80229A61134802F0FBF903468E
:104C2400002B01D0FFF718FE4FF48053BB6007F14F
:104C3400080319460C4802F07FFD0346002B01D0FF
:104C4400FFF70AFE00233B6000237B603B461946C6
:104C5400054803F051F90346002B01D0FFF7FCFD92
:104C640000BF1837BD4680BD5C01002080B58EB002
:104C740000AF07F1280300221A605A609A60DA60D4
:104C840007F1200300221A605A603B1D00221A60BB
:104C94005A609A60DA601A615A619A613E4B3F4ADF
:104CA4001A603D4B00225A603B4B00229A603A4BFB
:104CB40041F61F42DA60384B00221A61364B8022DB
:104CC4009A61354802F0A6F90346002B01D0FFF79C
:104CD400C3FD4FF48053BB6207F1280319462E48E5
:104CE40002F02AFD0346002B01D0FFF7B5FD2A4848
:104CF40002F05EFA0346002B01D0FFF7ADFD00235E
:104D04003B6200237B6207F120031946224803F02B
:104D1400F3F80346002B01D0FFF79EFD70237B6060
:104D24000023BB600023FB6000237B613B1D00224A
:104D34001946194802F03EFC0346002B01D0FFF748
:104D44008BFD3B1D04221946134802F033FC034635
:104D5400002B01D0FFF780FD60237B603B1D082200
:104D640019460D4802F026FC0346002B01D0FFF73C
:104D740073FD3B1D0C221946074802F01BFC034639
:104D8400002B01D0FFF768FD034800F0DFF800BFF7
:104D94003837BD4680BD00BFA40100200008004094
:104DA40080B58EB000AF07F1280300221A605A6064
:104DB4009A60DA6007F1200300221A605A603B1DF2
:104DC40000221A605A609A60DA601A615A619A6124
:104DD4002C4B2D4A1A602B4B8F225A60294B0022F0
:104DE4009A60284B42F20F72DA60264B00221A6155
:104DF400244B80229A61234802F00CF90346002BCD
:104E040001D0FFF729FD4FF48053BB6207F128035B
:104E140019461C4802F090FC0346002B01D0FFF712
:104E24001BFD184802F0C4F90346002B01D0FFF71C
:104E340013FD00233B6200237B6207F12003194624
:104E4400104803F059F80346002B01D0FFF704FD86
:104E540060237B600023BB600023FB6000237B6135
:104E64003B1D00221946074802F0A4FB0346002B11
:104E740001D0FFF7F1FC034800F068F800BF3837B1
:104E8400BD4680BDEC010020000C004080B586B01A
:104E940000AF78607B681B68284A93420CD1284B8A
:104EA4009B69274A43F400639361254B9B6903F490
:104EB40000637B617B693CE07B681B68B3F1804FD6
:104EC4000CD11F4BDB691E4A43F00103D3611C4B19
:104ED400DB6903F001033B613B692AE07B681B68E3
:104EE400184A934214D1164BDB69154A43F0040364
:104EF400D361134BDB6903F00403FB60FB680022FE
:104F040001211E2000F099FC1E2000F0B2FC10E0EC
:104F14007B681B680C4A93420BD1094BDB69084A36
:104F240043F00803D361064BDB6903F00803BB605D
:104F3400BB6800BF1837BD4680BD00BF002C0140D0
:104F44000010024000080040000C004080B588B00A
:104F540000AF786007F1100300221A605A609A606B
:104F6400DA607B681B681F4A934219D11E4B9B6908
:104F74001D4A43F0080393611B4B9B6903F008032C
:104F8400FB60FB684FF470733B6102237B61032376
:104F9400FB6107F110031946144800F0C7FD1CE03B
:104FA4007B681B68124A934217D10F4B9B690E4AC8
:104FB40043F0040393610C4B9B6903F00403BB604F
:104FC400BB6801233B6102237B610223FB6107F180
:104FD40010031946074800F0A9FD00BF2037BD465D
:104FE40080BD00BF0008004000100240000C0140DA
:104FF400000C00400008014080B500AF114B124A7C
:105004001A60104B4FF416525A600E4B00229A60ED
:105014000C4B0022DA600B4B00221A61094B0C2264
:105024005A61084B00229A61064B0022DA61054856
:1050340002F0E0FF0346002B01D0FFF70DFC00BF98
:1050440080BD00BF340200200044004080B588B019
:1050540000AF786007F1100300221A605A609A606A
:10506400DA607B681B681F4A934237D11E4BDB69A9
:105074001D4A43F40033D3611B4BDB6903F4003353
:10508400FB60FB68184B9B69174A43F00403936168
:10509400154B9B6903F00403BB60BB6804233B61AD
:1050A40002237B610323FB6107F1100319460F48B8
:1050B40000F03CFD08233B6100237B610023BB61BE
:1050C40007F110031946094800F030FD00220121C0
:1050D400262000F0B2FB262000F0CBFB00BF2037D7
:1050E400BD4680BD0044004000100240000801405D
:1050F400FFF718FD0B480C490C4A002302E0D45872
:10510400C4500433C4188C42F9D3094A094C00230F
:1051140001E013600432A242FBD303F0EDFDFFF77C
:1051240069FB70470000002044000020289A000812
:105134004400002084020020FEE7000080B500AF98
:105144000021084802F08CF80421064802F088F88F
:105154000821044802F084F80C21024802F080F887
:1051640000BF80BDA401002080B500AF00224FF431
:105174008051144800F085FE00224FF4005111487C
:1051840000F07FFE00224FF480410E4800F079FECB
:1051940000224FF400410B4800F073FE0A4B1B68D9
:1051A4004FF4E1525A63084B1B684FF4E1529A637F
:1051B400054B1B680022DA63034B1B6800221A6448
:1051C40000BF80BD000C0140A401002080B582B066
:1051D40000AF786000224FF48051154800F051FE72
:1051E40000224FF40051124800F04BFE00224FF40D
:1051F40080410F4800F045FE00224FF400410C4866
:1052040000F03FFE7B681B6800225A637B681B68C2
:1052140000229A637B681B684FF4E152DA637B686F
:105224001B684FF4E1521A6400BF0837BD4680BDC5
:10523400000C014080B582B000AF786001224FF4C9
:105244008051154800F01DFE01224FF40051124810
:1052540000F017FE01224FF480410F4800F011FEC8
:1052640001224FF400410C4800F00BFE7B681B68E0
:105274004FF4E1525A637B681B684FF4E1529A631E
:105284007B681B680022DA637B681B6800221A644F
:1052940000BF0837BD4680BD000C014080B582B018
:1052A40000AF786001224FF48051154800F0E9FD09
:1052B40000224FF40051124800F0E3FD00224FF4A5
:1052C40080410F4800F0DDFD01224FF400410C48FD
:1052D40000F0D7FD7B681B684FF4E1525A637B688A
:1052E4001B6800229A637B681B684FF4E152DA63FF
:1052F4007B681B6800221A6400BF0837BD4680BD66
:10530400000C014080B582B000AF786000224FF4F9
:105314008051154800F0B5FD01224FF400511248A8
:1053240000F0AFFD01224FF480410F4800F0A9FDC9
:1053340000224FF400410C4800F0A3FD7B681B6879
:1053440000225A637B681B684FF4E1529A637B68BE
:105354001B680022DA637B681B684FF4E1521A640D
:1053640000BF0837BD4680BD000C014080B582B047
:1053740000AF786001224FF48051164800F081FD9F
:1053840001224FF40051134800F07BFD00224FF43A
:105394008041104800F075FD00224FF400410D4893
:1053A40000F06FFD7B681B684FF4E1525A637B6821
:1053B4001B684FF4E1529A637B681B684FF4E15217
:1053C400DA637B681B684FF4E1521A6400BF083744
:1053D400BD4680BD000C014080B582B000AF78604E
:1053E40000224FF48051144800F04BFD00224FF48A
:1053F4000051114800F045FD01224FF480410E4850
:1054040000F03FFD01224FF400410B4800F039FD4C
:105414007B681B6800225A637B681B6800229A63BE
:105424007B681B680022DA637B681B6800221A64AD
:1054340000BF0837BD4680BD000C014080B582B076
:1054440000AF786000224FF48051164800F019FD37
:1054540000224FF40051134800F013FD00224FF4D2
:105464008041104800F00DFD00224FF400410D482A
:1054740000F007FD7B681B684FF461625A637B6828
:105484001B684FF461629A637B681B684FF4616226
:10549400DA637B681B684FF461621A6400BF0837E3
:1054A400BD4680BD000C014080B582B000AF78607D
:1054B40001224FF48051164800F0E3FC01224FF41E
:1054C4000051134800F0DDFC00224FF480411048E5
:1054D40000F0D7FC00224FF400410D4800F0D1FC4D
:1054E4007B681B684FF461625A637B681B684FF4E6
:1054F40061629A637B681B684FF46162DA637B685C
:105504001B684FF461621A6400BF0837BD4680BD52
:10551400000C014080B582B000AF786000224FF4E7
:105524008051164800F0ADFC00224FF4005113489E
:1055340000F0A7FC01224FF48041104800F0A1FCC8
:1055440001224FF400410D4800F09BFC7B681B686E
:105554004FF461625A637B681B684FF461629A631B
:105564007B681B684FF46162DA637B681B684FF4E5
:1055740061621A6400BF0837BD4680BD000C01405B
:1055840080B500AF084B1B68074A43F01003136053
:10559400032000F047F9002000F008F8FFF762F953
:1055A4000023184680BD00BF0020024080B582B0B1
:1055B40000AF7860124B1A68124B1B7819464FF4EF
:1055C4007A73B3FBF1F3B2FBF3F3184600F05FF91F
:1055D4000346002B01D001230EE07B680F2B0AD871
:1055E400002279684FF0FF3000F027F9064A7B6803
:1055F4001360002300E0012318460837BD4680BD30
:1056040038000020400000203C00002080B400AF9F
:10561400054B1B781A46054B1B681344034A136059
:1056240000BFBD4680BC70474000002080020020BF
:1056340080B400AF024B1B681846BD4680BC70475F
:105644008002002080B584B000AF7860FFF7F0FFDF
:10565400B8607B68FB60FB68B3F1FF3F05D00A4B81
:105664001B781A46FB681344FB6000BFFFF7E0FF9A
:105674000246BB68D31AFA689A42F7D800BF00BF43
:105684001037BD4680BD00BF4000002080B485B007
:1056940000AF78607B6803F00703FB600C4BDB68AA
:1056A400BB60BA684FF6FF031340BB60FB681A0285
:1056B400BB68134343F0BF6343F40033BB60044A45
:1056C400BB68D36000BF1437BD4680BC704700BFC1
:1056D40000ED00E080B400AF044BDB681B0A03F06C
:1056E40007031846BD4680BC704700BF00ED00E0CC
:1056F40080B483B000AF0346FB7197F90730002BE9
:105704000BDBFB7903F01F02064997F907305B09AD
:10571400012000FA02F241F8232000BF0C37BD46F5
:1057240080BC704700E100E080B483B000AF034662
:105734003960FB7197F90730002B0ADB3B68DAB25A
:105744000C4997F907301201D2B20B4483F80023B5
:105754000AE03B68DAB20849FB7903F00F03043B23
:105764001201D2B20B441A7600BF0C37BD4680BC7E
:10577400704700BF00E100E000ED00E080B489B0B4
:1057840000AFF860B9607A60FB6803F00703FB615F
:10579400FB69C3F10703042B28BF0423BB61FB6926
:1057A4000433062B02D9FB69033B00E000237B6131
:1057B4004FF0FF32BB6902FA03F3DA43BB681A40C5
:1057C4007B699A404FF0FF317B6901FA03F3D943B7
:1057D4007B680B40134318462437BD4680BC704792
:1057E40080B582B000AF78607B68013BB3F1807F05
:1057F40001D301230FE00A4A7B68013B53600F2168
:105804004FF0FF30FFF790FF054B00229A60044BE6
:1058140007221A60002318460837BD4680BD00BF22
:1058240010E000E080B582B000AF78607868FFF7E0
:105834002DFF00BF0837BD4680BD80B586B000AFE0
:105844000346B9607A60FB7300237B61FFF742FF74
:1058540078617A68B9687869FFF790FF024697F92A
:105864000F3011461846FFF75FFF00BF1837BD46DB
:1058740080BD80B582B000AF0346FB7197F9073055
:105884001846FFF735FF00BF0837BD4680BD80B519
:1058940082B000AF78607868FFF7A2FF034618462D
:1058A4000837BD4680BD80B485B000AF7860002362
:1058B400FB737B6893F82130DBB2022B08D07B6842
:1058C40004229A637B68002283F82020012320E0CD
:1058D4007B681B681A687B681B6822F00E021A60DA
:1058E4007B681B681A687B681B6822F001021A60D7
:1058F4007B681A6C7B68DB6B012101FA02F25A6047
:105904007B68012283F821207B68002283F8202011
:10591400FB7B18461437BD4680BC704780B584B005
:1059240000AF78600023FB737B6893F82130DBB20F
:10593400022B05D07B6804229A630123FB73D6E013
:105944007B681B681A687B681B6822F00E021A6069
:105954007B681B681A687B681B6822F001021A6066
:105964007B681B681A46644B9A4258D97B681B684B
:10597400624A93424FD07B681B68614A934248D085
:105984007B681B685F4A934240D07B681B685E4A11
:10599400934238D07B681B685C4A934230D07B6862
:1059A4001B685B4A934228D07B681B68524A934227
:1059B40020D07B681B68574A934219D07B681B68C8
:1059C400554A934212D07B681B68544A93420AD0CA
:1059D4007B681B68524A934202D14FF480531BE008
:1059E4004FF4803318E04FF4807315E0102313E074
:1059F400012311E04FF080730EE04FF480130BE0AD
:105A04004FF4803308E04FF4805305E04FF4807383
:105A140002E0102300E00123424A536057E07B6810
:105A24001B68364A93424FD07B681B68344A9342C2
:105A340048D07B681B68334A934240D07B681B681C
:105A4400314A934238D07B681B68304A934230D045
:105A54007B681B682E4A934228D07B681B68264AC1
:105A6400934220D07B681B682A4A934219D07B68F2
:105A74001B68294A934212D07B681B68274A9342C9
:105A84000AD07B681B68264A934202D14FF48053A4
:105A94001BE04FF4803318E04FF4807315E01023BB
:105AA40013E0012311E04FF080730EE04FF48013F4
:105AB4000BE04FF4803308E04FF4805305E04FF4DB
:105AC400807302E0102300E00123174A53607B68CF
